{"contracts/CommitRevealElection.sol":{"CommitRevealElection":{"abi":[{"inputs":[],"stateMutability":"nonpayable","type":"constructor"},{"anonymous":false,"inputs":[{"indexed":true,"internalType":"uint256","name":"candidateId","type":"uint256"},{"indexed":false,"internalType":"string","name":"name","type":"string"}],"name":"CandidateAdded","type":"event"},{"anonymous":false,"inputs":[{"indexed":false,"internalType":"enum CommitRevealElection.Stage","name":"newStage","type":"uint8"}],"name":"StageChanged","type":"event"},{"anonymous":false,"inputs":[{"indexed":true,"internalType":"address","name":"voter","type":"address"},{"indexed":false,"internalType":"bytes32","name":"commitHash","type":"bytes32"}],"name":"VoteCommitted","type":"event"},{"anonymous":false,"inputs":[{"indexed":true,"internalType":"address","name":"voter","type":"address"},{"indexed":false,"internalType":"uint256","name":"candidateId","type":"uint256"}],"name":"VoteRevealed","type":"event"},{"anonymous":false,"inputs":[{"indexed":true,"internalType":"address","name":"voter","type":"address"}],"name":"VoterRegistered","type":"event"},{"inputs":[{"internalType":"string","name":"_name","type":"string"}],"name":"addCandidate","outputs":[],"stateMutability":"nonpayable","type":"function"},{"inputs":[],"name":"admin","outputs":[{"internalType":"address","name":"","type":"address"}],"stateMutability":"view","type":"function"},{"inputs":[],"name":"advanceStage","outputs":[],"stateMutability":"nonpayable","type":"function"},{"inputs":[],"name":"candidateCount","outputs":[{"internalType":"uint256","name":"","type":"uint256"}],"stateMutability":"view","type":"function"},{"inputs":[{"internalType":"uint256","name":"","type":"uint256"}],"name":"candidates","outputs":[{"internalType":"uint256","name":"id","type":"uint256"},{"internalType":"string","name":"name","type":"string"},{"internalType":"uint256","name":"voteCount","type":"uint256"}],"stateMutability":"view","type":"function"},{"inputs":[{"internalType":"bytes32","name":"_commitHash","type":"bytes32"}],"name":"commitVote","outputs":[],"stateMutability":"nonpayable","type":"function"},{"inputs":[{"internalType":"address","name":"","type":"address"}],"name":"commits","outputs":[{"internalType":"bytes32","name":"commitHash","type":"bytes32"},{"internalType":"bool","name":"revealed","type":"bool"},{"internalType":"uint256","name":"candidateId","type":"uint256"}],"stateMutability":"view","type":"function"},{"inputs":[],"name":"currentStage","outputs":[{"internalType":"enum CommitRevealElection.Stage","name":"","type":"uint8"}],"stateMutability":"view","type":"function"},{"inputs":[{"internalType":"uint256","name":"_candidateId","type":"uint256"},{"internalType":"uint256","name":"_secret","type":"uint256"}],"name":"generateCommitHash","outputs":[{"internalType":"bytes32","name":"","type":"bytes32"}],"stateMutability":"pure","type":"function"},{"inputs":[],"name":"getAllCandidates","outputs":[{"components":[{"internalType":"uint256","name":"id","type":"uint256"},{"internalType":"string","name":"name","type":"string"},{"internalType":"uint256","name":"voteCount","type":"uint256"}],"internalType":"struct CommitRevealElection.Candidate[]","name":"","type":"tuple[]"}],"stateMutability":"view","type":"function"},{"inputs":[{"internalType":"uint256","name":"_candidateId","type":"uint256"}],"name":"getCandidate","outputs":[{"internalType":"uint256","name":"","type":"uint256"},{"internalType":"string","name":"","type":"string"},{"internalType":"uint256","name":"","type":"uint256"}],"stateMutability":"view","type":"function"},{"inputs":[],"name":"getElectionStats","outputs":[{"internalType":"uint256","name":"","type":"uint256"},{"internalType":"uint256","name":"","type":"uint256"},{"internalType":"uint256","name":"","type":"uint256"},{"internalType":"uint256","name":"","type":"uint256"},{"internalType":"enum CommitRevealElection.Stage","name":"","type":"uint8"}],"stateMutability":"view","type":"function"},{"inputs":[{"internalType":"address","name":"_voter","type":"address"}],"name":"getVoterCommit","outputs":[{"internalType":"bytes32","name":"","type":"bytes32"},{"internalType":"bool","name":"","type":"bool"},{"internalType":"uint256","name":"","type":"uint256"}],"stateMutability":"view","type":"function"},{"inputs":[],"name":"getWinner","outputs":[{"internalType":"uint256","name":"","type":"uint256"},{"internalType":"string","name":"","type":"string"},{"internalType":"uint256","name":"","type":"uint256"}],"stateMutability":"view","type":"function"},{"inputs":[{"internalType":"address","name":"_voter","type":"address"}],"name":"hasVoterCommitted","outputs":[{"internalType":"bool","name":"","type":"bool"}],"stateMutability":"view","type":"function"},{"inputs":[{"internalType":"address","name":"_voter","type":"address"}],"name":"hasVoterRevealed","outputs":[{"internalType":"bool","name":"","type":"bool"}],"stateMutability":"view","type":"function"},{"inputs":[{"internalType":"address","name":"_voter","type":"address"}],"name":"isVoterRegistered","outputs":[{"internalType":"bool","name":"","type":"bool"}],"stateMutability":"view","type":"function"},{"inputs":[{"internalType":"address[]","name":"_voters","type":"address[]"}],"name":"registerMultipleVoters","outputs":[],"stateMutability":"nonpayable","type":"function"},{"inputs":[{"internalType":"address","name":"_voter","type":"address"}],"name":"registerVoter","outputs":[],"stateMutability":"nonpayable","type":"function"},{"inputs":[{"internalType":"address","name":"","type":"address"}],"name":"registeredVoters","outputs":[{"internalType":"bool","name":"","type":"bool"}],"stateMutability":"view","type":"function"},{"inputs":[],"name":"resetElection","outputs":[],"stateMutability":"nonpayable","type":"function"},{"inputs":[{"internalType":"uint256","name":"_candidateId","type":"uint256"},{"internalType":"uint256","name":"_secret","type":"uint256"}],"name":"revealVote","outputs":[],"stateMutability":"nonpayable","type":"function"},{"inputs":[],"name":"totalCommits","outputs":[{"internalType":"uint256","name":"","type":"uint256"}],"stateMutability":"view","type":"function"},{"inputs":[],"name":"totalRevealed","outputs":[{"internalType":"uint256","name":"","type":"uint256"}],"stateMutability":"view","type":"function"},{"inputs":[],"name":"voterCount","outputs":[{"internalType":"uint256","name":"","type":"uint256"}],"stateMutability":"view","type":"function"}],"evm":{"bytecode":{"linkReferences":{},"object":"60806040523480156200001157600080fd5b50336000806101000a81548173ffffffffffffffffffffffffffffffffffffffff021916908373ffffffffffffffffffffffffffffffffffffffff16021790555060008060146101000a81548160ff021916908360038111156200007a576200007962000085565b5b0217905550620000b4565b7f4e487b7100000000000000000000000000000000000000000000000000000000600052602160045260246000fd5b61327180620000c46000396000f3fe608060405234801561001057600080fd5b50600436106101735760003560e01c80635bf5d54c116100de578063c33f48fd11610097578063eb2119db11610071578063eb2119db1461045c578063f225c1f81461048c578063f3738569146104a8578063f851a440146104c657610173565b8063c33f48fd14610418578063d5bae5b614610422578063e8f305231461045257610173565b80635bf5d54c146103385780637b43a8e6146103565780638e7ea5b214610388578063906ad2a9146103a8578063a9a981a3146103ca578063a9ff6df1146103e857610173565b8063369ffdf911610130578063369ffdf91461027857806338db6dd3146102a85780633e858923146102c457806342169e48146102e057806344d6ee2b146102fe578063462e91ec1461031c57610173565b8063035fbe11146101785780630d5ca930146101a857806327846c8d146101da5780632e6997fe146101f65780633477ee2e1461021457806335b8e82014610246575b600080fd5b610192600480360381019061018d9190611f35565b6104e4565b60405161019f9190611f7d565b60405180910390f35b6101c260048036038101906101bd9190611f35565b61053d565b6040516101d193929190611fca565b60405180910390f35b6101f460048036038101906101ef919061202d565b6105db565b005b6101fe610a31565b60405161020b919061221e565b60405180910390f35b61022e60048036038101906102299190612240565b610ba6565b60405161023d939291906122b7565b60405180910390f35b610260600480360381019061025b9190612240565b610c58565b60405161026f939291906122b7565b60405180910390f35b610292600480360381019061028d919061202d565b610d93565b60405161029f91906122f5565b60405180910390f35b6102c260048036038101906102bd9190611f35565b610dc6565b005b6102de60048036038101906102d9919061233c565b61100f565b005b6102e861124a565b6040516102f59190612369565b60405180910390f35b610306611250565b6040516103139190612369565b60405180910390f35b610336600480360381019061033191906124b9565b611256565b005b610340611411565b60405161034d9190612579565b60405180910390f35b610370600480360381019061036b9190611f35565b611424565b60405161037f93929190611fca565b60405180910390f35b61039061145b565b60405161039f939291906122b7565b60405180910390f35b6103b0611650565b6040516103c1959493929190612594565b60405180910390f35b6103d2611685565b6040516103df9190612369565b60405180910390f35b61040260048036038101906103fd9190611f35565b61168b565b60405161040f9190611f7d565b60405180910390f35b6104206116ab565b005b61043c60048036038101906104379190611f35565b6119bf565b6040516104499190611f7d565b60405180910390f35b61045a611a11565b005b61047660048036038101906104719190611f35565b611ba6565b6040516104839190611f7d565b60405180910390f35b6104a660048036038101906104a191906126af565b611bfc565b005b6104b0611e78565b6040516104bd9190612369565b60405180910390f35b6104ce611e7e565b6040516104db9190612707565b60405180910390f35b6000600360008373ffffffffffffffffffffffffffffffffffffffff1673ffffffffffffffffffffffffffffffffffffffff16815260200190815260200160002060010160009054906101000a900460ff169050919050565b600080600080600360008673ffffffffffffffffffffffffffffffffffffffff1673ffffffffffffffffffffffffffffffffffffffff168152602001908152602001600020604051806060016040529081600082015481526020016001820160009054906101000a900460ff161515151581526020016002820154815250509050806000015181602001518260400151935093509350509193909250565b600260003373ffffffffffffffffffffffffffffffffffffffff1673ffffffffffffffffffffffffffffffffffffffff16815260200190815260200160002060009054906101000a900460ff16610667576040517f08c379a000000000000000000000000000000000000000000000000000000000815260040161065e9061276e565b60405180910390fd5b600280600381111561067c5761067b612502565b5b600060149054906101000a900460ff16600381111561069e5761069d612502565b5b146106de576040517f08c379a00000000000000000000000000000000000000000000000000000000081526004016106d590612800565b60405180910390fd5b6000801b600360003373ffffffffffffffffffffffffffffffffffffffff1673ffffffffffffffffffffffffffffffffffffffff1681526020019081526020016000206000015403610765576040517f08c379a000000000000000000000000000000000000000000000000000000000815260040161075c9061286c565b60405180910390fd5b600360003373ffffffffffffffffffffffffffffffffffffffff1673ffffffffffffffffffffffffffffffffffffffff16815260200190815260200160002060010160009054906101000a900460ff16156107f5576040517f08c379a00000000000000000000000000000000000000000000000000000000081526004016107ec906128fe565b60405180910390fd5b60008311801561080757506004548311155b610846576040517f08c379a000000000000000000000000000000000000000000000000000000000815260040161083d9061296a565b60405180910390fd5b6000838360405160200161085b9291906129ab565b604051602081830303815290604052805190602001209050600360003373ffffffffffffffffffffffffffffffffffffffff1673ffffffffffffffffffffffffffffffffffffffff1681526020019081526020016000206000015481146108f7576040517f08c379a00000000000000000000000000000000000000000000000000000000081526004016108ee90612a23565b60405180910390fd5b6001600360003373ffffffffffffffffffffffffffffffffffffffff1673ffffffffffffffffffffffffffffffffffffffff16815260200190815260200160002060010160006101000a81548160ff02191690831515021790555083600360003373ffffffffffffffffffffffffffffffffffffffff1673ffffffffffffffffffffffffffffffffffffffff168152602001908152602001600020600201819055506001600085815260200190815260200160002060020160008154809291906109c090612a72565b9190505550600760008154809291906109d890612a72565b91905055503373ffffffffffffffffffffffffffffffffffffffff167f522b45c661375abb939dc17b4b600412c93af64fcbe24859a73539d01bb4eec885604051610a239190612369565b60405180910390a250505050565b6060600060045467ffffffffffffffff811115610a5157610a5061238e565b5b604051908082528060200260200182016040528015610a8a57816020015b610a77611ea2565b815260200190600190039081610a6f5790505b5090506000600190505b6004548111610b9e576001600082815260200190815260200160002060405180606001604052908160008201548152602001600182018054610ad590612ae9565b80601f0160208091040260200160405190810160405280929190818152602001828054610b0190612ae9565b8015610b4e5780601f10610b2357610100808354040283529160200191610b4e565b820191906000526020600020905b815481529060010190602001808311610b3157829003601f168201915b5050505050815260200160028201548152505082600183610b6f9190612b1a565b81518110610b8057610b7f612b4e565b5b60200260200101819052508080610b9690612a72565b915050610a94565b508091505090565b6001602052806000526040600020600091509050806000015490806001018054610bcf90612ae9565b80601f0160208091040260200160405190810160405280929190818152602001828054610bfb90612ae9565b8015610c485780601f10610c1d57610100808354040283529160200191610c48565b820191906000526020600020905b815481529060010190602001808311610c2b57829003601f168201915b5050505050908060020154905083565b6000606060008084118015610c6f57506004548411155b610cae576040517f08c379a0000000000000000000000000000000000000000000000000000000008152600401610ca59061296a565b60405180910390fd5b60006001600086815260200190815260200160002060405180606001604052908160008201548152602001600182018054610ce890612ae9565b80601f0160208091040260200160405190810160405280929190818152602001828054610d1490612ae9565b8015610d615780601f10610d3657610100808354040283529160200191610d61565b820191906000526020600020905b815481529060010190602001808311610d4457829003601f168201915b505050505081526020016002820154815250509050806000015181602001518260400151935093509350509193909250565b60008282604051602001610da89291906129ab565b60405160208183030381529060405280519060200120905092915050565b60008054906101000a900473ffffffffffffffffffffffffffffffffffffffff1673ffffffffffffffffffffffffffffffffffffffff163373ffffffffffffffffffffffffffffffffffffffff1614610e54576040517f08c379a0000000000000000000000000000000000000000000000000000000008152600401610e4b90612bef565b60405180910390fd5b6000806003811115610e6957610e68612502565b5b600060149054906101000a900460ff166003811115610e8b57610e8a612502565b5b14610ecb576040517f08c379a0000000000000000000000000000000000000000000000000000000008152600401610ec290612800565b60405180910390fd5b600260008373ffffffffffffffffffffffffffffffffffffffff1673ffffffffffffffffffffffffffffffffffffffff16815260200190815260200160002060009054906101000a900460ff1615610f58576040517f08c379a0000000000000000000000000000000000000000000000000000000008152600401610f4f90612c5b565b60405180910390fd5b6001600260008473ffffffffffffffffffffffffffffffffffffffff1673ffffffffffffffffffffffffffffffffffffffff16815260200190815260200160002060006101000a81548160ff02191690831515021790555060056000815480929190610fc390612a72565b91905055508173ffffffffffffffffffffffffffffffffffffffff167fb6be2187d059cc2a55fe29e0e503b566e1e0f8c8780096e185429350acffd3dd60405160405180910390a25050565b600260003373ffffffffffffffffffffffffffffffffffffffff1673ffffffffffffffffffffffffffffffffffffffff16815260200190815260200160002060009054906101000a900460ff1661109b576040517f08c379a00000000000000000000000000000000000000000000000000000000081526004016110929061276e565b60405180910390fd5b60018060038111156110b0576110af612502565b5b600060149054906101000a900460ff1660038111156110d2576110d1612502565b5b14611112576040517f08c379a000000000000000000000000000000000000000000000000000000000815260040161110990612800565b60405180910390fd5b6000801b600360003373ffffffffffffffffffffffffffffffffffffffff1673ffffffffffffffffffffffffffffffffffffffff1681526020019081526020016000206000015414611199576040517f08c379a000000000000000000000000000000000000000000000000000000000815260040161119090612ced565b60405180910390fd5b81600360003373ffffffffffffffffffffffffffffffffffffffff1673ffffffffffffffffffffffffffffffffffffffff16815260200190815260200160002060000181905550600660008154809291906111f390612a72565b91905055503373ffffffffffffffffffffffffffffffffffffffff167f378881b5d2d0f50f0782bfc28c9194fbce3515be77236885f5256babb2e45c338360405161123e91906122f5565b60405180910390a25050565b60055481565b60065481565b60008054906101000a900473ffffffffffffffffffffffffffffffffffffffff1673ffffffffffffffffffffffffffffffffffffffff163373ffffffffffffffffffffffffffffffffffffffff16146112e4576040517f08c379a00000000000000000000000000000000000000000000000000000000081526004016112db90612bef565b60405180910390fd5b60008060038111156112f9576112f8612502565b5b600060149054906101000a900460ff16600381111561131b5761131a612502565b5b1461135b576040517f08c379a000000000000000000000000000000000000000000000000000000000815260040161135290612800565b60405180910390fd5b6004600081548092919061136e90612a72565b91905055506040518060600160405280600454815260200183815260200160008152506001600060045481526020019081526020016000206000820151816000015560208201518160010190816113c59190612eb9565b50604082015181600201559050506004547fe83b2a43e7e82d975c8a0a6d2f045153c869e111136a34d1889ab7b598e396a3836040516114059190612f8b565b60405180910390a25050565b600060149054906101000a900460ff1681565b60036020528060005260406000206000915090508060000154908060010160009054906101000a900460ff16908060020154905083565b600060606000600380600381111561147657611475612502565b5b600060149054906101000a900460ff16600381111561149857611497612502565b5b146114d8576040517f08c379a00000000000000000000000000000000000000000000000000000000081526004016114cf90612800565b60405180910390fd5b60006004541161151d576040517f08c379a000000000000000000000000000000000000000000000000000000000815260040161151490612ff9565b60405180910390fd5b600060019050600060016000600181526020019081526020016000206002015490506000600290505b600454811161159d57816001600083815260200190815260200160002060020154111561158a57600160008281526020019081526020016000206002015491508092505b808061159590612a72565b915050611546565b508160016000848152602001908152602001600020600101828180546115c290612ae9565b80601f01602080910402602001604051908101604052809291908181526020018280546115ee90612ae9565b801561163b5780601f106116105761010080835404028352916020019161163b565b820191906000526020600020905b81548152906001019060200180831161161e57829003601f168201915b50505050509150955095509550505050909192565b6000806000806000600454600554600654600754600060149054906101000a900460ff16945094509450945094509091929394565b60045481565b60026020528060005260406000206000915054906101000a900460ff1681565b60008054906101000a900473ffffffffffffffffffffffffffffffffffffffff1673ffffffffffffffffffffffffffffffffffffffff163373ffffffffffffffffffffffffffffffffffffffff1614611739576040517f08c379a000000000000000000000000000000000000000000000000000000000815260040161173090612bef565b60405180910390fd5b60038081111561174c5761174b612502565b5b600060149054906101000a900460ff16600381111561176e5761176d612502565b5b036117ae576040517f08c379a00000000000000000000000000000000000000000000000000000000081526004016117a590613065565b60405180910390fd5b600060038111156117c2576117c1612502565b5b600060149054906101000a900460ff1660038111156117e4576117e3612502565b5b036118a35760006004541161182e576040517f08c379a0000000000000000000000000000000000000000000000000000000008152600401611825906130f7565b60405180910390fd5b600060055411611873576040517f08c379a000000000000000000000000000000000000000000000000000000000815260040161186a90613189565b60405180910390fd5b6001600060146101000a81548160ff0219169083600381111561189957611898612502565b5b0217905550611977565b600160038111156118b7576118b6612502565b5b600060149054906101000a900460ff1660038111156118d9576118d8612502565b5b0361190e576002600060146101000a81548160ff0219169083600381111561190457611903612502565b5b0217905550611976565b6002600381111561192257611921612502565b5b600060149054906101000a900460ff16600381111561194457611943612502565b5b03611975576003600060146101000a81548160ff0219169083600381111561196f5761196e612502565b5b02179055505b5b5b7f273467821f33675618854603ef917ebcec8a1a39f95c43d5564ed1aefab870b3600060149054906101000a900460ff166040516119b59190612579565b60405180910390a1565b60008060001b600360008473ffffffffffffffffffffffffffffffffffffffff1673ffffffffffffffffffffffffffffffffffffffff1681526020019081526020016000206000015414159050919050565b60008054906101000a900473ffffffffffffffffffffffffffffffffffffffff1673ffffffffffffffffffffffffffffffffffffffff163373ffffffffffffffffffffffffffffffffffffffff1614611a9f576040517f08c379a0000000000000000000000000000000000000000000000000000000008152600401611a9690612bef565b60405180910390fd5b600380811115611ab257611ab1612502565b5b600060149054906101000a900460ff166003811115611ad457611ad3612502565b5b14611b14576040517f08c379a0000000000000000000000000000000000000000000000000000000008152600401611b0b9061321b565b60405180910390fd5b600060048190555060006005819055506000600681905550600060078190555060008060146101000a81548160ff02191690836003811115611b5957611b58612502565b5b02179055507f273467821f33675618854603ef917ebcec8a1a39f95c43d5564ed1aefab870b3600060149054906101000a900460ff16604051611b9c9190612579565b60405180910390a1565b6000600260008373ffffffffffffffffffffffffffffffffffffffff1673ffffffffffffffffffffffffffffffffffffffff16815260200190815260200160002060009054906101000a900460ff169050919050565b60008054906101000a900473ffffffffffffffffffffffffffffffffffffffff1673ffffffffffffffffffffffffffffffffffffffff163373ffffffffffffffffffffffffffffffffffffffff1614611c8a576040517f08c379a0000000000000000000000000000000000000000000000000000000008152600401611c8190612bef565b60405180910390fd5b6000806003811115611c9f57611c9e612502565b5b600060149054906101000a900460ff166003811115611cc157611cc0612502565b5b14611d01576040517f08c379a0000000000000000000000000000000000000000000000000000000008152600401611cf890612800565b60405180910390fd5b60005b8251811015611e735760026000848381518110611d2457611d23612b4e565b5b602002602001015173ffffffffffffffffffffffffffffffffffffffff1673ffffffffffffffffffffffffffffffffffffffff16815260200190815260200160002060009054906101000a900460ff16611e6057600160026000858481518110611d9157611d90612b4e565b5b602002602001015173ffffffffffffffffffffffffffffffffffffffff1673ffffffffffffffffffffffffffffffffffffffff16815260200190815260200160002060006101000a81548160ff02191690831515021790555060056000815480929190611dfd90612a72565b9190505550828181518110611e1557611e14612b4e565b5b602002602001015173ffffffffffffffffffffffffffffffffffffffff167fb6be2187d059cc2a55fe29e0e503b566e1e0f8c8780096e185429350acffd3dd60405160405180910390a25b8080611e6b90612a72565b915050611d04565b505050565b60075481565b60008054906101000a900473ffffffffffffffffffffffffffffffffffffffff1681565b60405180606001604052806000815260200160608152602001600081525090565b6000604051905090565b600080fd5b600080fd5b600073ffffffffffffffffffffffffffffffffffffffff82169050919050565b6000611f0282611ed7565b9050919050565b611f1281611ef7565b8114611f1d57600080fd5b50565b600081359050611f2f81611f09565b92915050565b600060208284031215611f4b57611f4a611ecd565b5b6000611f5984828501611f20565b91505092915050565b60008115159050919050565b611f7781611f62565b82525050565b6000602082019050611f926000830184611f6e565b92915050565b6000819050919050565b611fab81611f98565b82525050565b6000819050919050565b611fc481611fb1565b82525050565b6000606082019050611fdf6000830186611fa2565b611fec6020830185611f6e565b611ff96040830184611fbb565b949350505050565b61200a81611fb1565b811461201557600080fd5b50565b60008135905061202781612001565b92915050565b6000806040838503121561204457612043611ecd565b5b600061205285828601612018565b925050602061206385828601612018565b9150509250929050565b600081519050919050565b600082825260208201905092915050565b6000819050602082019050919050565b6120a281611fb1565b82525050565b600081519050919050565b600082825260208201905092915050565b60005b838110156120e25780820151818401526020810190506120c7565b60008484015250505050565b6000601f19601f8301169050919050565b600061210a826120a8565b61211481856120b3565b93506121248185602086016120c4565b61212d816120ee565b840191505092915050565b60006060830160008301516121506000860182612099565b506020830151848203602086015261216882826120ff565b915050604083015161217d6040860182612099565b508091505092915050565b60006121948383612138565b905092915050565b6000602082019050919050565b60006121b48261206d565b6121be8185612078565b9350836020820285016121d085612089565b8060005b8581101561220c57848403895281516121ed8582612188565b94506121f88361219c565b925060208a019950506001810190506121d4565b50829750879550505050505092915050565b6000602082019050818103600083015261223881846121a9565b905092915050565b60006020828403121561225657612255611ecd565b5b600061226484828501612018565b91505092915050565b600082825260208201905092915050565b6000612289826120a8565b612293818561226d565b93506122a38185602086016120c4565b6122ac816120ee565b840191505092915050565b60006060820190506122cc6000830186611fbb565b81810360208301526122de818561227e565b90506122ed6040830184611fbb565b949350505050565b600060208201905061230a6000830184611fa2565b92915050565b61231981611f98565b811461232457600080fd5b50565b60008135905061233681612310565b92915050565b60006020828403121561235257612351611ecd565b5b600061236084828501612327565b91505092915050565b600060208201905061237e6000830184611fbb565b92915050565b600080fd5b600080fd5b7f4e487b7100000000000000000000000000000000000000000000000000000000600052604160045260246000fd5b6123c6826120ee565b810181811067ffffffffffffffff821117156123e5576123e461238e565b5b80604052505050565b60006123f8611ec3565b905061240482826123bd565b919050565b600067ffffffffffffffff8211156124245761242361238e565b5b61242d826120ee565b9050602081019050919050565b82818337600083830152505050565b600061245c61245784612409565b6123ee565b90508281526020810184848401111561247857612477612389565b5b61248384828561243a565b509392505050565b600082601f8301126124a05761249f612384565b5b81356124b0848260208601612449565b91505092915050565b6000602082840312156124cf576124ce611ecd565b5b600082013567ffffffffffffffff8111156124ed576124ec611ed2565b5b6124f98482850161248b565b91505092915050565b7f4e487b7100000000000000000000000000000000000000000000000000000000600052602160045260246000fd5b6004811061254257612541612502565b5b50565b600081905061255382612531565b919050565b600061256382612545565b9050919050565b61257381612558565b82525050565b600060208201905061258e600083018461256a565b92915050565b600060a0820190506125a96000830188611fbb565b6125b66020830187611fbb565b6125c36040830186611fbb565b6125d06060830185611fbb565b6125dd608083018461256a565b9695505050505050565b600067ffffffffffffffff8211156126025761260161238e565b5b602082029050602081019050919050565b600080fd5b600061262b612626846125e7565b6123ee565b9050808382526020820190506020840283018581111561264e5761264d612613565b5b835b8181101561267757806126638882611f20565b845260208401935050602081019050612650565b5050509392505050565b600082601f83011261269657612695612384565b5b81356126a6848260208601612618565b91505092915050565b6000602082840312156126c5576126c4611ecd565b5b600082013567ffffffffffffffff8111156126e3576126e2611ed2565b5b6126ef84828501612681565b91505092915050565b61270181611ef7565b82525050565b600060208201905061271c60008301846126f8565b92915050565b7f596f7520617265206e6f74207265676973746572656420746f20766f74650000600082015250565b6000612758601e8361226d565b915061276382612722565b602082019050919050565b600060208201905081810360008301526127878161274b565b9050919050565b7f46756e6374696f6e2063616e6e6f742062652063616c6c65642061742074686960008201527f7320737461676500000000000000000000000000000000000000000000000000602082015250565b60006127ea60278361226d565b91506127f58261278e565b604082019050919050565b60006020820190508181036000830152612819816127dd565b9050919050565b7f596f7520686176656e277420636f6d6d6974746564206120766f746500000000600082015250565b6000612856601c8361226d565b915061286182612820565b602082019050919050565b6000602082019050818103600083015261288581612849565b9050919050565b7f596f75206861766520616c72656164792072657665616c656420796f7572207660008201527f6f74650000000000000000000000000000000000000000000000000000000000602082015250565b60006128e860238361226d565b91506128f38261288c565b604082019050919050565b60006020820190508181036000830152612917816128db565b9050919050565b7f496e76616c69642063616e646964617465204944000000000000000000000000600082015250565b600061295460148361226d565b915061295f8261291e565b602082019050919050565b6000602082019050818103600083015261298381612947565b9050919050565b6000819050919050565b6129a56129a082611fb1565b61298a565b82525050565b60006129b78285612994565b6020820191506129c78284612994565b6020820191508190509392505050565b7f496e76616c69642072657665616c202d2068617368206d69736d617463680000600082015250565b6000612a0d601e8361226d565b9150612a18826129d7565b602082019050919050565b60006020820190508181036000830152612a3c81612a00565b9050919050565b7f4e487b7100000000000000000000000000000000000000000000000000000000600052601160045260246000fd5b6000612a7d82611fb1565b91507fffffffffffffffffffffffffffffffffffffffffffffffffffffffffffffffff8203612aaf57612aae612a43565b5b600182019050919050565b7f4e487b7100000000000000000000000000000000000000000000000000000000600052602260045260246000fd5b60006002820490506001821680612b0157607f821691505b602082108103612b1457612b13612aba565b5b50919050565b6000612b2582611fb1565b9150612b3083611fb1565b9250828203905081811115612b4857612b47612a43565b5b92915050565b7f4e487b7100000000000000000000000000000000000000000000000000000000600052603260045260246000fd5b7f4f6e6c792061646d696e2063616e2063616c6c20746869732066756e6374696f60008201527f6e00000000000000000000000000000000000000000000000000000000000000602082015250565b6000612bd960218361226d565b9150612be482612b7d565b604082019050919050565b60006020820190508181036000830152612c0881612bcc565b9050919050565b7f566f74657220616c726561647920726567697374657265640000000000000000600082015250565b6000612c4560188361226d565b9150612c5082612c0f565b602082019050919050565b60006020820190508181036000830152612c7481612c38565b9050919050565b7f596f75206861766520616c726561647920636f6d6d697474656420796f75722060008201527f766f746500000000000000000000000000000000000000000000000000000000602082015250565b6000612cd760248361226d565b9150612ce282612c7b565b604082019050919050565b60006020820190508181036000830152612d0681612cca565b9050919050565b60008190508160005260206000209050919050565b60006020601f8301049050919050565b600082821b905092915050565b600060088302612d6f7fffffffffffffffffffffffffffffffffffffffffffffffffffffffffffffffff82612d32565b612d798683612d32565b95508019841693508086168417925050509392505050565b6000819050919050565b6000612db6612db1612dac84611fb1565b612d91565b611fb1565b9050919050565b6000819050919050565b612dd083612d9b565b612de4612ddc82612dbd565b848454612d3f565b825550505050565b600090565b612df9612dec565b612e04818484612dc7565b505050565b5b81811015612e2857612e1d600082612df1565b600181019050612e0a565b5050565b601f821115612e6d57612e3e81612d0d565b612e4784612d22565b81016020851015612e56578190505b612e6a612e6285612d22565b830182612e09565b50505b505050565b600082821c905092915050565b6000612e9060001984600802612e72565b1980831691505092915050565b6000612ea98383612e7f565b9150826002028217905092915050565b612ec2826120a8565b67ffffffffffffffff811115612edb57612eda61238e565b5b612ee58254612ae9565b612ef0828285612e2c565b600060209050601f831160018114612f235760008415612f11578287015190505b612f1b8582612e9d565b865550612f83565b601f198416612f3186612d0d565b60005b82811015612f5957848901518255600182019150602085019450602081019050612f34565b86831015612f765784890151612f72601f891682612e7f565b8355505b6001600288020188555050505b505050505050565b60006020820190508181036000830152612fa5818461227e565b905092915050565b7f4e6f2063616e6469646174657320617661696c61626c65000000000000000000600082015250565b6000612fe360178361226d565b9150612fee82612fad565b602082019050919050565b6000602082019050818103600083015261301281612fd6565b9050919050565b7f456c656374696f6e20697320616c72656164792066696e697368656400000000600082015250565b600061304f601c8361226d565b915061305a82613019565b602082019050919050565b6000602082019050818103600083015261307e81613042565b9050919050565b7f4174206c65617374206f6e652063616e646964617465206d757374206265206160008201527f6464656400000000000000000000000000000000000000000000000000000000602082015250565b60006130e160248361226d565b91506130ec82613085565b604082019050919050565b60006020820190508181036000830152613110816130d4565b9050919050565b7f4174206c65617374206f6e6520766f746572206d75737420626520726567697360008201527f7465726564000000000000000000000000000000000000000000000000000000602082015250565b600061317360258361226d565b915061317e82613117565b604082019050919050565b600060208201905081810360008301526131a281613166565b9050919050565b7f43616e206f6e6c7920726573657420616674657220656c656374696f6e20697360008201527f2066696e69736865640000000000000000000000000000000000000000000000602082015250565b600061320560298361226d565b9150613210826131a9565b604082019050919050565b60006020820190508181036000830152613234816131f8565b905091905056fea26469706673582212208402db67edd8ffdce9a90ef54f24e366cc0b679b6fa0147c0bea43bc3a58d2ad64736f6c63430008130033","opcodes":"PUSH1 0x80 PUSH1 0x40 MSTORE CALLVALUE DUP1 ISZERO PUSH3 0x11 JUMPI PUSH1 0x0 DUP1 REVERT JUMPDEST POP CALLER PUSH1 0x0 DUP1 PUSH2 0x100 EXP DUP2 SLOAD DUP2 PUSH20 0xFFFFFFFFFFFFFFFFFFFFFFFFFFFFFFFFFFFFFFFF MUL NOT AND SWAP1 DUP4 PUSH20 0xFFFFFFFFFFFFFFFFFFFFFFFFFFFFFFFFFFFFFFFF AND MUL OR SWAP1 SSTORE POP PUSH1 0x0 DUP1 PUSH1 0x14 PUSH2 0x100 EXP DUP2 SLOAD DUP2 PUSH1 0xFF MUL NOT AND SWAP1 DUP4 PUSH1 0x3 DUP2 GT ISZERO PUSH3 0x7A JUMPI PUSH3 0x79 PUSH3 0x85 JUMP JUMPDEST JUMPDEST MUL OR SWAP1 SSTORE POP PUSH3 0xB4 JUMP JUMPDEST PUSH32 0x4E487B7100000000000000000000000000000000000000000000000000000000 PUSH1 0x0 MSTORE PUSH1 0x21 PUSH1 0x4 MSTORE PUSH1 0x24 PUSH1 0x0 REVERT JUMPDEST PUSH2 0x3271 DUP1 PUSH3 0xC4 PUSH1 0x0 CODECOPY PUSH1 0x0 RETURN INVALID PUSH1 0x80 PUSH1 0x40 MSTORE CALLVALUE DUP1 ISZERO PUSH2 0x10 JUMPI PUSH1 0x0 DUP1 REVERT JUMPDEST POP PUSH1 0x4 CALLDATASIZE LT PUSH2 0x173 JUMPI PUSH1 0x0 CALLDATALOAD PUSH1 0xE0 SHR DUP1 PUSH4 0x5BF5D54C GT PUSH2 0xDE JUMPI DUP1 PUSH4 0xC33F48FD GT PUSH2 0x97 JUMPI DUP1 PUSH4 0xEB2119DB GT PUSH2 0x71 JUMPI DUP1 PUSH4 0xEB2119DB EQ PUSH2 0x45C JUMPI DUP1 PUSH4 0xF225C1F8 EQ PUSH2 0x48C JUMPI DUP1 PUSH4 0xF3738569 EQ PUSH2 0x4A8 JUMPI DUP1 PUSH4 0xF851A440 EQ PUSH2 0x4C6 JUMPI PUSH2 0x173 JUMP JUMPDEST DUP1 PUSH4 0xC33F48FD EQ PUSH2 0x418 JUMPI DUP1 PUSH4 0xD5BAE5B6 EQ PUSH2 0x422 JUMPI DUP1 PUSH4 0xE8F30523 EQ PUSH2 0x452 JUMPI PUSH2 0x173 JUMP JUMPDEST DUP1 PUSH4 0x5BF5D54C EQ PUSH2 0x338 JUMPI DUP1 PUSH4 0x7B43A8E6 EQ PUSH2 0x356 JUMPI DUP1 PUSH4 0x8E7EA5B2 EQ PUSH2 0x388 JUMPI DUP1 PUSH4 0x906AD2A9 EQ PUSH2 0x3A8 JUMPI DUP1 PUSH4 0xA9A981A3 EQ PUSH2 0x3CA JUMPI DUP1 PUSH4 0xA9FF6DF1 EQ PUSH2 0x3E8 JUMPI PUSH2 0x173 JUMP JUMPDEST DUP1 PUSH4 0x369FFDF9 GT PUSH2 0x130 JUMPI DUP1 PUSH4 0x369FFDF9 EQ PUSH2 0x278 JUMPI DUP1 PUSH4 0x38DB6DD3 EQ PUSH2 0x2A8 JUMPI DUP1 PUSH4 0x3E858923 EQ PUSH2 0x2C4 JUMPI DUP1 PUSH4 0x42169E48 EQ PUSH2 0x2E0 JUMPI DUP1 PUSH4 0x44D6EE2B EQ PUSH2 0x2FE JUMPI DUP1 PUSH4 0x462E91EC EQ PUSH2 0x31C JUMPI PUSH2 0x173 JUMP JUMPDEST DUP1 PUSH4 0x35FBE11 EQ PUSH2 0x178 JUMPI DUP1 PUSH4 0xD5CA930 EQ PUSH2 0x1A8 JUMPI DUP1 PUSH4 0x27846C8D EQ PUSH2 0x1DA JUMPI DUP1 PUSH4 0x2E6997FE EQ PUSH2 0x1F6 JUMPI DUP1 PUSH4 0x3477EE2E EQ PUSH2 0x214 JUMPI DUP1 PUSH4 0x35B8E820 EQ PUSH2 0x246 JUMPI JUMPDEST PUSH1 0x0 DUP1 REVERT JUMPDEST PUSH2 0x192 PUSH1 0x4 DUP1 CALLDATASIZE SUB DUP2 ADD SWAP1 PUSH2 0x18D SWAP2 SWAP1 PUSH2 0x1F35 JUMP JUMPDEST PUSH2 0x4E4 JUMP JUMPDEST PUSH1 0x40 MLOAD PUSH2 0x19F SWAP2 SWAP1 PUSH2 0x1F7D JUMP JUMPDEST PUSH1 0x40 MLOAD DUP1 SWAP2 SUB SWAP1 RETURN JUMPDEST PUSH2 0x1C2 PUSH1 0x4 DUP1 CALLDATASIZE SUB DUP2 ADD SWAP1 PUSH2 0x1BD SWAP2 SWAP1 PUSH2 0x1F35 JUMP JUMPDEST PUSH2 0x53D JUMP JUMPDEST PUSH1 0x40 MLOAD PUSH2 0x1D1 SWAP4 SWAP3 SWAP2 SWAP1 PUSH2 0x1FCA JUMP JUMPDEST PUSH1 0x40 MLOAD DUP1 SWAP2 SUB SWAP1 RETURN JUMPDEST PUSH2 0x1F4 PUSH1 0x4 DUP1 CALLDATASIZE SUB DUP2 ADD SWAP1 PUSH2 0x1EF SWAP2 SWAP1 PUSH2 0x202D JUMP JUMPDEST PUSH2 0x5DB JUMP JUMPDEST STOP JUMPDEST PUSH2 0x1FE PUSH2 0xA31 JUMP JUMPDEST PUSH1 0x40 MLOAD PUSH2 0x20B SWAP2 SWAP1 PUSH2 0x221E JUMP JUMPDEST PUSH1 0x40 MLOAD DUP1 SWAP2 SUB SWAP1 RETURN JUMPDEST PUSH2 0x22E PUSH1 0x4 DUP1 CALLDATASIZE SUB DUP2 ADD SWAP1 PUSH2 0x229 SWAP2 SWAP1 PUSH2 0x2240 JUMP JUMPDEST PUSH2 0xBA6 JUMP JUMPDEST PUSH1 0x40 MLOAD PUSH2 0x23D SWAP4 SWAP3 SWAP2 SWAP1 PUSH2 0x22B7 JUMP JUMPDEST PUSH1 0x40 MLOAD DUP1 SWAP2 SUB SWAP1 RETURN JUMPDEST PUSH2 0x260 PUSH1 0x4 DUP1 CALLDATASIZE SUB DUP2 ADD SWAP1 PUSH2 0x25B SWAP2 SWAP1 PUSH2 0x2240 JUMP JUMPDEST PUSH2 0xC58 JUMP JUMPDEST PUSH1 0x40 MLOAD PUSH2 0x26F SWAP4 SWAP3 SWAP2 SWAP1 PUSH2 0x22B7 JUMP JUMPDEST PUSH1 0x40 MLOAD DUP1 SWAP2 SUB SWAP1 RETURN JUMPDEST PUSH2 0x292 PUSH1 0x4 DUP1 CALLDATASIZE SUB DUP2 ADD SWAP1 PUSH2 0x28D SWAP2 SWAP1 PUSH2 0x202D JUMP JUMPDEST PUSH2 0xD93 JUMP JUMPDEST PUSH1 0x40 MLOAD PUSH2 0x29F SWAP2 SWAP1 PUSH2 0x22F5 JUMP JUMPDEST PUSH1 0x40 MLOAD DUP1 SWAP2 SUB SWAP1 RETURN JUMPDEST PUSH2 0x2C2 PUSH1 0x4 DUP1 CALLDATASIZE SUB DUP2 ADD SWAP1 PUSH2 0x2BD SWAP2 SWAP1 PUSH2 0x1F35 JUMP JUMPDEST PUSH2 0xDC6 JUMP JUMPDEST STOP JUMPDEST PUSH2 0x2DE PUSH1 0x4 DUP1 CALLDATASIZE SUB DUP2 ADD SWAP1 PUSH2 0x2D9 SWAP2 SWAP1 PUSH2 0x233C JUMP JUMPDEST PUSH2 0x100F JUMP JUMPDEST STOP JUMPDEST PUSH2 0x2E8 PUSH2 0x124A JUMP JUMPDEST PUSH1 0x40 MLOAD PUSH2 0x2F5 SWAP2 SWAP1 PUSH2 0x2369 JUMP JUMPDEST PUSH1 0x40 MLOAD DUP1 SWAP2 SUB SWAP1 RETURN JUMPDEST PUSH2 0x306 PUSH2 0x1250 JUMP JUMPDEST PUSH1 0x40 MLOAD PUSH2 0x313 SWAP2 SWAP1 PUSH2 0x2369 JUMP JUMPDEST PUSH1 0x40 MLOAD DUP1 SWAP2 SUB SWAP1 RETURN JUMPDEST PUSH2 0x336 PUSH1 0x4 DUP1 CALLDATASIZE SUB DUP2 ADD SWAP1 PUSH2 0x331 SWAP2 SWAP1 PUSH2 0x24B9 JUMP JUMPDEST PUSH2 0x1256 JUMP JUMPDEST STOP JUMPDEST PUSH2 0x340 PUSH2 0x1411 JUMP JUMPDEST PUSH1 0x40 MLOAD PUSH2 0x34D SWAP2 SWAP1 PUSH2 0x2579 JUMP JUMPDEST PUSH1 0x40 MLOAD DUP1 SWAP2 SUB SWAP1 RETURN JUMPDEST PUSH2 0x370 PUSH1 0x4 DUP1 CALLDATASIZE SUB DUP2 ADD SWAP1 PUSH2 0x36B SWAP2 SWAP1 PUSH2 0x1F35 JUMP JUMPDEST PUSH2 0x1424 JUMP JUMPDEST PUSH1 0x40 MLOAD PUSH2 0x37F SWAP4 SWAP3 SWAP2 SWAP1 PUSH2 0x1FCA JUMP JUMPDEST PUSH1 0x40 MLOAD DUP1 SWAP2 SUB SWAP1 RETURN JUMPDEST PUSH2 0x390 PUSH2 0x145B JUMP JUMPDEST PUSH1 0x40 MLOAD PUSH2 0x39F SWAP4 SWAP3 SWAP2 SWAP1 PUSH2 0x22B7 JUMP JUMPDEST PUSH1 0x40 MLOAD DUP1 SWAP2 SUB SWAP1 RETURN JUMPDEST PUSH2 0x3B0 PUSH2 0x1650 JUMP JUMPDEST PUSH1 0x40 MLOAD PUSH2 0x3C1 SWAP6 SWAP5 SWAP4 SWAP3 SWAP2 SWAP1 PUSH2 0x2594 JUMP JUMPDEST PUSH1 0x40 MLOAD DUP1 SWAP2 SUB SWAP1 RETURN JUMPDEST PUSH2 0x3D2 PUSH2 0x1685 JUMP JUMPDEST PUSH1 0x40 MLOAD PUSH2 0x3DF SWAP2 SWAP1 PUSH2 0x2369 JUMP JUMPDEST PUSH1 0x40 MLOAD DUP1 SWAP2 SUB SWAP1 RETURN JUMPDEST PUSH2 0x402 PUSH1 0x4 DUP1 CALLDATASIZE SUB DUP2 ADD SWAP1 PUSH2 0x3FD SWAP2 SWAP1 PUSH2 0x1F35 JUMP JUMPDEST PUSH2 0x168B JUMP JUMPDEST PUSH1 0x40 MLOAD PUSH2 0x40F SWAP2 SWAP1 PUSH2 0x1F7D JUMP JUMPDEST PUSH1 0x40 MLOAD DUP1 SWAP2 SUB SWAP1 RETURN JUMPDEST PUSH2 0x420 PUSH2 0x16AB JUMP JUMPDEST STOP JUMPDEST PUSH2 0x43C PUSH1 0x4 DUP1 CALLDATASIZE SUB DUP2 ADD SWAP1 PUSH2 0x437 SWAP2 SWAP1 PUSH2 0x1F35 JUMP JUMPDEST PUSH2 0x19BF JUMP JUMPDEST PUSH1 0x40 MLOAD PUSH2 0x449 SWAP2 SWAP1 PUSH2 0x1F7D JUMP JUMPDEST PUSH1 0x40 MLOAD DUP1 SWAP2 SUB SWAP1 RETURN JUMPDEST PUSH2 0x45A PUSH2 0x1A11 JUMP JUMPDEST STOP JUMPDEST PUSH2 0x476 PUSH1 0x4 DUP1 CALLDATASIZE SUB DUP2 ADD SWAP1 PUSH2 0x471 SWAP2 SWAP1 PUSH2 0x1F35 JUMP JUMPDEST PUSH2 0x1BA6 JUMP JUMPDEST PUSH1 0x40 MLOAD PUSH2 0x483 SWAP2 SWAP1 PUSH2 0x1F7D JUMP JUMPDEST PUSH1 0x40 MLOAD DUP1 SWAP2 SUB SWAP1 RETURN JUMPDEST PUSH2 0x4A6 PUSH1 0x4 DUP1 CALLDATASIZE SUB DUP2 ADD SWAP1 PUSH2 0x4A1 SWAP2 SWAP1 PUSH2 0x26AF JUMP JUMPDEST PUSH2 0x1BFC JUMP JUMPDEST STOP JUMPDEST PUSH2 0x4B0 PUSH2 0x1E78 JUMP JUMPDEST PUSH1 0x40 MLOAD PUSH2 0x4BD SWAP2 SWAP1 PUSH2 0x2369 JUMP JUMPDEST PUSH1 0x40 MLOAD DUP1 SWAP2 SUB SWAP1 RETURN JUMPDEST PUSH2 0x4CE PUSH2 0x1E7E JUMP JUMPDEST PUSH1 0x40 MLOAD PUSH2 0x4DB SWAP2 SWAP1 PUSH2 0x2707 JUMP JUMPDEST PUSH1 0x40 MLOAD DUP1 SWAP2 SUB SWAP1 RETURN JUMPDEST PUSH1 0x0 PUSH1 0x3 PUSH1 0x0 DUP4 PUSH20 0xFFFFFFFFFFFFFFFFFFFFFFFFFFFFFFFFFFFFFFFF AND PUSH20 0xFFFFFFFFFFFFFFFFFFFFFFFFFFFFFFFFFFFFFFFF AND DUP2 MSTORE PUSH1 0x20 ADD SWAP1 DUP2 MSTORE PUSH1 0x20 ADD PUSH1 0x0 KECCAK256 PUSH1 0x1 ADD PUSH1 0x0 SWAP1 SLOAD SWAP1 PUSH2 0x100 EXP SWAP1 DIV PUSH1 0xFF AND SWAP1 POP SWAP2 SWAP1 POP JUMP JUMPDEST PUSH1 0x0 DUP1 PUSH1 0x0 DUP1 PUSH1 0x3 PUSH1 0x0 DUP7 PUSH20 0xFFFFFFFFFFFFFFFFFFFFFFFFFFFFFFFFFFFFFFFF AND PUSH20 0xFFFFFFFFFFFFFFFFFFFFFFFFFFFFFFFFFFFFFFFF AND DUP2 MSTORE PUSH1 0x20 ADD SWAP1 DUP2 MSTORE PUSH1 0x20 ADD PUSH1 0x0 KECCAK256 PUSH1 0x40 MLOAD DUP1 PUSH1 0x60 ADD PUSH1 0x40 MSTORE SWAP1 DUP2 PUSH1 0x0 DUP3 ADD SLOAD DUP2 MSTORE PUSH1 0x20 ADD PUSH1 0x1 DUP3 ADD PUSH1 0x0 SWAP1 SLOAD SWAP1 PUSH2 0x100 EXP SWAP1 DIV PUSH1 0xFF AND ISZERO ISZERO ISZERO ISZERO DUP2 MSTORE PUSH1 0x20 ADD PUSH1 0x2 DUP3 ADD SLOAD DUP2 MSTORE POP POP SWAP1 POP DUP1 PUSH1 0x0 ADD MLOAD DUP2 PUSH1 0x20 ADD MLOAD DUP3 PUSH1 0x40 ADD MLOAD SWAP4 POP SWAP4 POP SWAP4 POP POP SWAP2 SWAP4 SWAP1 SWAP3 POP JUMP JUMPDEST PUSH1 0x2 PUSH1 0x0 CALLER PUSH20 0xFFFFFFFFFFFFFFFFFFFFFFFFFFFFFFFFFFFFFFFF AND PUSH20 0xFFFFFFFFFFFFFFFFFFFFFFFFFFFFFFFFFFFFFFFF AND DUP2 MSTORE PUSH1 0x20 ADD SWAP1 DUP2 MSTORE PUSH1 0x20 ADD PUSH1 0x0 KECCAK256 PUSH1 0x0 SWAP1 SLOAD SWAP1 PUSH2 0x100 EXP SWAP1 DIV PUSH1 0xFF AND PUSH2 0x667 JUMPI PUSH1 0x40 MLOAD PUSH32 0x8C379A000000000000000000000000000000000000000000000000000000000 DUP2 MSTORE PUSH1 0x4 ADD PUSH2 0x65E SWAP1 PUSH2 0x276E JUMP JUMPDEST PUSH1 0x40 MLOAD DUP1 SWAP2 SUB SWAP1 REVERT JUMPDEST PUSH1 0x2 DUP1 PUSH1 0x3 DUP2 GT ISZERO PUSH2 0x67C JUMPI PUSH2 0x67B PUSH2 0x2502 JUMP JUMPDEST JUMPDEST PUSH1 0x0 PUSH1 0x14 SWAP1 SLOAD SWAP1 PUSH2 0x100 EXP SWAP1 DIV PUSH1 0xFF AND PUSH1 0x3 DUP2 GT ISZERO PUSH2 0x69E JUMPI PUSH2 0x69D PUSH2 0x2502 JUMP JUMPDEST JUMPDEST EQ PUSH2 0x6DE JUMPI PUSH1 0x40 MLOAD PUSH32 0x8C379A000000000000000000000000000000000000000000000000000000000 DUP2 MSTORE PUSH1 0x4 ADD PUSH2 0x6D5 SWAP1 PUSH2 0x2800 JUMP JUMPDEST PUSH1 0x40 MLOAD DUP1 SWAP2 SUB SWAP1 REVERT JUMPDEST PUSH1 0x0 DUP1 SHL PUSH1 0x3 PUSH1 0x0 CALLER PUSH20 0xFFFFFFFFFFFFFFFFFFFFFFFFFFFFFFFFFFFFFFFF AND PUSH20 0xFFFFFFFFFFFFFFFFFFFFFFFFFFFFFFFFFFFFFFFF AND DUP2 MSTORE PUSH1 0x20 ADD SWAP1 DUP2 MSTORE PUSH1 0x20 ADD PUSH1 0x0 KECCAK256 PUSH1 0x0 ADD SLOAD SUB PUSH2 0x765 JUMPI PUSH1 0x40 MLOAD PUSH32 0x8C379A000000000000000000000000000000000000000000000000000000000 DUP2 MSTORE PUSH1 0x4 ADD PUSH2 0x75C SWAP1 PUSH2 0x286C JUMP JUMPDEST PUSH1 0x40 MLOAD DUP1 SWAP2 SUB SWAP1 REVERT JUMPDEST PUSH1 0x3 PUSH1 0x0 CALLER PUSH20 0xFFFFFFFFFFFFFFFFFFFFFFFFFFFFFFFFFFFFFFFF AND PUSH20 0xFFFFFFFFFFFFFFFFFFFFFFFFFFFFFFFFFFFFFFFF AND DUP2 MSTORE PUSH1 0x20 ADD SWAP1 DUP2 MSTORE PUSH1 0x20 ADD PUSH1 0x0 KECCAK256 PUSH1 0x1 ADD PUSH1 0x0 SWAP1 SLOAD SWAP1 PUSH2 0x100 EXP SWAP1 DIV PUSH1 0xFF AND ISZERO PUSH2 0x7F5 JUMPI PUSH1 0x40 MLOAD PUSH32 0x8C379A000000000000000000000000000000000000000000000000000000000 DUP2 MSTORE PUSH1 0x4 ADD PUSH2 0x7EC SWAP1 PUSH2 0x28FE JUMP JUMPDEST PUSH1 0x40 MLOAD DUP1 SWAP2 SUB SWAP1 REVERT JUMPDEST PUSH1 0x0 DUP4 GT DUP1 ISZERO PUSH2 0x807 JUMPI POP PUSH1 0x4 SLOAD DUP4 GT ISZERO JUMPDEST PUSH2 0x846 JUMPI PUSH1 0x40 MLOAD PUSH32 0x8C379A000000000000000000000000000000000000000000000000000000000 DUP2 MSTORE PUSH1 0x4 ADD PUSH2 0x83D SWAP1 PUSH2 0x296A JUMP JUMPDEST PUSH1 0x40 MLOAD DUP1 SWAP2 SUB SWAP1 REVERT JUMPDEST PUSH1 0x0 DUP4 DUP4 PUSH1 0x40 MLOAD PUSH1 0x20 ADD PUSH2 0x85B SWAP3 SWAP2 SWAP1 PUSH2 0x29AB JUMP JUMPDEST PUSH1 0x40 MLOAD PUSH1 0x20 DUP2 DUP4 SUB SUB DUP2 MSTORE SWAP1 PUSH1 0x40 MSTORE DUP1 MLOAD SWAP1 PUSH1 0x20 ADD KECCAK256 SWAP1 POP PUSH1 0x3 PUSH1 0x0 CALLER PUSH20 0xFFFFFFFFFFFFFFFFFFFFFFFFFFFFFFFFFFFFFFFF AND PUSH20 0xFFFFFFFFFFFFFFFFFFFFFFFFFFFFFFFFFFFFFFFF AND DUP2 MSTORE PUSH1 0x20 ADD SWAP1 DUP2 MSTORE PUSH1 0x20 ADD PUSH1 0x0 KECCAK256 PUSH1 0x0 ADD SLOAD DUP2 EQ PUSH2 0x8F7 JUMPI PUSH1 0x40 MLOAD PUSH32 0x8C379A000000000000000000000000000000000000000000000000000000000 DUP2 MSTORE PUSH1 0x4 ADD PUSH2 0x8EE SWAP1 PUSH2 0x2A23 JUMP JUMPDEST PUSH1 0x40 MLOAD DUP1 SWAP2 SUB SWAP1 REVERT JUMPDEST PUSH1 0x1 PUSH1 0x3 PUSH1 0x0 CALLER PUSH20 0xFFFFFFFFFFFFFFFFFFFFFFFFFFFFFFFFFFFFFFFF AND PUSH20 0xFFFFFFFFFFFFFFFFFFFFFFFFFFFFFFFFFFFFFFFF AND DUP2 MSTORE PUSH1 0x20 ADD SWAP1 DUP2 MSTORE PUSH1 0x20 ADD PUSH1 0x0 KECCAK256 PUSH1 0x1 ADD PUSH1 0x0 PUSH2 0x100 EXP DUP2 SLOAD DUP2 PUSH1 0xFF MUL NOT AND SWAP1 DUP4 ISZERO ISZERO MUL OR SWAP1 SSTORE POP DUP4 PUSH1 0x3 PUSH1 0x0 CALLER PUSH20 0xFFFFFFFFFFFFFFFFFFFFFFFFFFFFFFFFFFFFFFFF AND PUSH20 0xFFFFFFFFFFFFFFFFFFFFFFFFFFFFFFFFFFFFFFFF AND DUP2 MSTORE PUSH1 0x20 ADD SWAP1 DUP2 MSTORE PUSH1 0x20 ADD PUSH1 0x0 KECCAK256 PUSH1 0x2 ADD DUP2 SWAP1 SSTORE POP PUSH1 0x1 PUSH1 0x0 DUP6 DUP2 MSTORE PUSH1 0x20 ADD SWAP1 DUP2 MSTORE PUSH1 0x20 ADD PUSH1 0x0 KECCAK256 PUSH1 0x2 ADD PUSH1 0x0 DUP2 SLOAD DUP1 SWAP3 SWAP2 SWAP1 PUSH2 0x9C0 SWAP1 PUSH2 0x2A72 JUMP JUMPDEST SWAP2 SWAP1 POP SSTORE POP PUSH1 0x7 PUSH1 0x0 DUP2 SLOAD DUP1 SWAP3 SWAP2 SWAP1 PUSH2 0x9D8 SWAP1 PUSH2 0x2A72 JUMP JUMPDEST SWAP2 SWAP1 POP SSTORE POP CALLER PUSH20 0xFFFFFFFFFFFFFFFFFFFFFFFFFFFFFFFFFFFFFFFF AND PUSH32 0x522B45C661375ABB939DC17B4B600412C93AF64FCBE24859A73539D01BB4EEC8 DUP6 PUSH1 0x40 MLOAD PUSH2 0xA23 SWAP2 SWAP1 PUSH2 0x2369 JUMP JUMPDEST PUSH1 0x40 MLOAD DUP1 SWAP2 SUB SWAP1 LOG2 POP POP POP POP JUMP JUMPDEST PUSH1 0x60 PUSH1 0x0 PUSH1 0x4 SLOAD PUSH8 0xFFFFFFFFFFFFFFFF DUP2 GT ISZERO PUSH2 0xA51 JUMPI PUSH2 0xA50 PUSH2 0x238E JUMP JUMPDEST JUMPDEST PUSH1 0x40 MLOAD SWAP1 DUP1 DUP3 MSTORE DUP1 PUSH1 0x20 MUL PUSH1 0x20 ADD DUP3 ADD PUSH1 0x40 MSTORE DUP1 ISZERO PUSH2 0xA8A JUMPI DUP2 PUSH1 0x20 ADD JUMPDEST PUSH2 0xA77 PUSH2 0x1EA2 JUMP JUMPDEST DUP2 MSTORE PUSH1 0x20 ADD SWAP1 PUSH1 0x1 SWAP1 SUB SWAP1 DUP2 PUSH2 0xA6F JUMPI SWAP1 POP JUMPDEST POP SWAP1 POP PUSH1 0x0 PUSH1 0x1 SWAP1 POP JUMPDEST PUSH1 0x4 SLOAD DUP2 GT PUSH2 0xB9E JUMPI PUSH1 0x1 PUSH1 0x0 DUP3 DUP2 MSTORE PUSH1 0x20 ADD SWAP1 DUP2 MSTORE PUSH1 0x20 ADD PUSH1 0x0 KECCAK256 PUSH1 0x40 MLOAD DUP1 PUSH1 0x60 ADD PUSH1 0x40 MSTORE SWAP1 DUP2 PUSH1 0x0 DUP3 ADD SLOAD DUP2 MSTORE PUSH1 0x20 ADD PUSH1 0x1 DUP3 ADD DUP1 SLOAD PUSH2 0xAD5 SWAP1 PUSH2 0x2AE9 JUMP JUMPDEST DUP1 PUSH1 0x1F ADD PUSH1 0x20 DUP1 SWAP2 DIV MUL PUSH1 0x20 ADD PUSH1 0x40 MLOAD SWAP1 DUP2 ADD PUSH1 0x40 MSTORE DUP1 SWAP3 SWAP2 SWAP1 DUP2 DUP2 MSTORE PUSH1 0x20 ADD DUP3 DUP1 SLOAD PUSH2 0xB01 SWAP1 PUSH2 0x2AE9 JUMP JUMPDEST DUP1 ISZERO PUSH2 0xB4E JUMPI DUP1 PUSH1 0x1F LT PUSH2 0xB23 JUMPI PUSH2 0x100 DUP1 DUP4 SLOAD DIV MUL DUP4 MSTORE SWAP2 PUSH1 0x20 ADD SWAP2 PUSH2 0xB4E JUMP JUMPDEST DUP3 ADD SWAP2 SWAP1 PUSH1 0x0 MSTORE PUSH1 0x20 PUSH1 0x0 KECCAK256 SWAP1 JUMPDEST DUP2 SLOAD DUP2 MSTORE SWAP1 PUSH1 0x1 ADD SWAP1 PUSH1 0x20 ADD DUP1 DUP4 GT PUSH2 0xB31 JUMPI DUP3 SWAP1 SUB PUSH1 0x1F AND DUP3 ADD SWAP2 JUMPDEST POP POP POP POP POP DUP2 MSTORE PUSH1 0x20 ADD PUSH1 0x2 DUP3 ADD SLOAD DUP2 MSTORE POP POP DUP3 PUSH1 0x1 DUP4 PUSH2 0xB6F SWAP2 SWAP1 PUSH2 0x2B1A JUMP JUMPDEST DUP2 MLOAD DUP2 LT PUSH2 0xB80 JUMPI PUSH2 0xB7F PUSH2 0x2B4E JUMP JUMPDEST JUMPDEST PUSH1 0x20 MUL PUSH1 0x20 ADD ADD DUP2 SWAP1 MSTORE POP DUP1 DUP1 PUSH2 0xB96 SWAP1 PUSH2 0x2A72 JUMP JUMPDEST SWAP2 POP POP PUSH2 0xA94 JUMP JUMPDEST POP DUP1 SWAP2 POP POP SWAP1 JUMP JUMPDEST PUSH1 0x1 PUSH1 0x20 MSTORE DUP1 PUSH1 0x0 MSTORE PUSH1 0x40 PUSH1 0x0 KECCAK256 PUSH1 0x0 SWAP2 POP SWAP1 POP DUP1 PUSH1 0x0 ADD SLOAD SWAP1 DUP1 PUSH1 0x1 ADD DUP1 SLOAD PUSH2 0xBCF SWAP1 PUSH2 0x2AE9 JUMP JUMPDEST DUP1 PUSH1 0x1F ADD PUSH1 0x20 DUP1 SWAP2 DIV MUL PUSH1 0x20 ADD PUSH1 0x40 MLOAD SWAP1 DUP2 ADD PUSH1 0x40 MSTORE DUP1 SWAP3 SWAP2 SWAP1 DUP2 DUP2 MSTORE PUSH1 0x20 ADD DUP3 DUP1 SLOAD PUSH2 0xBFB SWAP1 PUSH2 0x2AE9 JUMP JUMPDEST DUP1 ISZERO PUSH2 0xC48 JUMPI DUP1 PUSH1 0x1F LT PUSH2 0xC1D JUMPI PUSH2 0x100 DUP1 DUP4 SLOAD DIV MUL DUP4 MSTORE SWAP2 PUSH1 0x20 ADD SWAP2 PUSH2 0xC48 JUMP JUMPDEST DUP3 ADD SWAP2 SWAP1 PUSH1 0x0 MSTORE PUSH1 0x20 PUSH1 0x0 KECCAK256 SWAP1 JUMPDEST DUP2 SLOAD DUP2 MSTORE SWAP1 PUSH1 0x1 ADD SWAP1 PUSH1 0x20 ADD DUP1 DUP4 GT PUSH2 0xC2B JUMPI DUP3 SWAP1 SUB PUSH1 0x1F AND DUP3 ADD SWAP2 JUMPDEST POP POP POP POP POP SWAP1 DUP1 PUSH1 0x2 ADD SLOAD SWAP1 POP DUP4 JUMP JUMPDEST PUSH1 0x0 PUSH1 0x60 PUSH1 0x0 DUP1 DUP5 GT DUP1 ISZERO PUSH2 0xC6F JUMPI POP PUSH1 0x4 SLOAD DUP5 GT ISZERO JUMPDEST PUSH2 0xCAE JUMPI PUSH1 0x40 MLOAD PUSH32 0x8C379A000000000000000000000000000000000000000000000000000000000 DUP2 MSTORE PUSH1 0x4 ADD PUSH2 0xCA5 SWAP1 PUSH2 0x296A JUMP JUMPDEST PUSH1 0x40 MLOAD DUP1 SWAP2 SUB SWAP1 REVERT JUMPDEST PUSH1 0x0 PUSH1 0x1 PUSH1 0x0 DUP7 DUP2 MSTORE PUSH1 0x20 ADD SWAP1 DUP2 MSTORE PUSH1 0x20 ADD PUSH1 0x0 KECCAK256 PUSH1 0x40 MLOAD DUP1 PUSH1 0x60 ADD PUSH1 0x40 MSTORE SWAP1 DUP2 PUSH1 0x0 DUP3 ADD SLOAD DUP2 MSTORE PUSH1 0x20 ADD PUSH1 0x1 DUP3 ADD DUP1 SLOAD PUSH2 0xCE8 SWAP1 PUSH2 0x2AE9 JUMP JUMPDEST DUP1 PUSH1 0x1F ADD PUSH1 0x20 DUP1 SWAP2 DIV MUL PUSH1 0x20 ADD PUSH1 0x40 MLOAD SWAP1 DUP2 ADD PUSH1 0x40 MSTORE DUP1 SWAP3 SWAP2 SWAP1 DUP2 DUP2 MSTORE PUSH1 0x20 ADD DUP3 DUP1 SLOAD PUSH2 0xD14 SWAP1 PUSH2 0x2AE9 JUMP JUMPDEST DUP1 ISZERO PUSH2 0xD61 JUMPI DUP1 PUSH1 0x1F LT PUSH2 0xD36 JUMPI PUSH2 0x100 DUP1 DUP4 SLOAD DIV MUL DUP4 MSTORE SWAP2 PUSH1 0x20 ADD SWAP2 PUSH2 0xD61 JUMP JUMPDEST DUP3 ADD SWAP2 SWAP1 PUSH1 0x0 MSTORE PUSH1 0x20 PUSH1 0x0 KECCAK256 SWAP1 JUMPDEST DUP2 SLOAD DUP2 MSTORE SWAP1 PUSH1 0x1 ADD SWAP1 PUSH1 0x20 ADD DUP1 DUP4 GT PUSH2 0xD44 JUMPI DUP3 SWAP1 SUB PUSH1 0x1F AND DUP3 ADD SWAP2 JUMPDEST POP POP POP POP POP DUP2 MSTORE PUSH1 0x20 ADD PUSH1 0x2 DUP3 ADD SLOAD DUP2 MSTORE POP POP SWAP1 POP DUP1 PUSH1 0x0 ADD MLOAD DUP2 PUSH1 0x20 ADD MLOAD DUP3 PUSH1 0x40 ADD MLOAD SWAP4 POP SWAP4 POP SWAP4 POP POP SWAP2 SWAP4 SWAP1 SWAP3 POP JUMP JUMPDEST PUSH1 0x0 DUP3 DUP3 PUSH1 0x40 MLOAD PUSH1 0x20 ADD PUSH2 0xDA8 SWAP3 SWAP2 SWAP1 PUSH2 0x29AB JUMP JUMPDEST PUSH1 0x40 MLOAD PUSH1 0x20 DUP2 DUP4 SUB SUB DUP2 MSTORE SWAP1 PUSH1 0x40 MSTORE DUP1 MLOAD SWAP1 PUSH1 0x20 ADD KECCAK256 SWAP1 POP SWAP3 SWAP2 POP POP JUMP JUMPDEST PUSH1 0x0 DUP1 SLOAD SWAP1 PUSH2 0x100 EXP SWAP1 DIV PUSH20 0xFFFFFFFFFFFFFFFFFFFFFFFFFFFFFFFFFFFFFFFF AND PUSH20 0xFFFFFFFFFFFFFFFFFFFFFFFFFFFFFFFFFFFFFFFF AND CALLER PUSH20 0xFFFFFFFFFFFFFFFFFFFFFFFFFFFFFFFFFFFFFFFF AND EQ PUSH2 0xE54 JUMPI PUSH1 0x40 MLOAD PUSH32 0x8C379A000000000000000000000000000000000000000000000000000000000 DUP2 MSTORE PUSH1 0x4 ADD PUSH2 0xE4B SWAP1 PUSH2 0x2BEF JUMP JUMPDEST PUSH1 0x40 MLOAD DUP1 SWAP2 SUB SWAP1 REVERT JUMPDEST PUSH1 0x0 DUP1 PUSH1 0x3 DUP2 GT ISZERO PUSH2 0xE69 JUMPI PUSH2 0xE68 PUSH2 0x2502 JUMP JUMPDEST JUMPDEST PUSH1 0x0 PUSH1 0x14 SWAP1 SLOAD SWAP1 PUSH2 0x100 EXP SWAP1 DIV PUSH1 0xFF AND PUSH1 0x3 DUP2 GT ISZERO PUSH2 0xE8B JUMPI PUSH2 0xE8A PUSH2 0x2502 JUMP JUMPDEST JUMPDEST EQ PUSH2 0xECB JUMPI PUSH1 0x40 MLOAD PUSH32 0x8C379A000000000000000000000000000000000000000000000000000000000 DUP2 MSTORE PUSH1 0x4 ADD PUSH2 0xEC2 SWAP1 PUSH2 0x2800 JUMP JUMPDEST PUSH1 0x40 MLOAD DUP1 SWAP2 SUB SWAP1 REVERT JUMPDEST PUSH1 0x2 PUSH1 0x0 DUP4 PUSH20 0xFFFFFFFFFFFFFFFFFFFFFFFFFFFFFFFFFFFFFFFF AND PUSH20 0xFFFFFFFFFFFFFFFFFFFFFFFFFFFFFFFFFFFFFFFF AND DUP2 MSTORE PUSH1 0x20 ADD SWAP1 DUP2 MSTORE PUSH1 0x20 ADD PUSH1 0x0 KECCAK256 PUSH1 0x0 SWAP1 SLOAD SWAP1 PUSH2 0x100 EXP SWAP1 DIV PUSH1 0xFF AND ISZERO PUSH2 0xF58 JUMPI PUSH1 0x40 MLOAD PUSH32 0x8C379A000000000000000000000000000000000000000000000000000000000 DUP2 MSTORE PUSH1 0x4 ADD PUSH2 0xF4F SWAP1 PUSH2 0x2C5B JUMP JUMPDEST PUSH1 0x40 MLOAD DUP1 SWAP2 SUB SWAP1 REVERT JUMPDEST PUSH1 0x1 PUSH1 0x2 PUSH1 0x0 DUP5 PUSH20 0xFFFFFFFFFFFFFFFFFFFFFFFFFFFFFFFFFFFFFFFF AND PUSH20 0xFFFFFFFFFFFFFFFFFFFFFFFFFFFFFFFFFFFFFFFF AND DUP2 MSTORE PUSH1 0x20 ADD SWAP1 DUP2 MSTORE PUSH1 0x20 ADD PUSH1 0x0 KECCAK256 PUSH1 0x0 PUSH2 0x100 EXP DUP2 SLOAD DUP2 PUSH1 0xFF MUL NOT AND SWAP1 DUP4 ISZERO ISZERO MUL OR SWAP1 SSTORE POP PUSH1 0x5 PUSH1 0x0 DUP2 SLOAD DUP1 SWAP3 SWAP2 SWAP1 PUSH2 0xFC3 SWAP1 PUSH2 0x2A72 JUMP JUMPDEST SWAP2 SWAP1 POP SSTORE POP DUP2 PUSH20 0xFFFFFFFFFFFFFFFFFFFFFFFFFFFFFFFFFFFFFFFF AND PUSH32 0xB6BE2187D059CC2A55FE29E0E503B566E1E0F8C8780096E185429350ACFFD3DD PUSH1 0x40 MLOAD PUSH1 0x40 MLOAD DUP1 SWAP2 SUB SWAP1 LOG2 POP POP JUMP JUMPDEST PUSH1 0x2 PUSH1 0x0 CALLER PUSH20 0xFFFFFFFFFFFFFFFFFFFFFFFFFFFFFFFFFFFFFFFF AND PUSH20 0xFFFFFFFFFFFFFFFFFFFFFFFFFFFFFFFFFFFFFFFF AND DUP2 MSTORE PUSH1 0x20 ADD SWAP1 DUP2 MSTORE PUSH1 0x20 ADD PUSH1 0x0 KECCAK256 PUSH1 0x0 SWAP1 SLOAD SWAP1 PUSH2 0x100 EXP SWAP1 DIV PUSH1 0xFF AND PUSH2 0x109B JUMPI PUSH1 0x40 MLOAD PUSH32 0x8C379A000000000000000000000000000000000000000000000000000000000 DUP2 MSTORE PUSH1 0x4 ADD PUSH2 0x1092 SWAP1 PUSH2 0x276E JUMP JUMPDEST PUSH1 0x40 MLOAD DUP1 SWAP2 SUB SWAP1 REVERT JUMPDEST PUSH1 0x1 DUP1 PUSH1 0x3 DUP2 GT ISZERO PUSH2 0x10B0 JUMPI PUSH2 0x10AF PUSH2 0x2502 JUMP JUMPDEST JUMPDEST PUSH1 0x0 PUSH1 0x14 SWAP1 SLOAD SWAP1 PUSH2 0x100 EXP SWAP1 DIV PUSH1 0xFF AND PUSH1 0x3 DUP2 GT ISZERO PUSH2 0x10D2 JUMPI PUSH2 0x10D1 PUSH2 0x2502 JUMP JUMPDEST JUMPDEST EQ PUSH2 0x1112 JUMPI PUSH1 0x40 MLOAD PUSH32 0x8C379A000000000000000000000000000000000000000000000000000000000 DUP2 MSTORE PUSH1 0x4 ADD PUSH2 0x1109 SWAP1 PUSH2 0x2800 JUMP JUMPDEST PUSH1 0x40 MLOAD DUP1 SWAP2 SUB SWAP1 REVERT JUMPDEST PUSH1 0x0 DUP1 SHL PUSH1 0x3 PUSH1 0x0 CALLER PUSH20 0xFFFFFFFFFFFFFFFFFFFFFFFFFFFFFFFFFFFFFFFF AND PUSH20 0xFFFFFFFFFFFFFFFFFFFFFFFFFFFFFFFFFFFFFFFF AND DUP2 MSTORE PUSH1 0x20 ADD SWAP1 DUP2 MSTORE PUSH1 0x20 ADD PUSH1 0x0 KECCAK256 PUSH1 0x0 ADD SLOAD EQ PUSH2 0x1199 JUMPI PUSH1 0x40 MLOAD PUSH32 0x8C379A000000000000000000000000000000000000000000000000000000000 DUP2 MSTORE PUSH1 0x4 ADD PUSH2 0x1190 SWAP1 PUSH2 0x2CED JUMP JUMPDEST PUSH1 0x40 MLOAD DUP1 SWAP2 SUB SWAP1 REVERT JUMPDEST DUP2 PUSH1 0x3 PUSH1 0x0 CALLER PUSH20 0xFFFFFFFFFFFFFFFFFFFFFFFFFFFFFFFFFFFFFFFF AND PUSH20 0xFFFFFFFFFFFFFFFFFFFFFFFFFFFFFFFFFFFFFFFF AND DUP2 MSTORE PUSH1 0x20 ADD SWAP1 DUP2 MSTORE PUSH1 0x20 ADD PUSH1 0x0 KECCAK256 PUSH1 0x0 ADD DUP2 SWAP1 SSTORE POP PUSH1 0x6 PUSH1 0x0 DUP2 SLOAD DUP1 SWAP3 SWAP2 SWAP1 PUSH2 0x11F3 SWAP1 PUSH2 0x2A72 JUMP JUMPDEST SWAP2 SWAP1 POP SSTORE POP CALLER PUSH20 0xFFFFFFFFFFFFFFFFFFFFFFFFFFFFFFFFFFFFFFFF AND PUSH32 0x378881B5D2D0F50F0782BFC28C9194FBCE3515BE77236885F5256BABB2E45C33 DUP4 PUSH1 0x40 MLOAD PUSH2 0x123E SWAP2 SWAP1 PUSH2 0x22F5 JUMP JUMPDEST PUSH1 0x40 MLOAD DUP1 SWAP2 SUB SWAP1 LOG2 POP POP JUMP JUMPDEST PUSH1 0x5 SLOAD DUP2 JUMP JUMPDEST PUSH1 0x6 SLOAD DUP2 JUMP JUMPDEST PUSH1 0x0 DUP1 SLOAD SWAP1 PUSH2 0x100 EXP SWAP1 DIV PUSH20 0xFFFFFFFFFFFFFFFFFFFFFFFFFFFFFFFFFFFFFFFF AND PUSH20 0xFFFFFFFFFFFFFFFFFFFFFFFFFFFFFFFFFFFFFFFF AND CALLER PUSH20 0xFFFFFFFFFFFFFFFFFFFFFFFFFFFFFFFFFFFFFFFF AND EQ PUSH2 0x12E4 JUMPI PUSH1 0x40 MLOAD PUSH32 0x8C379A000000000000000000000000000000000000000000000000000000000 DUP2 MSTORE PUSH1 0x4 ADD PUSH2 0x12DB SWAP1 PUSH2 0x2BEF JUMP JUMPDEST PUSH1 0x40 MLOAD DUP1 SWAP2 SUB SWAP1 REVERT JUMPDEST PUSH1 0x0 DUP1 PUSH1 0x3 DUP2 GT ISZERO PUSH2 0x12F9 JUMPI PUSH2 0x12F8 PUSH2 0x2502 JUMP JUMPDEST JUMPDEST PUSH1 0x0 PUSH1 0x14 SWAP1 SLOAD SWAP1 PUSH2 0x100 EXP SWAP1 DIV PUSH1 0xFF AND PUSH1 0x3 DUP2 GT ISZERO PUSH2 0x131B JUMPI PUSH2 0x131A PUSH2 0x2502 JUMP JUMPDEST JUMPDEST EQ PUSH2 0x135B JUMPI PUSH1 0x40 MLOAD PUSH32 0x8C379A000000000000000000000000000000000000000000000000000000000 DUP2 MSTORE PUSH1 0x4 ADD PUSH2 0x1352 SWAP1 PUSH2 0x2800 JUMP JUMPDEST PUSH1 0x40 MLOAD DUP1 SWAP2 SUB SWAP1 REVERT JUMPDEST PUSH1 0x4 PUSH1 0x0 DUP2 SLOAD DUP1 SWAP3 SWAP2 SWAP1 PUSH2 0x136E SWAP1 PUSH2 0x2A72 JUMP JUMPDEST SWAP2 SWAP1 POP SSTORE POP PUSH1 0x40 MLOAD DUP1 PUSH1 0x60 ADD PUSH1 0x40 MSTORE DUP1 PUSH1 0x4 SLOAD DUP2 MSTORE PUSH1 0x20 ADD DUP4 DUP2 MSTORE PUSH1 0x20 ADD PUSH1 0x0 DUP2 MSTORE POP PUSH1 0x1 PUSH1 0x0 PUSH1 0x4 SLOAD DUP2 MSTORE PUSH1 0x20 ADD SWAP1 DUP2 MSTORE PUSH1 0x20 ADD PUSH1 0x0 KECCAK256 PUSH1 0x0 DUP3 ADD MLOAD DUP2 PUSH1 0x0 ADD SSTORE PUSH1 0x20 DUP3 ADD MLOAD DUP2 PUSH1 0x1 ADD SWAP1 DUP2 PUSH2 0x13C5 SWAP2 SWAP1 PUSH2 0x2EB9 JUMP JUMPDEST POP PUSH1 0x40 DUP3 ADD MLOAD DUP2 PUSH1 0x2 ADD SSTORE SWAP1 POP POP PUSH1 0x4 SLOAD PUSH32 0xE83B2A43E7E82D975C8A0A6D2F045153C869E111136A34D1889AB7B598E396A3 DUP4 PUSH1 0x40 MLOAD PUSH2 0x1405 SWAP2 SWAP1 PUSH2 0x2F8B JUMP JUMPDEST PUSH1 0x40 MLOAD DUP1 SWAP2 SUB SWAP1 LOG2 POP POP JUMP JUMPDEST PUSH1 0x0 PUSH1 0x14 SWAP1 SLOAD SWAP1 PUSH2 0x100 EXP SWAP1 DIV PUSH1 0xFF AND DUP2 JUMP JUMPDEST PUSH1 0x3 PUSH1 0x20 MSTORE DUP1 PUSH1 0x0 MSTORE PUSH1 0x40 PUSH1 0x0 KECCAK256 PUSH1 0x0 SWAP2 POP SWAP1 POP DUP1 PUSH1 0x0 ADD SLOAD SWAP1 DUP1 PUSH1 0x1 ADD PUSH1 0x0 SWAP1 SLOAD SWAP1 PUSH2 0x100 EXP SWAP1 DIV PUSH1 0xFF AND SWAP1 DUP1 PUSH1 0x2 ADD SLOAD SWAP1 POP DUP4 JUMP JUMPDEST PUSH1 0x0 PUSH1 0x60 PUSH1 0x0 PUSH1 0x3 DUP1 PUSH1 0x3 DUP2 GT ISZERO PUSH2 0x1476 JUMPI PUSH2 0x1475 PUSH2 0x2502 JUMP JUMPDEST JUMPDEST PUSH1 0x0 PUSH1 0x14 SWAP1 SLOAD SWAP1 PUSH2 0x100 EXP SWAP1 DIV PUSH1 0xFF AND PUSH1 0x3 DUP2 GT ISZERO PUSH2 0x1498 JUMPI PUSH2 0x1497 PUSH2 0x2502 JUMP JUMPDEST JUMPDEST EQ PUSH2 0x14D8 JUMPI PUSH1 0x40 MLOAD PUSH32 0x8C379A000000000000000000000000000000000000000000000000000000000 DUP2 MSTORE PUSH1 0x4 ADD PUSH2 0x14CF SWAP1 PUSH2 0x2800 JUMP JUMPDEST PUSH1 0x40 MLOAD DUP1 SWAP2 SUB SWAP1 REVERT JUMPDEST PUSH1 0x0 PUSH1 0x4 SLOAD GT PUSH2 0x151D JUMPI PUSH1 0x40 MLOAD PUSH32 0x8C379A000000000000000000000000000000000000000000000000000000000 DUP2 MSTORE PUSH1 0x4 ADD PUSH2 0x1514 SWAP1 PUSH2 0x2FF9 JUMP JUMPDEST PUSH1 0x40 MLOAD DUP1 SWAP2 SUB SWAP1 REVERT JUMPDEST PUSH1 0x0 PUSH1 0x1 SWAP1 POP PUSH1 0x0 PUSH1 0x1 PUSH1 0x0 PUSH1 0x1 DUP2 MSTORE PUSH1 0x20 ADD SWAP1 DUP2 MSTORE PUSH1 0x20 ADD PUSH1 0x0 KECCAK256 PUSH1 0x2 ADD SLOAD SWAP1 POP PUSH1 0x0 PUSH1 0x2 SWAP1 POP JUMPDEST PUSH1 0x4 SLOAD DUP2 GT PUSH2 0x159D JUMPI DUP2 PUSH1 0x1 PUSH1 0x0 DUP4 DUP2 MSTORE PUSH1 0x20 ADD SWAP1 DUP2 MSTORE PUSH1 0x20 ADD PUSH1 0x0 KECCAK256 PUSH1 0x2 ADD SLOAD GT ISZERO PUSH2 0x158A JUMPI PUSH1 0x1 PUSH1 0x0 DUP3 DUP2 MSTORE PUSH1 0x20 ADD SWAP1 DUP2 MSTORE PUSH1 0x20 ADD PUSH1 0x0 KECCAK256 PUSH1 0x2 ADD SLOAD SWAP2 POP DUP1 SWAP3 POP JUMPDEST DUP1 DUP1 PUSH2 0x1595 SWAP1 PUSH2 0x2A72 JUMP JUMPDEST SWAP2 POP POP PUSH2 0x1546 JUMP JUMPDEST POP DUP2 PUSH1 0x1 PUSH1 0x0 DUP5 DUP2 MSTORE PUSH1 0x20 ADD SWAP1 DUP2 MSTORE PUSH1 0x20 ADD PUSH1 0x0 KECCAK256 PUSH1 0x1 ADD DUP3 DUP2 DUP1 SLOAD PUSH2 0x15C2 SWAP1 PUSH2 0x2AE9 JUMP JUMPDEST DUP1 PUSH1 0x1F ADD PUSH1 0x20 DUP1 SWAP2 DIV MUL PUSH1 0x20 ADD PUSH1 0x40 MLOAD SWAP1 DUP2 ADD PUSH1 0x40 MSTORE DUP1 SWAP3 SWAP2 SWAP1 DUP2 DUP2 MSTORE PUSH1 0x20 ADD DUP3 DUP1 SLOAD PUSH2 0x15EE SWAP1 PUSH2 0x2AE9 JUMP JUMPDEST DUP1 ISZERO PUSH2 0x163B JUMPI DUP1 PUSH1 0x1F LT PUSH2 0x1610 JUMPI PUSH2 0x100 DUP1 DUP4 SLOAD DIV MUL DUP4 MSTORE SWAP2 PUSH1 0x20 ADD SWAP2 PUSH2 0x163B JUMP JUMPDEST DUP3 ADD SWAP2 SWAP1 PUSH1 0x0 MSTORE PUSH1 0x20 PUSH1 0x0 KECCAK256 SWAP1 JUMPDEST DUP2 SLOAD DUP2 MSTORE SWAP1 PUSH1 0x1 ADD SWAP1 PUSH1 0x20 ADD DUP1 DUP4 GT PUSH2 0x161E JUMPI DUP3 SWAP1 SUB PUSH1 0x1F AND DUP3 ADD SWAP2 JUMPDEST POP POP POP POP POP SWAP2 POP SWAP6 POP SWAP6 POP SWAP6 POP POP POP POP SWAP1 SWAP2 SWAP3 JUMP JUMPDEST PUSH1 0x0 DUP1 PUSH1 0x0 DUP1 PUSH1 0x0 PUSH1 0x4 SLOAD PUSH1 0x5 SLOAD PUSH1 0x6 SLOAD PUSH1 0x7 SLOAD PUSH1 0x0 PUSH1 0x14 SWAP1 SLOAD SWAP1 PUSH2 0x100 EXP SWAP1 DIV PUSH1 0xFF AND SWAP5 POP SWAP5 POP SWAP5 POP SWAP5 POP SWAP5 POP SWAP1 SWAP2 SWAP3 SWAP4 SWAP5 JUMP JUMPDEST PUSH1 0x4 SLOAD DUP2 JUMP JUMPDEST PUSH1 0x2 PUSH1 0x20 MSTORE DUP1 PUSH1 0x0 MSTORE PUSH1 0x40 PUSH1 0x0 KECCAK256 PUSH1 0x0 SWAP2 POP SLOAD SWAP1 PUSH2 0x100 EXP SWAP1 DIV PUSH1 0xFF AND DUP2 JUMP JUMPDEST PUSH1 0x0 DUP1 SLOAD SWAP1 PUSH2 0x100 EXP SWAP1 DIV PUSH20 0xFFFFFFFFFFFFFFFFFFFFFFFFFFFFFFFFFFFFFFFF AND PUSH20 0xFFFFFFFFFFFFFFFFFFFFFFFFFFFFFFFFFFFFFFFF AND CALLER PUSH20 0xFFFFFFFFFFFFFFFFFFFFFFFFFFFFFFFFFFFFFFFF AND EQ PUSH2 0x1739 JUMPI PUSH1 0x40 MLOAD PUSH32 0x8C379A000000000000000000000000000000000000000000000000000000000 DUP2 MSTORE PUSH1 0x4 ADD PUSH2 0x1730 SWAP1 PUSH2 0x2BEF JUMP JUMPDEST PUSH1 0x40 MLOAD DUP1 SWAP2 SUB SWAP1 REVERT JUMPDEST PUSH1 0x3 DUP1 DUP2 GT ISZERO PUSH2 0x174C JUMPI PUSH2 0x174B PUSH2 0x2502 JUMP JUMPDEST JUMPDEST PUSH1 0x0 PUSH1 0x14 SWAP1 SLOAD SWAP1 PUSH2 0x100 EXP SWAP1 DIV PUSH1 0xFF AND PUSH1 0x3 DUP2 GT ISZERO PUSH2 0x176E JUMPI PUSH2 0x176D PUSH2 0x2502 JUMP JUMPDEST JUMPDEST SUB PUSH2 0x17AE JUMPI PUSH1 0x40 MLOAD PUSH32 0x8C379A000000000000000000000000000000000000000000000000000000000 DUP2 MSTORE PUSH1 0x4 ADD PUSH2 0x17A5 SWAP1 PUSH2 0x3065 JUMP JUMPDEST PUSH1 0x40 MLOAD DUP1 SWAP2 SUB SWAP1 REVERT JUMPDEST PUSH1 0x0 PUSH1 0x3 DUP2 GT ISZERO PUSH2 0x17C2 JUMPI PUSH2 0x17C1 PUSH2 0x2502 JUMP JUMPDEST JUMPDEST PUSH1 0x0 PUSH1 0x14 SWAP1 SLOAD SWAP1 PUSH2 0x100 EXP SWAP1 DIV PUSH1 0xFF AND PUSH1 0x3 DUP2 GT ISZERO PUSH2 0x17E4 JUMPI PUSH2 0x17E3 PUSH2 0x2502 JUMP JUMPDEST JUMPDEST SUB PUSH2 0x18A3 JUMPI PUSH1 0x0 PUSH1 0x4 SLOAD GT PUSH2 0x182E JUMPI PUSH1 0x40 MLOAD PUSH32 0x8C379A000000000000000000000000000000000000000000000000000000000 DUP2 MSTORE PUSH1 0x4 ADD PUSH2 0x1825 SWAP1 PUSH2 0x30F7 JUMP JUMPDEST PUSH1 0x40 MLOAD DUP1 SWAP2 SUB SWAP1 REVERT JUMPDEST PUSH1 0x0 PUSH1 0x5 SLOAD GT PUSH2 0x1873 JUMPI PUSH1 0x40 MLOAD PUSH32 0x8C379A000000000000000000000000000000000000000000000000000000000 DUP2 MSTORE PUSH1 0x4 ADD PUSH2 0x186A SWAP1 PUSH2 0x3189 JUMP JUMPDEST PUSH1 0x40 MLOAD DUP1 SWAP2 SUB SWAP1 REVERT JUMPDEST PUSH1 0x1 PUSH1 0x0 PUSH1 0x14 PUSH2 0x100 EXP DUP2 SLOAD DUP2 PUSH1 0xFF MUL NOT AND SWAP1 DUP4 PUSH1 0x3 DUP2 GT ISZERO PUSH2 0x1899 JUMPI PUSH2 0x1898 PUSH2 0x2502 JUMP JUMPDEST JUMPDEST MUL OR SWAP1 SSTORE POP PUSH2 0x1977 JUMP JUMPDEST PUSH1 0x1 PUSH1 0x3 DUP2 GT ISZERO PUSH2 0x18B7 JUMPI PUSH2 0x18B6 PUSH2 0x2502 JUMP JUMPDEST JUMPDEST PUSH1 0x0 PUSH1 0x14 SWAP1 SLOAD SWAP1 PUSH2 0x100 EXP SWAP1 DIV PUSH1 0xFF AND PUSH1 0x3 DUP2 GT ISZERO PUSH2 0x18D9 JUMPI PUSH2 0x18D8 PUSH2 0x2502 JUMP JUMPDEST JUMPDEST SUB PUSH2 0x190E JUMPI PUSH1 0x2 PUSH1 0x0 PUSH1 0x14 PUSH2 0x100 EXP DUP2 SLOAD DUP2 PUSH1 0xFF MUL NOT AND SWAP1 DUP4 PUSH1 0x3 DUP2 GT ISZERO PUSH2 0x1904 JUMPI PUSH2 0x1903 PUSH2 0x2502 JUMP JUMPDEST JUMPDEST MUL OR SWAP1 SSTORE POP PUSH2 0x1976 JUMP JUMPDEST PUSH1 0x2 PUSH1 0x3 DUP2 GT ISZERO PUSH2 0x1922 JUMPI PUSH2 0x1921 PUSH2 0x2502 JUMP JUMPDEST JUMPDEST PUSH1 0x0 PUSH1 0x14 SWAP1 SLOAD SWAP1 PUSH2 0x100 EXP SWAP1 DIV PUSH1 0xFF AND PUSH1 0x3 DUP2 GT ISZERO PUSH2 0x1944 JUMPI PUSH2 0x1943 PUSH2 0x2502 JUMP JUMPDEST JUMPDEST SUB PUSH2 0x1975 JUMPI PUSH1 0x3 PUSH1 0x0 PUSH1 0x14 PUSH2 0x100 EXP DUP2 SLOAD DUP2 PUSH1 0xFF MUL NOT AND SWAP1 DUP4 PUSH1 0x3 DUP2 GT ISZERO PUSH2 0x196F JUMPI PUSH2 0x196E PUSH2 0x2502 JUMP JUMPDEST JUMPDEST MUL OR SWAP1 SSTORE POP JUMPDEST JUMPDEST JUMPDEST PUSH32 0x273467821F33675618854603EF917EBCEC8A1A39F95C43D5564ED1AEFAB870B3 PUSH1 0x0 PUSH1 0x14 SWAP1 SLOAD SWAP1 PUSH2 0x100 EXP SWAP1 DIV PUSH1 0xFF AND PUSH1 0x40 MLOAD PUSH2 0x19B5 SWAP2 SWAP1 PUSH2 0x2579 JUMP JUMPDEST PUSH1 0x40 MLOAD DUP1 SWAP2 SUB SWAP1 LOG1 JUMP JUMPDEST PUSH1 0x0 DUP1 PUSH1 0x0 SHL PUSH1 0x3 PUSH1 0x0 DUP5 PUSH20 0xFFFFFFFFFFFFFFFFFFFFFFFFFFFFFFFFFFFFFFFF AND PUSH20 0xFFFFFFFFFFFFFFFFFFFFFFFFFFFFFFFFFFFFFFFF AND DUP2 MSTORE PUSH1 0x20 ADD SWAP1 DUP2 MSTORE PUSH1 0x20 ADD PUSH1 0x0 KECCAK256 PUSH1 0x0 ADD SLOAD EQ ISZERO SWAP1 POP SWAP2 SWAP1 POP JUMP JUMPDEST PUSH1 0x0 DUP1 SLOAD SWAP1 PUSH2 0x100 EXP SWAP1 DIV PUSH20 0xFFFFFFFFFFFFFFFFFFFFFFFFFFFFFFFFFFFFFFFF AND PUSH20 0xFFFFFFFFFFFFFFFFFFFFFFFFFFFFFFFFFFFFFFFF AND CALLER PUSH20 0xFFFFFFFFFFFFFFFFFFFFFFFFFFFFFFFFFFFFFFFF AND EQ PUSH2 0x1A9F JUMPI PUSH1 0x40 MLOAD PUSH32 0x8C379A000000000000000000000000000000000000000000000000000000000 DUP2 MSTORE PUSH1 0x4 ADD PUSH2 0x1A96 SWAP1 PUSH2 0x2BEF JUMP JUMPDEST PUSH1 0x40 MLOAD DUP1 SWAP2 SUB SWAP1 REVERT JUMPDEST PUSH1 0x3 DUP1 DUP2 GT ISZERO PUSH2 0x1AB2 JUMPI PUSH2 0x1AB1 PUSH2 0x2502 JUMP JUMPDEST JUMPDEST PUSH1 0x0 PUSH1 0x14 SWAP1 SLOAD SWAP1 PUSH2 0x100 EXP SWAP1 DIV PUSH1 0xFF AND PUSH1 0x3 DUP2 GT ISZERO PUSH2 0x1AD4 JUMPI PUSH2 0x1AD3 PUSH2 0x2502 JUMP JUMPDEST JUMPDEST EQ PUSH2 0x1B14 JUMPI PUSH1 0x40 MLOAD PUSH32 0x8C379A000000000000000000000000000000000000000000000000000000000 DUP2 MSTORE PUSH1 0x4 ADD PUSH2 0x1B0B SWAP1 PUSH2 0x321B JUMP JUMPDEST PUSH1 0x40 MLOAD DUP1 SWAP2 SUB SWAP1 REVERT JUMPDEST PUSH1 0x0 PUSH1 0x4 DUP2 SWAP1 SSTORE POP PUSH1 0x0 PUSH1 0x5 DUP2 SWAP1 SSTORE POP PUSH1 0x0 PUSH1 0x6 DUP2 SWAP1 SSTORE POP PUSH1 0x0 PUSH1 0x7 DUP2 SWAP1 SSTORE POP PUSH1 0x0 DUP1 PUSH1 0x14 PUSH2 0x100 EXP DUP2 SLOAD DUP2 PUSH1 0xFF MUL NOT AND SWAP1 DUP4 PUSH1 0x3 DUP2 GT ISZERO PUSH2 0x1B59 JUMPI PUSH2 0x1B58 PUSH2 0x2502 JUMP JUMPDEST JUMPDEST MUL OR SWAP1 SSTORE POP PUSH32 0x273467821F33675618854603EF917EBCEC8A1A39F95C43D5564ED1AEFAB870B3 PUSH1 0x0 PUSH1 0x14 SWAP1 SLOAD SWAP1 PUSH2 0x100 EXP SWAP1 DIV PUSH1 0xFF AND PUSH1 0x40 MLOAD PUSH2 0x1B9C SWAP2 SWAP1 PUSH2 0x2579 JUMP JUMPDEST PUSH1 0x40 MLOAD DUP1 SWAP2 SUB SWAP1 LOG1 JUMP JUMPDEST PUSH1 0x0 PUSH1 0x2 PUSH1 0x0 DUP4 PUSH20 0xFFFFFFFFFFFFFFFFFFFFFFFFFFFFFFFFFFFFFFFF AND PUSH20 0xFFFFFFFFFFFFFFFFFFFFFFFFFFFFFFFFFFFFFFFF AND DUP2 MSTORE PUSH1 0x20 ADD SWAP1 DUP2 MSTORE PUSH1 0x20 ADD PUSH1 0x0 KECCAK256 PUSH1 0x0 SWAP1 SLOAD SWAP1 PUSH2 0x100 EXP SWAP1 DIV PUSH1 0xFF AND SWAP1 POP SWAP2 SWAP1 POP JUMP JUMPDEST PUSH1 0x0 DUP1 SLOAD SWAP1 PUSH2 0x100 EXP SWAP1 DIV PUSH20 0xFFFFFFFFFFFFFFFFFFFFFFFFFFFFFFFFFFFFFFFF AND PUSH20 0xFFFFFFFFFFFFFFFFFFFFFFFFFFFFFFFFFFFFFFFF AND CALLER PUSH20 0xFFFFFFFFFFFFFFFFFFFFFFFFFFFFFFFFFFFFFFFF AND EQ PUSH2 0x1C8A JUMPI PUSH1 0x40 MLOAD PUSH32 0x8C379A000000000000000000000000000000000000000000000000000000000 DUP2 MSTORE PUSH1 0x4 ADD PUSH2 0x1C81 SWAP1 PUSH2 0x2BEF JUMP JUMPDEST PUSH1 0x40 MLOAD DUP1 SWAP2 SUB SWAP1 REVERT JUMPDEST PUSH1 0x0 DUP1 PUSH1 0x3 DUP2 GT ISZERO PUSH2 0x1C9F JUMPI PUSH2 0x1C9E PUSH2 0x2502 JUMP JUMPDEST JUMPDEST PUSH1 0x0 PUSH1 0x14 SWAP1 SLOAD SWAP1 PUSH2 0x100 EXP SWAP1 DIV PUSH1 0xFF AND PUSH1 0x3 DUP2 GT ISZERO PUSH2 0x1CC1 JUMPI PUSH2 0x1CC0 PUSH2 0x2502 JUMP JUMPDEST JUMPDEST EQ PUSH2 0x1D01 JUMPI PUSH1 0x40 MLOAD PUSH32 0x8C379A000000000000000000000000000000000000000000000000000000000 DUP2 MSTORE PUSH1 0x4 ADD PUSH2 0x1CF8 SWAP1 PUSH2 0x2800 JUMP JUMPDEST PUSH1 0x40 MLOAD DUP1 SWAP2 SUB SWAP1 REVERT JUMPDEST PUSH1 0x0 JUMPDEST DUP3 MLOAD DUP2 LT ISZERO PUSH2 0x1E73 JUMPI PUSH1 0x2 PUSH1 0x0 DUP5 DUP4 DUP2 MLOAD DUP2 LT PUSH2 0x1D24 JUMPI PUSH2 0x1D23 PUSH2 0x2B4E JUMP JUMPDEST JUMPDEST PUSH1 0x20 MUL PUSH1 0x20 ADD ADD MLOAD PUSH20 0xFFFFFFFFFFFFFFFFFFFFFFFFFFFFFFFFFFFFFFFF AND PUSH20 0xFFFFFFFFFFFFFFFFFFFFFFFFFFFFFFFFFFFFFFFF AND DUP2 MSTORE PUSH1 0x20 ADD SWAP1 DUP2 MSTORE PUSH1 0x20 ADD PUSH1 0x0 KECCAK256 PUSH1 0x0 SWAP1 SLOAD SWAP1 PUSH2 0x100 EXP SWAP1 DIV PUSH1 0xFF AND PUSH2 0x1E60 JUMPI PUSH1 0x1 PUSH1 0x2 PUSH1 0x0 DUP6 DUP5 DUP2 MLOAD DUP2 LT PUSH2 0x1D91 JUMPI PUSH2 0x1D90 PUSH2 0x2B4E JUMP JUMPDEST JUMPDEST PUSH1 0x20 MUL PUSH1 0x20 ADD ADD MLOAD PUSH20 0xFFFFFFFFFFFFFFFFFFFFFFFFFFFFFFFFFFFFFFFF AND PUSH20 0xFFFFFFFFFFFFFFFFFFFFFFFFFFFFFFFFFFFFFFFF AND DUP2 MSTORE PUSH1 0x20 ADD SWAP1 DUP2 MSTORE PUSH1 0x20 ADD PUSH1 0x0 KECCAK256 PUSH1 0x0 PUSH2 0x100 EXP DUP2 SLOAD DUP2 PUSH1 0xFF MUL NOT AND SWAP1 DUP4 ISZERO ISZERO MUL OR SWAP1 SSTORE POP PUSH1 0x5 PUSH1 0x0 DUP2 SLOAD DUP1 SWAP3 SWAP2 SWAP1 PUSH2 0x1DFD SWAP1 PUSH2 0x2A72 JUMP JUMPDEST SWAP2 SWAP1 POP SSTORE POP DUP3 DUP2 DUP2 MLOAD DUP2 LT PUSH2 0x1E15 JUMPI PUSH2 0x1E14 PUSH2 0x2B4E JUMP JUMPDEST JUMPDEST PUSH1 0x20 MUL PUSH1 0x20 ADD ADD MLOAD PUSH20 0xFFFFFFFFFFFFFFFFFFFFFFFFFFFFFFFFFFFFFFFF AND PUSH32 0xB6BE2187D059CC2A55FE29E0E503B566E1E0F8C8780096E185429350ACFFD3DD PUSH1 0x40 MLOAD PUSH1 0x40 MLOAD DUP1 SWAP2 SUB SWAP1 LOG2 JUMPDEST DUP1 DUP1 PUSH2 0x1E6B SWAP1 PUSH2 0x2A72 JUMP JUMPDEST SWAP2 POP POP PUSH2 0x1D04 JUMP JUMPDEST POP POP POP JUMP JUMPDEST PUSH1 0x7 SLOAD DUP2 JUMP JUMPDEST PUSH1 0x0 DUP1 SLOAD SWAP1 PUSH2 0x100 EXP SWAP1 DIV PUSH20 0xFFFFFFFFFFFFFFFFFFFFFFFFFFFFFFFFFFFFFFFF AND DUP2 JUMP JUMPDEST PUSH1 0x40 MLOAD DUP1 PUSH1 0x60 ADD PUSH1 0x40 MSTORE DUP1 PUSH1 0x0 DUP2 MSTORE PUSH1 0x20 ADD PUSH1 0x60 DUP2 MSTORE PUSH1 0x20 ADD PUSH1 0x0 DUP2 MSTORE POP SWAP1 JUMP JUMPDEST PUSH1 0x0 PUSH1 0x40 MLOAD SWAP1 POP SWAP1 JUMP JUMPDEST PUSH1 0x0 DUP1 REVERT JUMPDEST PUSH1 0x0 DUP1 REVERT JUMPDEST PUSH1 0x0 PUSH20 0xFFFFFFFFFFFFFFFFFFFFFFFFFFFFFFFFFFFFFFFF DUP3 AND SWAP1 POP SWAP2 SWAP1 POP JUMP JUMPDEST PUSH1 0x0 PUSH2 0x1F02 DUP3 PUSH2 0x1ED7 JUMP JUMPDEST SWAP1 POP SWAP2 SWAP1 POP JUMP JUMPDEST PUSH2 0x1F12 DUP2 PUSH2 0x1EF7 JUMP JUMPDEST DUP2 EQ PUSH2 0x1F1D JUMPI PUSH1 0x0 DUP1 REVERT JUMPDEST POP JUMP JUMPDEST PUSH1 0x0 DUP2 CALLDATALOAD SWAP1 POP PUSH2 0x1F2F DUP2 PUSH2 0x1F09 JUMP JUMPDEST SWAP3 SWAP2 POP POP JUMP JUMPDEST PUSH1 0x0 PUSH1 0x20 DUP3 DUP5 SUB SLT ISZERO PUSH2 0x1F4B JUMPI PUSH2 0x1F4A PUSH2 0x1ECD JUMP JUMPDEST JUMPDEST PUSH1 0x0 PUSH2 0x1F59 DUP5 DUP3 DUP6 ADD PUSH2 0x1F20 JUMP JUMPDEST SWAP2 POP POP SWAP3 SWAP2 POP POP JUMP JUMPDEST PUSH1 0x0 DUP2 ISZERO ISZERO SWAP1 POP SWAP2 SWAP1 POP JUMP JUMPDEST PUSH2 0x1F77 DUP2 PUSH2 0x1F62 JUMP JUMPDEST DUP3 MSTORE POP POP JUMP JUMPDEST PUSH1 0x0 PUSH1 0x20 DUP3 ADD SWAP1 POP PUSH2 0x1F92 PUSH1 0x0 DUP4 ADD DUP5 PUSH2 0x1F6E JUMP JUMPDEST SWAP3 SWAP2 POP POP JUMP JUMPDEST PUSH1 0x0 DUP2 SWAP1 POP SWAP2 SWAP1 POP JUMP JUMPDEST PUSH2 0x1FAB DUP2 PUSH2 0x1F98 JUMP JUMPDEST DUP3 MSTORE POP POP JUMP JUMPDEST PUSH1 0x0 DUP2 SWAP1 POP SWAP2 SWAP1 POP JUMP JUMPDEST PUSH2 0x1FC4 DUP2 PUSH2 0x1FB1 JUMP JUMPDEST DUP3 MSTORE POP POP JUMP JUMPDEST PUSH1 0x0 PUSH1 0x60 DUP3 ADD SWAP1 POP PUSH2 0x1FDF PUSH1 0x0 DUP4 ADD DUP7 PUSH2 0x1FA2 JUMP JUMPDEST PUSH2 0x1FEC PUSH1 0x20 DUP4 ADD DUP6 PUSH2 0x1F6E JUMP JUMPDEST PUSH2 0x1FF9 PUSH1 0x40 DUP4 ADD DUP5 PUSH2 0x1FBB JUMP JUMPDEST SWAP5 SWAP4 POP POP POP POP JUMP JUMPDEST PUSH2 0x200A DUP2 PUSH2 0x1FB1 JUMP JUMPDEST DUP2 EQ PUSH2 0x2015 JUMPI PUSH1 0x0 DUP1 REVERT JUMPDEST POP JUMP JUMPDEST PUSH1 0x0 DUP2 CALLDATALOAD SWAP1 POP PUSH2 0x2027 DUP2 PUSH2 0x2001 JUMP JUMPDEST SWAP3 SWAP2 POP POP JUMP JUMPDEST PUSH1 0x0 DUP1 PUSH1 0x40 DUP4 DUP6 SUB SLT ISZERO PUSH2 0x2044 JUMPI PUSH2 0x2043 PUSH2 0x1ECD JUMP JUMPDEST JUMPDEST PUSH1 0x0 PUSH2 0x2052 DUP6 DUP3 DUP7 ADD PUSH2 0x2018 JUMP JUMPDEST SWAP3 POP POP PUSH1 0x20 PUSH2 0x2063 DUP6 DUP3 DUP7 ADD PUSH2 0x2018 JUMP JUMPDEST SWAP2 POP POP SWAP3 POP SWAP3 SWAP1 POP JUMP JUMPDEST PUSH1 0x0 DUP2 MLOAD SWAP1 POP SWAP2 SWAP1 POP JUMP JUMPDEST PUSH1 0x0 DUP3 DUP3 MSTORE PUSH1 0x20 DUP3 ADD SWAP1 POP SWAP3 SWAP2 POP POP JUMP JUMPDEST PUSH1 0x0 DUP2 SWAP1 POP PUSH1 0x20 DUP3 ADD SWAP1 POP SWAP2 SWAP1 POP JUMP JUMPDEST PUSH2 0x20A2 DUP2 PUSH2 0x1FB1 JUMP JUMPDEST DUP3 MSTORE POP POP JUMP JUMPDEST PUSH1 0x0 DUP2 MLOAD SWAP1 POP SWAP2 SWAP1 POP JUMP JUMPDEST PUSH1 0x0 DUP3 DUP3 MSTORE PUSH1 0x20 DUP3 ADD SWAP1 POP SWAP3 SWAP2 POP POP JUMP JUMPDEST PUSH1 0x0 JUMPDEST DUP4 DUP2 LT ISZERO PUSH2 0x20E2 JUMPI DUP1 DUP3 ADD MLOAD DUP2 DUP5 ADD MSTORE PUSH1 0x20 DUP2 ADD SWAP1 POP PUSH2 0x20C7 JUMP JUMPDEST PUSH1 0x0 DUP5 DUP5 ADD MSTORE POP POP POP POP JUMP JUMPDEST PUSH1 0x0 PUSH1 0x1F NOT PUSH1 0x1F DUP4 ADD AND SWAP1 POP SWAP2 SWAP1 POP JUMP JUMPDEST PUSH1 0x0 PUSH2 0x210A DUP3 PUSH2 0x20A8 JUMP JUMPDEST PUSH2 0x2114 DUP2 DUP6 PUSH2 0x20B3 JUMP JUMPDEST SWAP4 POP PUSH2 0x2124 DUP2 DUP6 PUSH1 0x20 DUP7 ADD PUSH2 0x20C4 JUMP JUMPDEST PUSH2 0x212D DUP2 PUSH2 0x20EE JUMP JUMPDEST DUP5 ADD SWAP2 POP POP SWAP3 SWAP2 POP POP JUMP JUMPDEST PUSH1 0x0 PUSH1 0x60 DUP4 ADD PUSH1 0x0 DUP4 ADD MLOAD PUSH2 0x2150 PUSH1 0x0 DUP7 ADD DUP3 PUSH2 0x2099 JUMP JUMPDEST POP PUSH1 0x20 DUP4 ADD MLOAD DUP5 DUP3 SUB PUSH1 0x20 DUP7 ADD MSTORE PUSH2 0x2168 DUP3 DUP3 PUSH2 0x20FF JUMP JUMPDEST SWAP2 POP POP PUSH1 0x40 DUP4 ADD MLOAD PUSH2 0x217D PUSH1 0x40 DUP7 ADD DUP3 PUSH2 0x2099 JUMP JUMPDEST POP DUP1 SWAP2 POP POP SWAP3 SWAP2 POP POP JUMP JUMPDEST PUSH1 0x0 PUSH2 0x2194 DUP4 DUP4 PUSH2 0x2138 JUMP JUMPDEST SWAP1 POP SWAP3 SWAP2 POP POP JUMP JUMPDEST PUSH1 0x0 PUSH1 0x20 DUP3 ADD SWAP1 POP SWAP2 SWAP1 POP JUMP JUMPDEST PUSH1 0x0 PUSH2 0x21B4 DUP3 PUSH2 0x206D JUMP JUMPDEST PUSH2 0x21BE DUP2 DUP6 PUSH2 0x2078 JUMP JUMPDEST SWAP4 POP DUP4 PUSH1 0x20 DUP3 MUL DUP6 ADD PUSH2 0x21D0 DUP6 PUSH2 0x2089 JUMP JUMPDEST DUP1 PUSH1 0x0 JUMPDEST DUP6 DUP2 LT ISZERO PUSH2 0x220C JUMPI DUP5 DUP5 SUB DUP10 MSTORE DUP2 MLOAD PUSH2 0x21ED DUP6 DUP3 PUSH2 0x2188 JUMP JUMPDEST SWAP5 POP PUSH2 0x21F8 DUP4 PUSH2 0x219C JUMP JUMPDEST SWAP3 POP PUSH1 0x20 DUP11 ADD SWAP10 POP POP PUSH1 0x1 DUP2 ADD SWAP1 POP PUSH2 0x21D4 JUMP JUMPDEST POP DUP3 SWAP8 POP DUP8 SWAP6 POP POP POP POP POP POP SWAP3 SWAP2 POP POP JUMP JUMPDEST PUSH1 0x0 PUSH1 0x20 DUP3 ADD SWAP1 POP DUP2 DUP2 SUB PUSH1 0x0 DUP4 ADD MSTORE PUSH2 0x2238 DUP2 DUP5 PUSH2 0x21A9 JUMP JUMPDEST SWAP1 POP SWAP3 SWAP2 POP POP JUMP JUMPDEST PUSH1 0x0 PUSH1 0x20 DUP3 DUP5 SUB SLT ISZERO PUSH2 0x2256 JUMPI PUSH2 0x2255 PUSH2 0x1ECD JUMP JUMPDEST JUMPDEST PUSH1 0x0 PUSH2 0x2264 DUP5 DUP3 DUP6 ADD PUSH2 0x2018 JUMP JUMPDEST SWAP2 POP POP SWAP3 SWAP2 POP POP JUMP JUMPDEST PUSH1 0x0 DUP3 DUP3 MSTORE PUSH1 0x20 DUP3 ADD SWAP1 POP SWAP3 SWAP2 POP POP JUMP JUMPDEST PUSH1 0x0 PUSH2 0x2289 DUP3 PUSH2 0x20A8 JUMP JUMPDEST PUSH2 0x2293 DUP2 DUP6 PUSH2 0x226D JUMP JUMPDEST SWAP4 POP PUSH2 0x22A3 DUP2 DUP6 PUSH1 0x20 DUP7 ADD PUSH2 0x20C4 JUMP JUMPDEST PUSH2 0x22AC DUP2 PUSH2 0x20EE JUMP JUMPDEST DUP5 ADD SWAP2 POP POP SWAP3 SWAP2 POP POP JUMP JUMPDEST PUSH1 0x0 PUSH1 0x60 DUP3 ADD SWAP1 POP PUSH2 0x22CC PUSH1 0x0 DUP4 ADD DUP7 PUSH2 0x1FBB JUMP JUMPDEST DUP2 DUP2 SUB PUSH1 0x20 DUP4 ADD MSTORE PUSH2 0x22DE DUP2 DUP6 PUSH2 0x227E JUMP JUMPDEST SWAP1 POP PUSH2 0x22ED PUSH1 0x40 DUP4 ADD DUP5 PUSH2 0x1FBB JUMP JUMPDEST SWAP5 SWAP4 POP POP POP POP JUMP JUMPDEST PUSH1 0x0 PUSH1 0x20 DUP3 ADD SWAP1 POP PUSH2 0x230A PUSH1 0x0 DUP4 ADD DUP5 PUSH2 0x1FA2 JUMP JUMPDEST SWAP3 SWAP2 POP POP JUMP JUMPDEST PUSH2 0x2319 DUP2 PUSH2 0x1F98 JUMP JUMPDEST DUP2 EQ PUSH2 0x2324 JUMPI PUSH1 0x0 DUP1 REVERT JUMPDEST POP JUMP JUMPDEST PUSH1 0x0 DUP2 CALLDATALOAD SWAP1 POP PUSH2 0x2336 DUP2 PUSH2 0x2310 JUMP JUMPDEST SWAP3 SWAP2 POP POP JUMP JUMPDEST PUSH1 0x0 PUSH1 0x20 DUP3 DUP5 SUB SLT ISZERO PUSH2 0x2352 JUMPI PUSH2 0x2351 PUSH2 0x1ECD JUMP JUMPDEST JUMPDEST PUSH1 0x0 PUSH2 0x2360 DUP5 DUP3 DUP6 ADD PUSH2 0x2327 JUMP JUMPDEST SWAP2 POP POP SWAP3 SWAP2 POP POP JUMP JUMPDEST PUSH1 0x0 PUSH1 0x20 DUP3 ADD SWAP1 POP PUSH2 0x237E PUSH1 0x0 DUP4 ADD DUP5 PUSH2 0x1FBB JUMP JUMPDEST SWAP3 SWAP2 POP POP JUMP JUMPDEST PUSH1 0x0 DUP1 REVERT JUMPDEST PUSH1 0x0 DUP1 REVERT JUMPDEST PUSH32 0x4E487B7100000000000000000000000000000000000000000000000000000000 PUSH1 0x0 MSTORE PUSH1 0x41 PUSH1 0x4 MSTORE PUSH1 0x24 PUSH1 0x0 REVERT JUMPDEST PUSH2 0x23C6 DUP3 PUSH2 0x20EE JUMP JUMPDEST DUP2 ADD DUP2 DUP2 LT PUSH8 0xFFFFFFFFFFFFFFFF DUP3 GT OR ISZERO PUSH2 0x23E5 JUMPI PUSH2 0x23E4 PUSH2 0x238E JUMP JUMPDEST JUMPDEST DUP1 PUSH1 0x40 MSTORE POP POP POP JUMP JUMPDEST PUSH1 0x0 PUSH2 0x23F8 PUSH2 0x1EC3 JUMP JUMPDEST SWAP1 POP PUSH2 0x2404 DUP3 DUP3 PUSH2 0x23BD JUMP JUMPDEST SWAP2 SWAP1 POP JUMP JUMPDEST PUSH1 0x0 PUSH8 0xFFFFFFFFFFFFFFFF DUP3 GT ISZERO PUSH2 0x2424 JUMPI PUSH2 0x2423 PUSH2 0x238E JUMP JUMPDEST JUMPDEST PUSH2 0x242D DUP3 PUSH2 0x20EE JUMP JUMPDEST SWAP1 POP PUSH1 0x20 DUP2 ADD SWAP1 POP SWAP2 SWAP1 POP JUMP JUMPDEST DUP3 DUP2 DUP4 CALLDATACOPY PUSH1 0x0 DUP4 DUP4 ADD MSTORE POP POP POP JUMP JUMPDEST PUSH1 0x0 PUSH2 0x245C PUSH2 0x2457 DUP5 PUSH2 0x2409 JUMP JUMPDEST PUSH2 0x23EE JUMP JUMPDEST SWAP1 POP DUP3 DUP2 MSTORE PUSH1 0x20 DUP2 ADD DUP5 DUP5 DUP5 ADD GT ISZERO PUSH2 0x2478 JUMPI PUSH2 0x2477 PUSH2 0x2389 JUMP JUMPDEST JUMPDEST PUSH2 0x2483 DUP5 DUP3 DUP6 PUSH2 0x243A JUMP JUMPDEST POP SWAP4 SWAP3 POP POP POP JUMP JUMPDEST PUSH1 0x0 DUP3 PUSH1 0x1F DUP4 ADD SLT PUSH2 0x24A0 JUMPI PUSH2 0x249F PUSH2 0x2384 JUMP JUMPDEST JUMPDEST DUP2 CALLDATALOAD PUSH2 0x24B0 DUP5 DUP3 PUSH1 0x20 DUP7 ADD PUSH2 0x2449 JUMP JUMPDEST SWAP2 POP POP SWAP3 SWAP2 POP POP JUMP JUMPDEST PUSH1 0x0 PUSH1 0x20 DUP3 DUP5 SUB SLT ISZERO PUSH2 0x24CF JUMPI PUSH2 0x24CE PUSH2 0x1ECD JUMP JUMPDEST JUMPDEST PUSH1 0x0 DUP3 ADD CALLDATALOAD PUSH8 0xFFFFFFFFFFFFFFFF DUP2 GT ISZERO PUSH2 0x24ED JUMPI PUSH2 0x24EC PUSH2 0x1ED2 JUMP JUMPDEST JUMPDEST PUSH2 0x24F9 DUP5 DUP3 DUP6 ADD PUSH2 0x248B JUMP JUMPDEST SWAP2 POP POP SWAP3 SWAP2 POP POP JUMP JUMPDEST PUSH32 0x4E487B7100000000000000000000000000000000000000000000000000000000 PUSH1 0x0 MSTORE PUSH1 0x21 PUSH1 0x4 MSTORE PUSH1 0x24 PUSH1 0x0 REVERT JUMPDEST PUSH1 0x4 DUP2 LT PUSH2 0x2542 JUMPI PUSH2 0x2541 PUSH2 0x2502 JUMP JUMPDEST JUMPDEST POP JUMP JUMPDEST PUSH1 0x0 DUP2 SWAP1 POP PUSH2 0x2553 DUP3 PUSH2 0x2531 JUMP JUMPDEST SWAP2 SWAP1 POP JUMP JUMPDEST PUSH1 0x0 PUSH2 0x2563 DUP3 PUSH2 0x2545 JUMP JUMPDEST SWAP1 POP SWAP2 SWAP1 POP JUMP JUMPDEST PUSH2 0x2573 DUP2 PUSH2 0x2558 JUMP JUMPDEST DUP3 MSTORE POP POP JUMP JUMPDEST PUSH1 0x0 PUSH1 0x20 DUP3 ADD SWAP1 POP PUSH2 0x258E PUSH1 0x0 DUP4 ADD DUP5 PUSH2 0x256A JUMP JUMPDEST SWAP3 SWAP2 POP POP JUMP JUMPDEST PUSH1 0x0 PUSH1 0xA0 DUP3 ADD SWAP1 POP PUSH2 0x25A9 PUSH1 0x0 DUP4 ADD DUP9 PUSH2 0x1FBB JUMP JUMPDEST PUSH2 0x25B6 PUSH1 0x20 DUP4 ADD DUP8 PUSH2 0x1FBB JUMP JUMPDEST PUSH2 0x25C3 PUSH1 0x40 DUP4 ADD DUP7 PUSH2 0x1FBB JUMP JUMPDEST PUSH2 0x25D0 PUSH1 0x60 DUP4 ADD DUP6 PUSH2 0x1FBB JUMP JUMPDEST PUSH2 0x25DD PUSH1 0x80 DUP4 ADD DUP5 PUSH2 0x256A JUMP JUMPDEST SWAP7 SWAP6 POP POP POP POP POP POP JUMP JUMPDEST PUSH1 0x0 PUSH8 0xFFFFFFFFFFFFFFFF DUP3 GT ISZERO PUSH2 0x2602 JUMPI PUSH2 0x2601 PUSH2 0x238E JUMP JUMPDEST JUMPDEST PUSH1 0x20 DUP3 MUL SWAP1 POP PUSH1 0x20 DUP2 ADD SWAP1 POP SWAP2 SWAP1 POP JUMP JUMPDEST PUSH1 0x0 DUP1 REVERT JUMPDEST PUSH1 0x0 PUSH2 0x262B PUSH2 0x2626 DUP5 PUSH2 0x25E7 JUMP JUMPDEST PUSH2 0x23EE JUMP JUMPDEST SWAP1 POP DUP1 DUP4 DUP3 MSTORE PUSH1 0x20 DUP3 ADD SWAP1 POP PUSH1 0x20 DUP5 MUL DUP4 ADD DUP6 DUP2 GT ISZERO PUSH2 0x264E JUMPI PUSH2 0x264D PUSH2 0x2613 JUMP JUMPDEST JUMPDEST DUP4 JUMPDEST DUP2 DUP2 LT ISZERO PUSH2 0x2677 JUMPI DUP1 PUSH2 0x2663 DUP9 DUP3 PUSH2 0x1F20 JUMP JUMPDEST DUP5 MSTORE PUSH1 0x20 DUP5 ADD SWAP4 POP POP PUSH1 0x20 DUP2 ADD SWAP1 POP PUSH2 0x2650 JUMP JUMPDEST POP POP POP SWAP4 SWAP3 POP POP POP JUMP JUMPDEST PUSH1 0x0 DUP3 PUSH1 0x1F DUP4 ADD SLT PUSH2 0x2696 JUMPI PUSH2 0x2695 PUSH2 0x2384 JUMP JUMPDEST JUMPDEST DUP2 CALLDATALOAD PUSH2 0x26A6 DUP5 DUP3 PUSH1 0x20 DUP7 ADD PUSH2 0x2618 JUMP JUMPDEST SWAP2 POP POP SWAP3 SWAP2 POP POP JUMP JUMPDEST PUSH1 0x0 PUSH1 0x20 DUP3 DUP5 SUB SLT ISZERO PUSH2 0x26C5 JUMPI PUSH2 0x26C4 PUSH2 0x1ECD JUMP JUMPDEST JUMPDEST PUSH1 0x0 DUP3 ADD CALLDATALOAD PUSH8 0xFFFFFFFFFFFFFFFF DUP2 GT ISZERO PUSH2 0x26E3 JUMPI PUSH2 0x26E2 PUSH2 0x1ED2 JUMP JUMPDEST JUMPDEST PUSH2 0x26EF DUP5 DUP3 DUP6 ADD PUSH2 0x2681 JUMP JUMPDEST SWAP2 POP POP SWAP3 SWAP2 POP POP JUMP JUMPDEST PUSH2 0x2701 DUP2 PUSH2 0x1EF7 JUMP JUMPDEST DUP3 MSTORE POP POP JUMP JUMPDEST PUSH1 0x0 PUSH1 0x20 DUP3 ADD SWAP1 POP PUSH2 0x271C PUSH1 0x0 DUP4 ADD DUP5 PUSH2 0x26F8 JUMP JUMPDEST SWAP3 SWAP2 POP POP JUMP JUMPDEST PUSH32 0x596F7520617265206E6F74207265676973746572656420746F20766F74650000 PUSH1 0x0 DUP3 ADD MSTORE POP JUMP JUMPDEST PUSH1 0x0 PUSH2 0x2758 PUSH1 0x1E DUP4 PUSH2 0x226D JUMP JUMPDEST SWAP2 POP PUSH2 0x2763 DUP3 PUSH2 0x2722 JUMP JUMPDEST PUSH1 0x20 DUP3 ADD SWAP1 POP SWAP2 SWAP1 POP JUMP JUMPDEST PUSH1 0x0 PUSH1 0x20 DUP3 ADD SWAP1 POP DUP2 DUP2 SUB PUSH1 0x0 DUP4 ADD MSTORE PUSH2 0x2787 DUP2 PUSH2 0x274B JUMP JUMPDEST SWAP1 POP SWAP2 SWAP1 POP JUMP JUMPDEST PUSH32 0x46756E6374696F6E2063616E6E6F742062652063616C6C656420617420746869 PUSH1 0x0 DUP3 ADD MSTORE PUSH32 0x7320737461676500000000000000000000000000000000000000000000000000 PUSH1 0x20 DUP3 ADD MSTORE POP JUMP JUMPDEST PUSH1 0x0 PUSH2 0x27EA PUSH1 0x27 DUP4 PUSH2 0x226D JUMP JUMPDEST SWAP2 POP PUSH2 0x27F5 DUP3 PUSH2 0x278E JUMP JUMPDEST PUSH1 0x40 DUP3 ADD SWAP1 POP SWAP2 SWAP1 POP JUMP JUMPDEST PUSH1 0x0 PUSH1 0x20 DUP3 ADD SWAP1 POP DUP2 DUP2 SUB PUSH1 0x0 DUP4 ADD MSTORE PUSH2 0x2819 DUP2 PUSH2 0x27DD JUMP JUMPDEST SWAP1 POP SWAP2 SWAP1 POP JUMP JUMPDEST PUSH32 0x596F7520686176656E277420636F6D6D6974746564206120766F746500000000 PUSH1 0x0 DUP3 ADD MSTORE POP JUMP JUMPDEST PUSH1 0x0 PUSH2 0x2856 PUSH1 0x1C DUP4 PUSH2 0x226D JUMP JUMPDEST SWAP2 POP PUSH2 0x2861 DUP3 PUSH2 0x2820 JUMP JUMPDEST PUSH1 0x20 DUP3 ADD SWAP1 POP SWAP2 SWAP1 POP JUMP JUMPDEST PUSH1 0x0 PUSH1 0x20 DUP3 ADD SWAP1 POP DUP2 DUP2 SUB PUSH1 0x0 DUP4 ADD MSTORE PUSH2 0x2885 DUP2 PUSH2 0x2849 JUMP JUMPDEST SWAP1 POP SWAP2 SWAP1 POP JUMP JUMPDEST PUSH32 0x596F75206861766520616C72656164792072657665616C656420796F75722076 PUSH1 0x0 DUP3 ADD MSTORE PUSH32 0x6F74650000000000000000000000000000000000000000000000000000000000 PUSH1 0x20 DUP3 ADD MSTORE POP JUMP JUMPDEST PUSH1 0x0 PUSH2 0x28E8 PUSH1 0x23 DUP4 PUSH2 0x226D JUMP JUMPDEST SWAP2 POP PUSH2 0x28F3 DUP3 PUSH2 0x288C JUMP JUMPDEST PUSH1 0x40 DUP3 ADD SWAP1 POP SWAP2 SWAP1 POP JUMP JUMPDEST PUSH1 0x0 PUSH1 0x20 DUP3 ADD SWAP1 POP DUP2 DUP2 SUB PUSH1 0x0 DUP4 ADD MSTORE PUSH2 0x2917 DUP2 PUSH2 0x28DB JUMP JUMPDEST SWAP1 POP SWAP2 SWAP1 POP JUMP JUMPDEST PUSH32 0x496E76616C69642063616E646964617465204944000000000000000000000000 PUSH1 0x0 DUP3 ADD MSTORE POP JUMP JUMPDEST PUSH1 0x0 PUSH2 0x2954 PUSH1 0x14 DUP4 PUSH2 0x226D JUMP JUMPDEST SWAP2 POP PUSH2 0x295F DUP3 PUSH2 0x291E JUMP JUMPDEST PUSH1 0x20 DUP3 ADD SWAP1 POP SWAP2 SWAP1 POP JUMP JUMPDEST PUSH1 0x0 PUSH1 0x20 DUP3 ADD SWAP1 POP DUP2 DUP2 SUB PUSH1 0x0 DUP4 ADD MSTORE PUSH2 0x2983 DUP2 PUSH2 0x2947 JUMP JUMPDEST SWAP1 POP SWAP2 SWAP1 POP JUMP JUMPDEST PUSH1 0x0 DUP2 SWAP1 POP SWAP2 SWAP1 POP JUMP JUMPDEST PUSH2 0x29A5 PUSH2 0x29A0 DUP3 PUSH2 0x1FB1 JUMP JUMPDEST PUSH2 0x298A JUMP JUMPDEST DUP3 MSTORE POP POP JUMP JUMPDEST PUSH1 0x0 PUSH2 0x29B7 DUP3 DUP6 PUSH2 0x2994 JUMP JUMPDEST PUSH1 0x20 DUP3 ADD SWAP2 POP PUSH2 0x29C7 DUP3 DUP5 PUSH2 0x2994 JUMP JUMPDEST PUSH1 0x20 DUP3 ADD SWAP2 POP DUP2 SWAP1 POP SWAP4 SWAP3 POP POP POP JUMP JUMPDEST PUSH32 0x496E76616C69642072657665616C202D2068617368206D69736D617463680000 PUSH1 0x0 DUP3 ADD MSTORE POP JUMP JUMPDEST PUSH1 0x0 PUSH2 0x2A0D PUSH1 0x1E DUP4 PUSH2 0x226D JUMP JUMPDEST SWAP2 POP PUSH2 0x2A18 DUP3 PUSH2 0x29D7 JUMP JUMPDEST PUSH1 0x20 DUP3 ADD SWAP1 POP SWAP2 SWAP1 POP JUMP JUMPDEST PUSH1 0x0 PUSH1 0x20 DUP3 ADD SWAP1 POP DUP2 DUP2 SUB PUSH1 0x0 DUP4 ADD MSTORE PUSH2 0x2A3C DUP2 PUSH2 0x2A00 JUMP JUMPDEST SWAP1 POP SWAP2 SWAP1 POP JUMP JUMPDEST PUSH32 0x4E487B7100000000000000000000000000000000000000000000000000000000 PUSH1 0x0 MSTORE PUSH1 0x11 PUSH1 0x4 MSTORE PUSH1 0x24 PUSH1 0x0 REVERT JUMPDEST PUSH1 0x0 PUSH2 0x2A7D DUP3 PUSH2 0x1FB1 JUMP JUMPDEST SWAP2 POP PUSH32 0xFFFFFFFFFFFFFFFFFFFFFFFFFFFFFFFFFFFFFFFFFFFFFFFFFFFFFFFFFFFFFFFF DUP3 SUB PUSH2 0x2AAF JUMPI PUSH2 0x2AAE PUSH2 0x2A43 JUMP JUMPDEST JUMPDEST PUSH1 0x1 DUP3 ADD SWAP1 POP SWAP2 SWAP1 POP JUMP JUMPDEST PUSH32 0x4E487B7100000000000000000000000000000000000000000000000000000000 PUSH1 0x0 MSTORE PUSH1 0x22 PUSH1 0x4 MSTORE PUSH1 0x24 PUSH1 0x0 REVERT JUMPDEST PUSH1 0x0 PUSH1 0x2 DUP3 DIV SWAP1 POP PUSH1 0x1 DUP3 AND DUP1 PUSH2 0x2B01 JUMPI PUSH1 0x7F DUP3 AND SWAP2 POP JUMPDEST PUSH1 0x20 DUP3 LT DUP2 SUB PUSH2 0x2B14 JUMPI PUSH2 0x2B13 PUSH2 0x2ABA JUMP JUMPDEST JUMPDEST POP SWAP2 SWAP1 POP JUMP JUMPDEST PUSH1 0x0 PUSH2 0x2B25 DUP3 PUSH2 0x1FB1 JUMP JUMPDEST SWAP2 POP PUSH2 0x2B30 DUP4 PUSH2 0x1FB1 JUMP JUMPDEST SWAP3 POP DUP3 DUP3 SUB SWAP1 POP DUP2 DUP2 GT ISZERO PUSH2 0x2B48 JUMPI PUSH2 0x2B47 PUSH2 0x2A43 JUMP JUMPDEST JUMPDEST SWAP3 SWAP2 POP POP JUMP JUMPDEST PUSH32 0x4E487B7100000000000000000000000000000000000000000000000000000000 PUSH1 0x0 MSTORE PUSH1 0x32 PUSH1 0x4 MSTORE PUSH1 0x24 PUSH1 0x0 REVERT JUMPDEST PUSH32 0x4F6E6C792061646D696E2063616E2063616C6C20746869732066756E6374696F PUSH1 0x0 DUP3 ADD MSTORE PUSH32 0x6E00000000000000000000000000000000000000000000000000000000000000 PUSH1 0x20 DUP3 ADD MSTORE POP JUMP JUMPDEST PUSH1 0x0 PUSH2 0x2BD9 PUSH1 0x21 DUP4 PUSH2 0x226D JUMP JUMPDEST SWAP2 POP PUSH2 0x2BE4 DUP3 PUSH2 0x2B7D JUMP JUMPDEST PUSH1 0x40 DUP3 ADD SWAP1 POP SWAP2 SWAP1 POP JUMP JUMPDEST PUSH1 0x0 PUSH1 0x20 DUP3 ADD SWAP1 POP DUP2 DUP2 SUB PUSH1 0x0 DUP4 ADD MSTORE PUSH2 0x2C08 DUP2 PUSH2 0x2BCC JUMP JUMPDEST SWAP1 POP SWAP2 SWAP1 POP JUMP JUMPDEST PUSH32 0x566F74657220616C726561647920726567697374657265640000000000000000 PUSH1 0x0 DUP3 ADD MSTORE POP JUMP JUMPDEST PUSH1 0x0 PUSH2 0x2C45 PUSH1 0x18 DUP4 PUSH2 0x226D JUMP JUMPDEST SWAP2 POP PUSH2 0x2C50 DUP3 PUSH2 0x2C0F JUMP JUMPDEST PUSH1 0x20 DUP3 ADD SWAP1 POP SWAP2 SWAP1 POP JUMP JUMPDEST PUSH1 0x0 PUSH1 0x20 DUP3 ADD SWAP1 POP DUP2 DUP2 SUB PUSH1 0x0 DUP4 ADD MSTORE PUSH2 0x2C74 DUP2 PUSH2 0x2C38 JUMP JUMPDEST SWAP1 POP SWAP2 SWAP1 POP JUMP JUMPDEST PUSH32 0x596F75206861766520616C726561647920636F6D6D697474656420796F757220 PUSH1 0x0 DUP3 ADD MSTORE PUSH32 0x766F746500000000000000000000000000000000000000000000000000000000 PUSH1 0x20 DUP3 ADD MSTORE POP JUMP JUMPDEST PUSH1 0x0 PUSH2 0x2CD7 PUSH1 0x24 DUP4 PUSH2 0x226D JUMP JUMPDEST SWAP2 POP PUSH2 0x2CE2 DUP3 PUSH2 0x2C7B JUMP JUMPDEST PUSH1 0x40 DUP3 ADD SWAP1 POP SWAP2 SWAP1 POP JUMP JUMPDEST PUSH1 0x0 PUSH1 0x20 DUP3 ADD SWAP1 POP DUP2 DUP2 SUB PUSH1 0x0 DUP4 ADD MSTORE PUSH2 0x2D06 DUP2 PUSH2 0x2CCA JUMP JUMPDEST SWAP1 POP SWAP2 SWAP1 POP JUMP JUMPDEST PUSH1 0x0 DUP2 SWAP1 POP DUP2 PUSH1 0x0 MSTORE PUSH1 0x20 PUSH1 0x0 KECCAK256 SWAP1 POP SWAP2 SWAP1 POP JUMP JUMPDEST PUSH1 0x0 PUSH1 0x20 PUSH1 0x1F DUP4 ADD DIV SWAP1 POP SWAP2 SWAP1 POP JUMP JUMPDEST PUSH1 0x0 DUP3 DUP3 SHL SWAP1 POP SWAP3 SWAP2 POP POP JUMP JUMPDEST PUSH1 0x0 PUSH1 0x8 DUP4 MUL PUSH2 0x2D6F PUSH32 0xFFFFFFFFFFFFFFFFFFFFFFFFFFFFFFFFFFFFFFFFFFFFFFFFFFFFFFFFFFFFFFFF DUP3 PUSH2 0x2D32 JUMP JUMPDEST PUSH2 0x2D79 DUP7 DUP4 PUSH2 0x2D32 JUMP JUMPDEST SWAP6 POP DUP1 NOT DUP5 AND SWAP4 POP DUP1 DUP7 AND DUP5 OR SWAP3 POP POP POP SWAP4 SWAP3 POP POP POP JUMP JUMPDEST PUSH1 0x0 DUP2 SWAP1 POP SWAP2 SWAP1 POP JUMP JUMPDEST PUSH1 0x0 PUSH2 0x2DB6 PUSH2 0x2DB1 PUSH2 0x2DAC DUP5 PUSH2 0x1FB1 JUMP JUMPDEST PUSH2 0x2D91 JUMP JUMPDEST PUSH2 0x1FB1 JUMP JUMPDEST SWAP1 POP SWAP2 SWAP1 POP JUMP JUMPDEST PUSH1 0x0 DUP2 SWAP1 POP SWAP2 SWAP1 POP JUMP JUMPDEST PUSH2 0x2DD0 DUP4 PUSH2 0x2D9B JUMP JUMPDEST PUSH2 0x2DE4 PUSH2 0x2DDC DUP3 PUSH2 0x2DBD JUMP JUMPDEST DUP5 DUP5 SLOAD PUSH2 0x2D3F JUMP JUMPDEST DUP3 SSTORE POP POP POP POP JUMP JUMPDEST PUSH1 0x0 SWAP1 JUMP JUMPDEST PUSH2 0x2DF9 PUSH2 0x2DEC JUMP JUMPDEST PUSH2 0x2E04 DUP2 DUP5 DUP5 PUSH2 0x2DC7 JUMP JUMPDEST POP POP POP JUMP JUMPDEST JUMPDEST DUP2 DUP2 LT ISZERO PUSH2 0x2E28 JUMPI PUSH2 0x2E1D PUSH1 0x0 DUP3 PUSH2 0x2DF1 JUMP JUMPDEST PUSH1 0x1 DUP2 ADD SWAP1 POP PUSH2 0x2E0A JUMP JUMPDEST POP POP JUMP JUMPDEST PUSH1 0x1F DUP3 GT ISZERO PUSH2 0x2E6D JUMPI PUSH2 0x2E3E DUP2 PUSH2 0x2D0D JUMP JUMPDEST PUSH2 0x2E47 DUP5 PUSH2 0x2D22 JUMP JUMPDEST DUP2 ADD PUSH1 0x20 DUP6 LT ISZERO PUSH2 0x2E56 JUMPI DUP2 SWAP1 POP JUMPDEST PUSH2 0x2E6A PUSH2 0x2E62 DUP6 PUSH2 0x2D22 JUMP JUMPDEST DUP4 ADD DUP3 PUSH2 0x2E09 JUMP JUMPDEST POP POP JUMPDEST POP POP POP JUMP JUMPDEST PUSH1 0x0 DUP3 DUP3 SHR SWAP1 POP SWAP3 SWAP2 POP POP JUMP JUMPDEST PUSH1 0x0 PUSH2 0x2E90 PUSH1 0x0 NOT DUP5 PUSH1 0x8 MUL PUSH2 0x2E72 JUMP JUMPDEST NOT DUP1 DUP4 AND SWAP2 POP POP SWAP3 SWAP2 POP POP JUMP JUMPDEST PUSH1 0x0 PUSH2 0x2EA9 DUP4 DUP4 PUSH2 0x2E7F JUMP JUMPDEST SWAP2 POP DUP3 PUSH1 0x2 MUL DUP3 OR SWAP1 POP SWAP3 SWAP2 POP POP JUMP JUMPDEST PUSH2 0x2EC2 DUP3 PUSH2 0x20A8 JUMP JUMPDEST PUSH8 0xFFFFFFFFFFFFFFFF DUP2 GT ISZERO PUSH2 0x2EDB JUMPI PUSH2 0x2EDA PUSH2 0x238E JUMP JUMPDEST JUMPDEST PUSH2 0x2EE5 DUP3 SLOAD PUSH2 0x2AE9 JUMP JUMPDEST PUSH2 0x2EF0 DUP3 DUP3 DUP6 PUSH2 0x2E2C JUMP JUMPDEST PUSH1 0x0 PUSH1 0x20 SWAP1 POP PUSH1 0x1F DUP4 GT PUSH1 0x1 DUP2 EQ PUSH2 0x2F23 JUMPI PUSH1 0x0 DUP5 ISZERO PUSH2 0x2F11 JUMPI DUP3 DUP8 ADD MLOAD SWAP1 POP JUMPDEST PUSH2 0x2F1B DUP6 DUP3 PUSH2 0x2E9D JUMP JUMPDEST DUP7 SSTORE POP PUSH2 0x2F83 JUMP JUMPDEST PUSH1 0x1F NOT DUP5 AND PUSH2 0x2F31 DUP7 PUSH2 0x2D0D JUMP JUMPDEST PUSH1 0x0 JUMPDEST DUP3 DUP2 LT ISZERO PUSH2 0x2F59 JUMPI DUP5 DUP10 ADD MLOAD DUP3 SSTORE PUSH1 0x1 DUP3 ADD SWAP2 POP PUSH1 0x20 DUP6 ADD SWAP5 POP PUSH1 0x20 DUP2 ADD SWAP1 POP PUSH2 0x2F34 JUMP JUMPDEST DUP7 DUP4 LT ISZERO PUSH2 0x2F76 JUMPI DUP5 DUP10 ADD MLOAD PUSH2 0x2F72 PUSH1 0x1F DUP10 AND DUP3 PUSH2 0x2E7F JUMP JUMPDEST DUP4 SSTORE POP JUMPDEST PUSH1 0x1 PUSH1 0x2 DUP9 MUL ADD DUP9 SSTORE POP POP POP JUMPDEST POP POP POP POP POP POP JUMP JUMPDEST PUSH1 0x0 PUSH1 0x20 DUP3 ADD SWAP1 POP DUP2 DUP2 SUB PUSH1 0x0 DUP4 ADD MSTORE PUSH2 0x2FA5 DUP2 DUP5 PUSH2 0x227E JUMP JUMPDEST SWAP1 POP SWAP3 SWAP2 POP POP JUMP JUMPDEST PUSH32 0x4E6F2063616E6469646174657320617661696C61626C65000000000000000000 PUSH1 0x0 DUP3 ADD MSTORE POP JUMP JUMPDEST PUSH1 0x0 PUSH2 0x2FE3 PUSH1 0x17 DUP4 PUSH2 0x226D JUMP JUMPDEST SWAP2 POP PUSH2 0x2FEE DUP3 PUSH2 0x2FAD JUMP JUMPDEST PUSH1 0x20 DUP3 ADD SWAP1 POP SWAP2 SWAP1 POP JUMP JUMPDEST PUSH1 0x0 PUSH1 0x20 DUP3 ADD SWAP1 POP DUP2 DUP2 SUB PUSH1 0x0 DUP4 ADD MSTORE PUSH2 0x3012 DUP2 PUSH2 0x2FD6 JUMP JUMPDEST SWAP1 POP SWAP2 SWAP1 POP JUMP JUMPDEST PUSH32 0x456C656374696F6E20697320616C72656164792066696E697368656400000000 PUSH1 0x0 DUP3 ADD MSTORE POP JUMP JUMPDEST PUSH1 0x0 PUSH2 0x304F PUSH1 0x1C DUP4 PUSH2 0x226D JUMP JUMPDEST SWAP2 POP PUSH2 0x305A DUP3 PUSH2 0x3019 JUMP JUMPDEST PUSH1 0x20 DUP3 ADD SWAP1 POP SWAP2 SWAP1 POP JUMP JUMPDEST PUSH1 0x0 PUSH1 0x20 DUP3 ADD SWAP1 POP DUP2 DUP2 SUB PUSH1 0x0 DUP4 ADD MSTORE PUSH2 0x307E DUP2 PUSH2 0x3042 JUMP JUMPDEST SWAP1 POP SWAP2 SWAP1 POP JUMP JUMPDEST PUSH32 0x4174206C65617374206F6E652063616E646964617465206D7573742062652061 PUSH1 0x0 DUP3 ADD MSTORE PUSH32 0x6464656400000000000000000000000000000000000000000000000000000000 PUSH1 0x20 DUP3 ADD MSTORE POP JUMP JUMPDEST PUSH1 0x0 PUSH2 0x30E1 PUSH1 0x24 DUP4 PUSH2 0x226D JUMP JUMPDEST SWAP2 POP PUSH2 0x30EC DUP3 PUSH2 0x3085 JUMP JUMPDEST PUSH1 0x40 DUP3 ADD SWAP1 POP SWAP2 SWAP1 POP JUMP JUMPDEST PUSH1 0x0 PUSH1 0x20 DUP3 ADD SWAP1 POP DUP2 DUP2 SUB PUSH1 0x0 DUP4 ADD MSTORE PUSH2 0x3110 DUP2 PUSH2 0x30D4 JUMP JUMPDEST SWAP1 POP SWAP2 SWAP1 POP JUMP JUMPDEST PUSH32 0x4174206C65617374206F6E6520766F746572206D757374206265207265676973 PUSH1 0x0 DUP3 ADD MSTORE PUSH32 0x7465726564000000000000000000000000000000000000000000000000000000 PUSH1 0x20 DUP3 ADD MSTORE POP JUMP JUMPDEST PUSH1 0x0 PUSH2 0x3173 PUSH1 0x25 DUP4 PUSH2 0x226D JUMP JUMPDEST SWAP2 POP PUSH2 0x317E DUP3 PUSH2 0x3117 JUMP JUMPDEST PUSH1 0x40 DUP3 ADD SWAP1 POP SWAP2 SWAP1 POP JUMP JUMPDEST PUSH1 0x0 PUSH1 0x20 DUP3 ADD SWAP1 POP DUP2 DUP2 SUB PUSH1 0x0 DUP4 ADD MSTORE PUSH2 0x31A2 DUP2 PUSH2 0x3166 JUMP JUMPDEST SWAP1 POP SWAP2 SWAP1 POP JUMP JUMPDEST PUSH32 0x43616E206F6E6C7920726573657420616674657220656C656374696F6E206973 PUSH1 0x0 DUP3 ADD MSTORE PUSH32 0x2066696E69736865640000000000000000000000000000000000000000000000 PUSH1 0x20 DUP3 ADD MSTORE POP JUMP JUMPDEST PUSH1 0x0 PUSH2 0x3205 PUSH1 0x29 DUP4 PUSH2 0x226D JUMP JUMPDEST SWAP2 POP PUSH2 0x3210 DUP3 PUSH2 0x31A9 JUMP JUMPDEST PUSH1 0x40 DUP3 ADD SWAP1 POP SWAP2 SWAP1 POP JUMP JUMPDEST PUSH1 0x0 PUSH1 0x20 DUP3 ADD SWAP1 POP DUP2 DUP2 SUB PUSH1 0x0 DUP4 ADD MSTORE PUSH2 0x3234 DUP2 PUSH2 0x31F8 JUMP JUMPDEST SWAP1 POP SWAP2 SWAP1 POP JUMP INVALID LOG2 PUSH5 0x6970667358 0x22 SLT KECCAK256 DUP5 MUL 0xDB PUSH8 0xEDD8FFDCE9A90EF5 0x4F 0x24 0xE3 PUSH7 0xCC0B679B6FA014 PUSH29 0xBEA43BC3A58D2AD64736F6C6343000813003300000000000000000000 "},"methodIdentifiers":{"addCandidate(string)":"462e91ec","admin()":"f851a440","advanceStage()":"c33f48fd","candidateCount()":"a9a981a3","candidates(uint256)":"3477ee2e","commitVote(bytes32)":"3e858923","commits(address)":"7b43a8e6","currentStage()":"5bf5d54c","generateCommitHash(uint256,uint256)":"369ffdf9","getAllCandidates()":"2e6997fe","getCandidate(uint256)":"35b8e820","getElectionStats()":"906ad2a9","getVoterCommit(address)":"0d5ca930","getWinner()":"8e7ea5b2","hasVoterCommitted(address)":"d5bae5b6","hasVoterRevealed(address)":"035fbe11","isVoterRegistered(address)":"eb2119db","registerMultipleVoters(address[])":"f225c1f8","registerVoter(address)":"38db6dd3","registeredVoters(address)":"a9ff6df1","resetElection()":"e8f30523","revealVote(uint256,uint256)":"27846c8d","totalCommits()":"44d6ee2b","totalRevealed()":"f3738569","voterCount()":"42169e48"}}}}}