{
  "_format": "hh-sol-artifact-1",
  "contractName": "CommitRevealElection",
  "sourceName": "contracts/CommitRevealElection.sol",
  "abi": [
    {
      "inputs": [],
      "stateMutability": "nonpayable",
      "type": "constructor"
    },
    {
      "anonymous": false,
      "inputs": [
        {
          "indexed": true,
          "internalType": "uint256",
          "name": "candidateId",
          "type": "uint256"
        },
        {
          "indexed": false,
          "internalType": "string",
          "name": "name",
          "type": "string"
        }
      ],
      "name": "CandidateAdded",
      "type": "event"
    },
    {
      "anonymous": false,
      "inputs": [
        {
          "indexed": true,
          "internalType": "address",
          "name": "voter",
          "type": "address"
        },
        {
          "indexed": false,
          "internalType": "uint256",
          "name": "amount",
          "type": "uint256"
        }
      ],
      "name": "DepositForfeited",
      "type": "event"
    },
    {
      "anonymous": false,
      "inputs": [
        {
          "indexed": true,
          "internalType": "address",
          "name": "voter",
          "type": "address"
        },
        {
          "indexed": false,
          "internalType": "uint256",
          "name": "amount",
          "type": "uint256"
        }
      ],
      "name": "DepositRefunded",
      "type": "event"
    },
    {
      "anonymous": false,
      "inputs": [
        {
          "indexed": true,
          "internalType": "uint256",
          "name": "electionId",
          "type": "uint256"
        },
        {
          "indexed": false,
          "internalType": "uint256",
          "name": "timestamp",
          "type": "uint256"
        }
      ],
      "name": "ElectionReset",
      "type": "event"
    },
    {
      "anonymous": false,
      "inputs": [
        {
          "indexed": false,
          "internalType": "uint256",
          "name": "timestamp",
          "type": "uint256"
        }
      ],
      "name": "ElectionResetRequested",
      "type": "event"
    },
    {
      "anonymous": false,
      "inputs": [
        {
          "indexed": false,
          "internalType": "enum CommitRevealElection.Stage",
          "name": "newStage",
          "type": "uint8"
        }
      ],
      "name": "StageChanged",
      "type": "event"
    },
    {
      "anonymous": false,
      "inputs": [
        {
          "indexed": true,
          "internalType": "address",
          "name": "voter",
          "type": "address"
        },
        {
          "indexed": false,
          "internalType": "bytes32",
          "name": "commitHash",
          "type": "bytes32"
        },
        {
          "indexed": false,
          "internalType": "uint256",
          "name": "depositAmount",
          "type": "uint256"
        }
      ],
      "name": "VoteCommitted",
      "type": "event"
    },
    {
      "anonymous": false,
      "inputs": [
        {
          "indexed": true,
          "internalType": "address",
          "name": "voter",
          "type": "address"
        },
        {
          "indexed": false,
          "internalType": "uint256",
          "name": "candidateId",
          "type": "uint256"
        },
        {
          "indexed": false,
          "internalType": "uint256",
          "name": "refundAmount",
          "type": "uint256"
        }
      ],
      "name": "VoteRevealed",
      "type": "event"
    },
    {
      "anonymous": false,
      "inputs": [
        {
          "indexed": true,
          "internalType": "address",
          "name": "voter",
          "type": "address"
        }
      ],
      "name": "VoterRegistered",
      "type": "event"
    },
    {
      "inputs": [],
      "name": "MIN_DEPOSIT",
      "outputs": [
        {
          "internalType": "uint256",
          "name": "",
          "type": "uint256"
        }
      ],
      "stateMutability": "view",
      "type": "function"
    },
    {
      "inputs": [],
      "name": "RESET_COOLDOWN",
      "outputs": [
        {
          "internalType": "uint256",
          "name": "",
          "type": "uint256"
        }
      ],
      "stateMutability": "view",
      "type": "function"
    },
    {
      "inputs": [
        {
          "internalType": "string",
          "name": "_name",
          "type": "string"
        }
      ],
      "name": "addCandidate",
      "outputs": [],
      "stateMutability": "nonpayable",
      "type": "function"
    },
    {
      "inputs": [
        {
          "internalType": "string[]",
          "name": "_names",
          "type": "string[]"
        }
      ],
      "name": "addMultipleCandidates",
      "outputs": [],
      "stateMutability": "nonpayable",
      "type": "function"
    },
    {
      "inputs": [],
      "name": "admin",
      "outputs": [
        {
          "internalType": "address",
          "name": "",
          "type": "address"
        }
      ],
      "stateMutability": "view",
      "type": "function"
    },
    {
      "inputs": [],
      "name": "advanceStage",
      "outputs": [],
      "stateMutability": "nonpayable",
      "type": "function"
    },
    {
      "inputs": [],
      "name": "candidateCount",
      "outputs": [
        {
          "internalType": "uint256",
          "name": "",
          "type": "uint256"
        }
      ],
      "stateMutability": "view",
      "type": "function"
    },
    {
      "inputs": [
        {
          "internalType": "uint256",
          "name": "",
          "type": "uint256"
        }
      ],
      "name": "candidates",
      "outputs": [
        {
          "internalType": "uint256",
          "name": "id",
          "type": "uint256"
        },
        {
          "internalType": "string",
          "name": "name",
          "type": "string"
        },
        {
          "internalType": "uint256",
          "name": "voteCount",
          "type": "uint256"
        }
      ],
      "stateMutability": "view",
      "type": "function"
    },
    {
      "inputs": [
        {
          "internalType": "bytes32",
          "name": "_commitHash",
          "type": "bytes32"
        }
      ],
      "name": "commitVote",
      "outputs": [],
      "stateMutability": "payable",
      "type": "function"
    },
    {
      "inputs": [
        {
          "internalType": "address",
          "name": "",
          "type": "address"
        }
      ],
      "name": "commits",
      "outputs": [
        {
          "internalType": "bytes32",
          "name": "commitHash",
          "type": "bytes32"
        },
        {
          "internalType": "bool",
          "name": "revealed",
          "type": "bool"
        },
        {
          "internalType": "uint256",
          "name": "candidateId",
          "type": "uint256"
        },
        {
          "internalType": "uint256",
          "name": "depositAmount",
          "type": "uint256"
        }
      ],
      "stateMutability": "view",
      "type": "function"
    },
    {
      "inputs": [],
      "name": "currentStage",
      "outputs": [
        {
          "internalType": "enum CommitRevealElection.Stage",
          "name": "",
          "type": "uint8"
        }
      ],
      "stateMutability": "view",
      "type": "function"
    },
    {
      "inputs": [],
      "name": "electionId",
      "outputs": [
        {
          "internalType": "uint256",
          "name": "",
          "type": "uint256"
        }
      ],
      "stateMutability": "view",
      "type": "function"
    },
    {
      "inputs": [
        {
          "internalType": "uint256",
          "name": "",
          "type": "uint256"
        }
      ],
      "name": "elections",
      "outputs": [
        {
          "internalType": "uint256",
          "name": "electionId",
          "type": "uint256"
        },
        {
          "internalType": "uint256",
          "name": "candidateCount",
          "type": "uint256"
        },
        {
          "internalType": "uint256",
          "name": "voterCount",
          "type": "uint256"
        },
        {
          "internalType": "uint256",
          "name": "totalCommits",
          "type": "uint256"
        },
        {
          "internalType": "uint256",
          "name": "totalRevealed",
          "type": "uint256"
        },
        {
          "internalType": "uint256",
          "name": "winnerId",
          "type": "uint256"
        },
        {
          "internalType": "string",
          "name": "winnerName",
          "type": "string"
        },
        {
          "internalType": "uint256",
          "name": "winnerVotes",
          "type": "uint256"
        },
        {
          "internalType": "uint256",
          "name": "timestamp",
          "type": "uint256"
        }
      ],
      "stateMutability": "view",
      "type": "function"
    },
    {
      "inputs": [],
      "name": "executeElectionReset",
      "outputs": [],
      "stateMutability": "nonpayable",
      "type": "function"
    },
    {
      "inputs": [],
      "name": "forfeitUnrevealedDeposits",
      "outputs": [],
      "stateMutability": "nonpayable",
      "type": "function"
    },
    {
      "inputs": [
        {
          "internalType": "uint256",
          "name": "_candidateId",
          "type": "uint256"
        },
        {
          "internalType": "uint256",
          "name": "_secret",
          "type": "uint256"
        }
      ],
      "name": "generateCommitHash",
      "outputs": [
        {
          "internalType": "bytes32",
          "name": "",
          "type": "bytes32"
        }
      ],
      "stateMutability": "pure",
      "type": "function"
    },
    {
      "inputs": [],
      "name": "getAllCandidates",
      "outputs": [
        {
          "components": [
            {
              "internalType": "uint256",
              "name": "id",
              "type": "uint256"
            },
            {
              "internalType": "string",
              "name": "name",
              "type": "string"
            },
            {
              "internalType": "uint256",
              "name": "voteCount",
              "type": "uint256"
            }
          ],
          "internalType": "struct CommitRevealElection.Candidate[]",
          "name": "",
          "type": "tuple[]"
        }
      ],
      "stateMutability": "view",
      "type": "function"
    },
    {
      "inputs": [
        {
          "internalType": "uint256",
          "name": "_candidateId",
          "type": "uint256"
        }
      ],
      "name": "getCandidate",
      "outputs": [
        {
          "internalType": "uint256",
          "name": "",
          "type": "uint256"
        },
        {
          "internalType": "string",
          "name": "",
          "type": "string"
        },
        {
          "internalType": "uint256",
          "name": "",
          "type": "uint256"
        }
      ],
      "stateMutability": "view",
      "type": "function"
    },
    {
      "inputs": [
        {
          "internalType": "uint256",
          "name": "_electionId",
          "type": "uint256"
        }
      ],
      "name": "getElectionHistory",
      "outputs": [
        {
          "components": [
            {
              "internalType": "uint256",
              "name": "electionId",
              "type": "uint256"
            },
            {
              "internalType": "uint256",
              "name": "candidateCount",
              "type": "uint256"
            },
            {
              "internalType": "uint256",
              "name": "voterCount",
              "type": "uint256"
            },
            {
              "internalType": "uint256",
              "name": "totalCommits",
              "type": "uint256"
            },
            {
              "internalType": "uint256",
              "name": "totalRevealed",
              "type": "uint256"
            },
            {
              "internalType": "uint256",
              "name": "winnerId",
              "type": "uint256"
            },
            {
              "internalType": "string",
              "name": "winnerName",
              "type": "string"
            },
            {
              "internalType": "uint256",
              "name": "winnerVotes",
              "type": "uint256"
            },
            {
              "internalType": "uint256",
              "name": "timestamp",
              "type": "uint256"
            }
          ],
          "internalType": "struct CommitRevealElection.Election",
          "name": "",
          "type": "tuple"
        }
      ],
      "stateMutability": "view",
      "type": "function"
    },
    {
      "inputs": [],
      "name": "getElectionStats",
      "outputs": [
        {
          "internalType": "uint256",
          "name": "",
          "type": "uint256"
        },
        {
          "internalType": "uint256",
          "name": "",
          "type": "uint256"
        },
        {
          "internalType": "uint256",
          "name": "",
          "type": "uint256"
        },
        {
          "internalType": "uint256",
          "name": "",
          "type": "uint256"
        },
        {
          "internalType": "enum CommitRevealElection.Stage",
          "name": "",
          "type": "uint8"
        }
      ],
      "stateMutability": "view",
      "type": "function"
    },
    {
      "inputs": [],
      "name": "getResetCooldownRemaining",
      "outputs": [
        {
          "internalType": "uint256",
          "name": "",
          "type": "uint256"
        }
      ],
      "stateMutability": "view",
      "type": "function"
    },
    {
      "inputs": [],
      "name": "getUnrevealedVoters",
      "outputs": [
        {
          "internalType": "address[]",
          "name": "",
          "type": "address[]"
        }
      ],
      "stateMutability": "view",
      "type": "function"
    },
    {
      "inputs": [
        {
          "internalType": "address",
          "name": "_voter",
          "type": "address"
        }
      ],
      "name": "getVoterCommit",
      "outputs": [
        {
          "internalType": "bytes32",
          "name": "",
          "type": "bytes32"
        },
        {
          "internalType": "bool",
          "name": "",
          "type": "bool"
        },
        {
          "internalType": "uint256",
          "name": "",
          "type": "uint256"
        }
      ],
      "stateMutability": "view",
      "type": "function"
    },
    {
      "inputs": [
        {
          "internalType": "address",
          "name": "_voter",
          "type": "address"
        }
      ],
      "name": "getVoterDeposit",
      "outputs": [
        {
          "internalType": "uint256",
          "name": "",
          "type": "uint256"
        }
      ],
      "stateMutability": "view",
      "type": "function"
    },
    {
      "inputs": [],
      "name": "getWinner",
      "outputs": [
        {
          "internalType": "uint256",
          "name": "",
          "type": "uint256"
        },
        {
          "internalType": "string",
          "name": "",
          "type": "string"
        },
        {
          "internalType": "uint256",
          "name": "",
          "type": "uint256"
        }
      ],
      "stateMutability": "view",
      "type": "function"
    },
    {
      "inputs": [
        {
          "internalType": "address",
          "name": "_voter",
          "type": "address"
        }
      ],
      "name": "hasVoterCommitted",
      "outputs": [
        {
          "internalType": "bool",
          "name": "",
          "type": "bool"
        }
      ],
      "stateMutability": "view",
      "type": "function"
    },
    {
      "inputs": [
        {
          "internalType": "address",
          "name": "_voter",
          "type": "address"
        }
      ],
      "name": "hasVoterRevealed",
      "outputs": [
        {
          "internalType": "bool",
          "name": "",
          "type": "bool"
        }
      ],
      "stateMutability": "view",
      "type": "function"
    },
    {
      "inputs": [
        {
          "internalType": "address",
          "name": "_voter",
          "type": "address"
        }
      ],
      "name": "isVoterRegistered",
      "outputs": [
        {
          "internalType": "bool",
          "name": "",
          "type": "bool"
        }
      ],
      "stateMutability": "view",
      "type": "function"
    },
    {
      "inputs": [
        {
          "internalType": "address[]",
          "name": "_voters",
          "type": "address[]"
        }
      ],
      "name": "registerMultipleVoters",
      "outputs": [],
      "stateMutability": "nonpayable",
      "type": "function"
    },
    {
      "inputs": [
        {
          "internalType": "address",
          "name": "_voter",
          "type": "address"
        }
      ],
      "name": "registerVoter",
      "outputs": [],
      "stateMutability": "nonpayable",
      "type": "function"
    },
    {
      "inputs": [
        {
          "internalType": "address",
          "name": "",
          "type": "address"
        }
      ],
      "name": "registeredVoters",
      "outputs": [
        {
          "internalType": "bool",
          "name": "",
          "type": "bool"
        }
      ],
      "stateMutability": "view",
      "type": "function"
    },
    {
      "inputs": [],
      "name": "requestElectionReset",
      "outputs": [],
      "stateMutability": "nonpayable",
      "type": "function"
    },
    {
      "inputs": [],
      "name": "resetRequestTime",
      "outputs": [
        {
          "internalType": "uint256",
          "name": "",
          "type": "uint256"
        }
      ],
      "stateMutability": "view",
      "type": "function"
    },
    {
      "inputs": [
        {
          "internalType": "uint256",
          "name": "_candidateId",
          "type": "uint256"
        },
        {
          "internalType": "uint256",
          "name": "_secret",
          "type": "uint256"
        }
      ],
      "name": "revealVote",
      "outputs": [],
      "stateMutability": "nonpayable",
      "type": "function"
    },
    {
      "inputs": [],
      "name": "totalCommits",
      "outputs": [
        {
          "internalType": "uint256",
          "name": "",
          "type": "uint256"
        }
      ],
      "stateMutability": "view",
      "type": "function"
    },
    {
      "inputs": [],
      "name": "totalRevealed",
      "outputs": [
        {
          "internalType": "uint256",
          "name": "",
          "type": "uint256"
        }
      ],
      "stateMutability": "view",
      "type": "function"
    },
    {
      "inputs": [],
      "name": "voterCount",
      "outputs": [
        {
          "internalType": "uint256",
          "name": "",
          "type": "uint256"
        }
      ],
      "stateMutability": "view",
      "type": "function"
    },
    {
      "inputs": [],
      "name": "withdrawBalance",
      "outputs": [],
      "stateMutability": "nonpayable",
      "type": "function"
    }
  ],
  "bytecode": "0x60806040523480156200001157600080fd5b5073f39fd6e51aad88f6f4ce6ab8827279cfffb922666000806101000a81548173ffffffffffffffffffffffffffffffffffffffff021916908373ffffffffffffffffffffffffffffffffffffffff16021790555060008060146101000a81548160ff021916908360038111156200008e576200008d620000a1565b5b02179055506001600981905550620000d0565b7f4e487b7100000000000000000000000000000000000000000000000000000000600052602160045260246000fd5b614c3d80620000e06000396000f3fe6080604052600436106102255760003560e01c80635fd8c71011610123578063c33f48fd116100ab578063ef33ac641161006f578063ef33ac641461083f578063ef3e672414610868578063f225c1f81461087f578063f3738569146108a8578063f851a440146108d357610225565b8063c33f48fd14610758578063ca94f7871461076f578063d5bae5b61461079a578063e1e158a5146107d7578063eb2119db1461080257610225565b80638e7ea5b2116100f25780638e7ea5b214610657578063906ad2a914610684578063a42bf729146106b3578063a9a981a3146106f0578063a9ff6df11461071b57610225565b80635fd8c710146105ac57806362612edd146105c35780637b43a8e6146106005780638497326a1461064057610225565b806335b8e820116101b157806344d6ee2b1161017557806344d6ee2b146104bd578063462e91ec146104e857806354cabfb1146105115780635bf5d54c1461053c5780635e6fef011461056757610225565b806335b8e820146103d1578063369ffdf91461041057806338db6dd31461044d5780633e8589231461047657806342169e481461049257610225565b80631432e541116101f85780631432e541146102e85780631448bb181461031357806327846c8d1461033e5780632e6997fe146103675780633477ee2e1461039257610225565b8063011a9dcf1461022a578063035fbe1114610241578063051364d41461027e5780630d5ca930146102a9575b600080fd5b34801561023657600080fd5b5061023f6108fe565b005b34801561024d57600080fd5b5061026860048036038101906102639190613197565b610a41565b60405161027591906131df565b60405180910390f35b34801561028a57600080fd5b50610293610a9a565b6040516102a09190613213565b60405180910390f35b3480156102b557600080fd5b506102d060048036038101906102cb9190613197565b610aa0565b6040516102df93929190613247565b60405180910390f35b3480156102f457600080fd5b506102fd610b48565b60405161030a9190613213565b60405180910390f35b34801561031f57600080fd5b50610328610b4d565b604051610335919061333c565b60405180910390f35b34801561034a57600080fd5b506103656004803603810190610360919061338a565b610ba3565b005b34801561037357600080fd5b5061037c61112a565b604051610389919061357b565b60405180910390f35b34801561039e57600080fd5b506103b960048036038101906103b4919061359d565b61129f565b6040516103c893929190613614565b60405180910390f35b3480156103dd57600080fd5b506103f860048036038101906103f3919061359d565b611351565b60405161040793929190613614565b60405180910390f35b34801561041c57600080fd5b506104376004803603810190610432919061338a565b61148c565b6040516104449190613652565b60405180910390f35b34801561045957600080fd5b50610474600480360381019061046f9190613197565b6114bf565b005b610490600480360381019061048b9190613699565b611708565b005b34801561049e57600080fd5b506104a76119d6565b6040516104b49190613213565b60405180910390f35b3480156104c957600080fd5b506104d26119dc565b6040516104df9190613213565b60405180910390f35b3480156104f457600080fd5b5061050f600480360381019061050a91906137fb565b6119e2565b005b34801561051d57600080fd5b50610526611b9d565b6040516105339190613213565b60405180910390f35b34801561054857600080fd5b50610551611be8565b60405161055e91906138bb565b60405180910390f35b34801561057357600080fd5b5061058e6004803603810190610589919061359d565b611bfb565b6040516105a3999897969594939291906138d6565b60405180910390f35b3480156105b857600080fd5b506105c1611cd1565b005b3480156105cf57600080fd5b506105ea60048036038101906105e5919061359d565b611dc8565b6040516105f79190613a2f565b60405180910390f35b34801561060c57600080fd5b5061062760048036038101906106229190613197565b611ed8565b6040516106379493929190613a51565b60405180910390f35b34801561064c57600080fd5b50610655611f15565b005b34801561066357600080fd5b5061066c61201a565b60405161067b93929190613614565b60405180910390f35b34801561069057600080fd5b5061069961220f565b6040516106aa959493929190613a96565b60405180910390f35b3480156106bf57600080fd5b506106da60048036038101906106d59190613197565b612244565b6040516106e79190613213565b60405180910390f35b3480156106fc57600080fd5b50610705612290565b6040516107129190613213565b60405180910390f35b34801561072757600080fd5b50610742600480360381019061073d9190613197565b612296565b60405161074f91906131df565b60405180910390f35b34801561076457600080fd5b5061076d6122b6565b005b34801561077b57600080fd5b506107846125ca565b6040516107919190613213565b60405180910390f35b3480156107a657600080fd5b506107c160048036038101906107bc9190613197565b6125d0565b6040516107ce91906131df565b60405180910390f35b3480156107e357600080fd5b506107ec612622565b6040516107f99190613213565b60405180910390f35b34801561080e57600080fd5b5061082960048036038101906108249190613197565b61262d565b60405161083691906131df565b60405180910390f35b34801561084b57600080fd5b5061086660048036038101906108619190613bcf565b612683565b005b34801561087457600080fd5b5061087d61291b565b005b34801561088b57600080fd5b506108a660048036038101906108a19190613cdb565b612d4e565b005b3480156108b457600080fd5b506108bd61308e565b6040516108ca9190613213565b60405180910390f35b3480156108df57600080fd5b506108e8613094565b6040516108f59190613d33565b60405180910390f35b60008054906101000a900473ffffffffffffffffffffffffffffffffffffffff1673ffffffffffffffffffffffffffffffffffffffff163373ffffffffffffffffffffffffffffffffffffffff161461098c576040517f08c379a000000000000000000000000000000000000000000000000000000000815260040161098390613dc0565b60405180910390fd5b60038081111561099f5761099e613844565b5b600060149054906101000a900460ff1660038111156109c1576109c0613844565b5b14610a01576040517f08c379a00000000000000000000000000000000000000000000000000000000081526004016109f890613e52565b60405180910390fd5b42600a819055507f9876b19ae3968bff50e9b2fc36802e9f005fc5541b2b845e86ff17f6c5023dcb42604051610a379190613213565b60405180910390a1565b6000600360008373ffffffffffffffffffffffffffffffffffffffff1673ffffffffffffffffffffffffffffffffffffffff16815260200190815260200160002060010160009054906101000a900460ff169050919050565b60095481565b600080600080600360008673ffffffffffffffffffffffffffffffffffffffff1673ffffffffffffffffffffffffffffffffffffffff168152602001908152602001600020604051806080016040529081600082015481526020016001820160009054906101000a900460ff16151515158152602001600282015481526020016003820154815250509050806000015181602001518260400151935093509350509193909250565b603c81565b606060008067ffffffffffffffff811115610b6b57610b6a6136d0565b5b604051908082528060200260200182016040528015610b995781602001602082028036833780820191505090505b5090508091505090565b600260003373ffffffffffffffffffffffffffffffffffffffff1673ffffffffffffffffffffffffffffffffffffffff16815260200190815260200160002060009054906101000a900460ff16610c2f576040517f08c379a0000000000000000000000000000000000000000000000000000000008152600401610c2690613ebe565b60405180910390fd5b6002806003811115610c4457610c43613844565b5b600060149054906101000a900460ff166003811115610c6657610c65613844565b5b14610ca6576040517f08c379a0000000000000000000000000000000000000000000000000000000008152600401610c9d90613f50565b60405180910390fd5b6000801b600360003373ffffffffffffffffffffffffffffffffffffffff1673ffffffffffffffffffffffffffffffffffffffff1681526020019081526020016000206000015403610d2d576040517f08c379a0000000000000000000000000000000000000000000000000000000008152600401610d2490613fbc565b60405180910390fd5b600360003373ffffffffffffffffffffffffffffffffffffffff1673ffffffffffffffffffffffffffffffffffffffff16815260200190815260200160002060010160009054906101000a900460ff1615610dbd576040517f08c379a0000000000000000000000000000000000000000000000000000000008152600401610db49061404e565b60405180910390fd5b600083118015610dcf57506005548311155b610e0e576040517f08c379a0000000000000000000000000000000000000000000000000000000008152600401610e05906140ba565b60405180910390fd5b60008383604051602001610e239291906140fb565b604051602081830303815290604052805190602001209050600360003373ffffffffffffffffffffffffffffffffffffffff1673ffffffffffffffffffffffffffffffffffffffff168152602001908152602001600020600001548114610ebf576040517f08c379a0000000000000000000000000000000000000000000000000000000008152600401610eb690614173565b60405180910390fd5b6001600360003373ffffffffffffffffffffffffffffffffffffffff1673ffffffffffffffffffffffffffffffffffffffff16815260200190815260200160002060010160006101000a81548160ff02191690831515021790555083600360003373ffffffffffffffffffffffffffffffffffffffff1673ffffffffffffffffffffffffffffffffffffffff16815260200190815260200160002060020181905550600160008581526020019081526020016000206002016000815480929190610f88906141c2565b919050555060086000815480929190610fa0906141c2565b91905055506000600360003373ffffffffffffffffffffffffffffffffffffffff1673ffffffffffffffffffffffffffffffffffffffff16815260200190815260200160002060030154905060008111156110d3576000600360003373ffffffffffffffffffffffffffffffffffffffff1673ffffffffffffffffffffffffffffffffffffffff168152602001908152602001600020600301819055503373ffffffffffffffffffffffffffffffffffffffff166108fc829081150290604051600060405180830381858888f19350505050158015611083573d6000803e3d6000fd5b503373ffffffffffffffffffffffffffffffffffffffff167f698270f63d8b673ed55a5ca00d14001bd808b390dbe11d5b1b16624863f71f77826040516110ca9190613213565b60405180910390a25b3373ffffffffffffffffffffffffffffffffffffffff167ff65a04be847d83385f9a7abcf32cfb35055023a4affcc7eaa319160746f44528868360405161111b92919061420a565b60405180910390a25050505050565b6060600060055467ffffffffffffffff81111561114a576111496136d0565b5b60405190808252806020026020018201604052801561118357816020015b6111706130b8565b8152602001906001900390816111685790505b5090506000600190505b60055481116112975760016000828152602001908152602001600020604051806060016040529081600082015481526020016001820180546111ce90614262565b80601f01602080910402602001604051908101604052809291908181526020018280546111fa90614262565b80156112475780601f1061121c57610100808354040283529160200191611247565b820191906000526020600020905b81548152906001019060200180831161122a57829003601f168201915b50505050508152602001600282015481525050826001836112689190614293565b81518110611279576112786142c7565b5b6020026020010181905250808061128f906141c2565b91505061118d565b508091505090565b60016020528060005260406000206000915090508060000154908060010180546112c890614262565b80601f01602080910402602001604051908101604052809291908181526020018280546112f490614262565b80156113415780601f1061131657610100808354040283529160200191611341565b820191906000526020600020905b81548152906001019060200180831161132457829003601f168201915b5050505050908060020154905083565b600060606000808411801561136857506005548411155b6113a7576040517f08c379a000000000000000000000000000000000000000000000000000000000815260040161139e906140ba565b60405180910390fd5b600060016000868152602001908152602001600020604051806060016040529081600082015481526020016001820180546113e190614262565b80601f016020809104026020016040519081016040528092919081815260200182805461140d90614262565b801561145a5780601f1061142f5761010080835404028352916020019161145a565b820191906000526020600020905b81548152906001019060200180831161143d57829003601f168201915b505050505081526020016002820154815250509050806000015181602001518260400151935093509350509193909250565b600082826040516020016114a19291906140fb565b60405160208183030381529060405280519060200120905092915050565b60008054906101000a900473ffffffffffffffffffffffffffffffffffffffff1673ffffffffffffffffffffffffffffffffffffffff163373ffffffffffffffffffffffffffffffffffffffff161461154d576040517f08c379a000000000000000000000000000000000000000000000000000000000815260040161154490613dc0565b60405180910390fd5b600080600381111561156257611561613844565b5b600060149054906101000a900460ff16600381111561158457611583613844565b5b146115c4576040517f08c379a00000000000000000000000000000000000000000000000000000000081526004016115bb90613f50565b60405180910390fd5b600260008373ffffffffffffffffffffffffffffffffffffffff1673ffffffffffffffffffffffffffffffffffffffff16815260200190815260200160002060009054906101000a900460ff1615611651576040517f08c379a000000000000000000000000000000000000000000000000000000000815260040161164890614342565b60405180910390fd5b6001600260008473ffffffffffffffffffffffffffffffffffffffff1673ffffffffffffffffffffffffffffffffffffffff16815260200190815260200160002060006101000a81548160ff021916908315150217905550600660008154809291906116bc906141c2565b91905055508173ffffffffffffffffffffffffffffffffffffffff167fb6be2187d059cc2a55fe29e0e503b566e1e0f8c8780096e185429350acffd3dd60405160405180910390a25050565b600260003373ffffffffffffffffffffffffffffffffffffffff1673ffffffffffffffffffffffffffffffffffffffff16815260200190815260200160002060009054906101000a900460ff16611794576040517f08c379a000000000000000000000000000000000000000000000000000000000815260040161178b90613ebe565b60405180910390fd5b60018060038111156117a9576117a8613844565b5b600060149054906101000a900460ff1660038111156117cb576117ca613844565b5b1461180b576040517f08c379a000000000000000000000000000000000000000000000000000000000815260040161180290613f50565b60405180910390fd5b66038d7ea4c68000341015611855576040517f08c379a000000000000000000000000000000000000000000000000000000000815260040161184c906143ae565b60405180910390fd5b6000801b600360003373ffffffffffffffffffffffffffffffffffffffff1673ffffffffffffffffffffffffffffffffffffffff16815260200190815260200160002060000154146118dc576040517f08c379a00000000000000000000000000000000000000000000000000000000081526004016118d390614440565b60405180910390fd5b81600360003373ffffffffffffffffffffffffffffffffffffffff1673ffffffffffffffffffffffffffffffffffffffff1681526020019081526020016000206000018190555034600360003373ffffffffffffffffffffffffffffffffffffffff1673ffffffffffffffffffffffffffffffffffffffff168152602001908152602001600020600301819055506007600081548092919061197d906141c2565b91905055503373ffffffffffffffffffffffffffffffffffffffff167f06fdcf30f0bb2c4ceab314db052ad51b198e3ff93ce4121183516fa1ae84fbc883346040516119ca929190614460565b60405180910390a25050565b60065481565b60075481565b60008054906101000a900473ffffffffffffffffffffffffffffffffffffffff1673ffffffffffffffffffffffffffffffffffffffff163373ffffffffffffffffffffffffffffffffffffffff1614611a70576040517f08c379a0000000000000000000000000000000000000000000000000000000008152600401611a6790613dc0565b60405180910390fd5b6000806003811115611a8557611a84613844565b5b600060149054906101000a900460ff166003811115611aa757611aa6613844565b5b14611ae7576040517f08c379a0000000000000000000000000000000000000000000000000000000008152600401611ade90613f50565b60405180910390fd5b60056000815480929190611afa906141c2565b9190505550604051806060016040528060055481526020018381526020016000815250600160006005548152602001908152602001600020600082015181600001556020820151816001019081611b519190614635565b50604082015181600201559050506005547fe83b2a43e7e82d975c8a0a6d2f045153c869e111136a34d1889ab7b598e396a383604051611b919190614707565b60405180910390a25050565b600080600a5403611bb15760009050611be5565b6000600a5442611bc19190614293565b9050603c811015611bde5780603c611bd99190614293565b611be1565b60005b9150505b90565b600060149054906101000a900460ff1681565b6004602052806000526040600020600091509050806000015490806001015490806002015490806003015490806004015490806005015490806006018054611c4290614262565b80601f0160208091040260200160405190810160405280929190818152602001828054611c6e90614262565b8015611cbb5780601f10611c9057610100808354040283529160200191611cbb565b820191906000526020600020905b815481529060010190602001808311611c9e57829003601f168201915b5050505050908060070154908060080154905089565b60008054906101000a900473ffffffffffffffffffffffffffffffffffffffff1673ffffffffffffffffffffffffffffffffffffffff163373ffffffffffffffffffffffffffffffffffffffff1614611d5f576040517f08c379a0000000000000000000000000000000000000000000000000000000008152600401611d5690613dc0565b60405180910390fd5b60008054906101000a900473ffffffffffffffffffffffffffffffffffffffff1673ffffffffffffffffffffffffffffffffffffffff166108fc479081150290604051600060405180830381858888f19350505050158015611dc5573d6000803e3d6000fd5b50565b611dd06130d9565b6004600083815260200190815260200160002060405180610120016040529081600082015481526020016001820154815260200160028201548152602001600382015481526020016004820154815260200160058201548152602001600682018054611e3b90614262565b80601f0160208091040260200160405190810160405280929190818152602001828054611e6790614262565b8015611eb45780601f10611e8957610100808354040283529160200191611eb4565b820191906000526020600020905b815481529060010190602001808311611e9757829003601f168201915b50505050508152602001600782015481526020016008820154815250509050919050565b60036020528060005260406000206000915090508060000154908060010160009054906101000a900460ff16908060020154908060030154905084565b60008054906101000a900473ffffffffffffffffffffffffffffffffffffffff1673ffffffffffffffffffffffffffffffffffffffff163373ffffffffffffffffffffffffffffffffffffffff1614611fa3576040517f08c379a0000000000000000000000000000000000000000000000000000000008152600401611f9a90613dc0565b60405180910390fd5b600380811115611fb657611fb5613844565b5b600060149054906101000a900460ff166003811115611fd857611fd7613844565b5b14612018576040517f08c379a000000000000000000000000000000000000000000000000000000000815260040161200f9061479b565b60405180910390fd5b565b600060606000600380600381111561203557612034613844565b5b600060149054906101000a900460ff16600381111561205757612056613844565b5b14612097576040517f08c379a000000000000000000000000000000000000000000000000000000000815260040161208e90613f50565b60405180910390fd5b6000600554116120dc576040517f08c379a00000000000000000000000000000000000000000000000000000000081526004016120d390614807565b60405180910390fd5b600060019050600060016000600181526020019081526020016000206002015490506000600290505b600554811161215c57816001600083815260200190815260200160002060020154111561214957600160008281526020019081526020016000206002015491508092505b8080612154906141c2565b915050612105565b5081600160008481526020019081526020016000206001018281805461218190614262565b80601f01602080910402602001604051908101604052809291908181526020018280546121ad90614262565b80156121fa5780601f106121cf576101008083540402835291602001916121fa565b820191906000526020600020905b8154815290600101906020018083116121dd57829003601f168201915b50505050509150955095509550505050909192565b6000806000806000600554600654600754600854600060149054906101000a900460ff16945094509450945094509091929394565b6000600360008373ffffffffffffffffffffffffffffffffffffffff1673ffffffffffffffffffffffffffffffffffffffff168152602001908152602001600020600301549050919050565b60055481565b60026020528060005260406000206000915054906101000a900460ff1681565b60008054906101000a900473ffffffffffffffffffffffffffffffffffffffff1673ffffffffffffffffffffffffffffffffffffffff163373ffffffffffffffffffffffffffffffffffffffff1614612344576040517f08c379a000000000000000000000000000000000000000000000000000000000815260040161233b90613dc0565b60405180910390fd5b60038081111561235757612356613844565b5b600060149054906101000a900460ff16600381111561237957612378613844565b5b036123b9576040517f08c379a00000000000000000000000000000000000000000000000000000000081526004016123b090614873565b60405180910390fd5b600060038111156123cd576123cc613844565b5b600060149054906101000a900460ff1660038111156123ef576123ee613844565b5b036124ae57600060055411612439576040517f08c379a000000000000000000000000000000000000000000000000000000000815260040161243090614905565b60405180910390fd5b60006006541161247e576040517f08c379a000000000000000000000000000000000000000000000000000000000815260040161247590614997565b60405180910390fd5b6001600060146101000a81548160ff021916908360038111156124a4576124a3613844565b5b0217905550612582565b600160038111156124c2576124c1613844565b5b600060149054906101000a900460ff1660038111156124e4576124e3613844565b5b03612519576002600060146101000a81548160ff0219169083600381111561250f5761250e613844565b5b0217905550612581565b6002600381111561252d5761252c613844565b5b600060149054906101000a900460ff16600381111561254f5761254e613844565b5b03612580576003600060146101000a81548160ff0219169083600381111561257a57612579613844565b5b02179055505b5b5b7f273467821f33675618854603ef917ebcec8a1a39f95c43d5564ed1aefab870b3600060149054906101000a900460ff166040516125c091906138bb565b60405180910390a1565b600a5481565b60008060001b600360008473ffffffffffffffffffffffffffffffffffffffff1673ffffffffffffffffffffffffffffffffffffffff1681526020019081526020016000206000015414159050919050565b66038d7ea4c6800081565b6000600260008373ffffffffffffffffffffffffffffffffffffffff1673ffffffffffffffffffffffffffffffffffffffff16815260200190815260200160002060009054906101000a900460ff169050919050565b60008054906101000a900473ffffffffffffffffffffffffffffffffffffffff1673ffffffffffffffffffffffffffffffffffffffff163373ffffffffffffffffffffffffffffffffffffffff1614612711576040517f08c379a000000000000000000000000000000000000000000000000000000000815260040161270890613dc0565b60405180910390fd5b600080600381111561272657612725613844565b5b600060149054906101000a900460ff16600381111561274857612747613844565b5b14612788576040517f08c379a000000000000000000000000000000000000000000000000000000000815260040161277f90613f50565b60405180910390fd5b60008251116127cc576040517f08c379a00000000000000000000000000000000000000000000000000000000081526004016127c390614a03565b60405180910390fd5b603282511115612811576040517f08c379a000000000000000000000000000000000000000000000000000000000815260040161280890614a6f565b60405180910390fd5b60005b82518110156129165760056000815480929190612830906141c2565b91905055506040518060600160405280600554815260200184838151811061285b5761285a6142c7565b5b6020026020010151815260200160008152506001600060055481526020019081526020016000206000820151816000015560208201518160010190816128a19190614635565b50604082015181600201559050506005547fe83b2a43e7e82d975c8a0a6d2f045153c869e111136a34d1889ab7b598e396a38483815181106128e6576128e56142c7565b5b60200260200101516040516128fb9190614707565b60405180910390a2808061290e906141c2565b915050612814565b505050565b60008054906101000a900473ffffffffffffffffffffffffffffffffffffffff1673ffffffffffffffffffffffffffffffffffffffff163373ffffffffffffffffffffffffffffffffffffffff16146129a9576040517f08c379a00000000000000000000000000000000000000000000000000000000081526004016129a090613dc0565b60405180910390fd5b603c600a546129b89190614a8f565b4210156129fa576040517f08c379a00000000000000000000000000000000000000000000000000000000081526004016129f190614b0f565b60405180910390fd5b600380811115612a0d57612a0c613844565b5b600060149054906101000a900460ff166003811115612a2f57612a2e613844565b5b14612a6f576040517f08c379a0000000000000000000000000000000000000000000000000000000008152600401612a6690613e52565b60405180910390fd5b600080600060405180602001604052806000815250905060006005541115612b92576000600190505b6005548111612b90578260016000838152602001908152602001600020600201541115612b7d5760016000828152602001908152602001600020600201549250809350600160008281526020019081526020016000206001018054612afc90614262565b80601f0160208091040260200160405190810160405280929190818152602001828054612b2890614262565b8015612b755780601f10612b4a57610100808354040283529160200191612b75565b820191906000526020600020905b815481529060010190602001808311612b5857829003601f168201915b505050505091505b8080612b88906141c2565b915050612a98565b505b6040518061012001604052806009548152602001600554815260200160065481526020016007548152602001600854815260200184815260200182815260200183815260200142815250600460006009548152602001908152602001600020600082015181600001556020820151816001015560408201518160020155606082015181600301556080820151816004015560a0820151816005015560c0820151816006019081612c429190614635565b5060e082015181600701556101008201518160080155905050600060058190555060006006819055506000600781905550600060088190555060008060146101000a81548160ff02191690836003811115612ca057612c9f613844565b5b021790555060096000815480929190612cb8906141c2565b91905055506001600954612ccc9190614293565b7f1e906dbf0ea6bd42d25286c518c295e8d29ecfacbb21a873167a0576ea257d6142604051612cfb9190613213565b60405180910390a27f273467821f33675618854603ef917ebcec8a1a39f95c43d5564ed1aefab870b3600060149054906101000a900460ff16604051612d4191906138bb565b60405180910390a1505050565b60008054906101000a900473ffffffffffffffffffffffffffffffffffffffff1673ffffffffffffffffffffffffffffffffffffffff163373ffffffffffffffffffffffffffffffffffffffff1614612ddc576040517f08c379a0000000000000000000000000000000000000000000000000000000008152600401612dd390613dc0565b60405180910390fd5b6000806003811115612df157612df0613844565b5b600060149054906101000a900460ff166003811115612e1357612e12613844565b5b14612e53576040517f08c379a0000000000000000000000000000000000000000000000000000000008152600401612e4a90613f50565b60405180910390fd5b6000825111612e97576040517f08c379a0000000000000000000000000000000000000000000000000000000008152600401612e8e90614b7b565b60405180910390fd5b606482511115612edc576040517f08c379a0000000000000000000000000000000000000000000000000000000008152600401612ed390614be7565b60405180910390fd5b60005b82518110156130895760026000848381518110612eff57612efe6142c7565b5b602002602001015173ffffffffffffffffffffffffffffffffffffffff1673ffffffffffffffffffffffffffffffffffffffff16815260200190815260200160002060009054906101000a900460ff1615612f8f576040517f08c379a0000000000000000000000000000000000000000000000000000000008152600401612f8690614342565b60405180910390fd5b600160026000858481518110612fa857612fa76142c7565b5b602002602001015173ffffffffffffffffffffffffffffffffffffffff1673ffffffffffffffffffffffffffffffffffffffff16815260200190815260200160002060006101000a81548160ff02191690831515021790555060066000815480929190613014906141c2565b919050555082818151811061302c5761302b6142c7565b5b602002602001015173ffffffffffffffffffffffffffffffffffffffff167fb6be2187d059cc2a55fe29e0e503b566e1e0f8c8780096e185429350acffd3dd60405160405180910390a28080613081906141c2565b915050612edf565b505050565b60085481565b60008054906101000a900473ffffffffffffffffffffffffffffffffffffffff1681565b60405180606001604052806000815260200160608152602001600081525090565b6040518061012001604052806000815260200160008152602001600081526020016000815260200160008152602001600081526020016060815260200160008152602001600081525090565b6000604051905090565b600080fd5b600080fd5b600073ffffffffffffffffffffffffffffffffffffffff82169050919050565b600061316482613139565b9050919050565b61317481613159565b811461317f57600080fd5b50565b6000813590506131918161316b565b92915050565b6000602082840312156131ad576131ac61312f565b5b60006131bb84828501613182565b91505092915050565b60008115159050919050565b6131d9816131c4565b82525050565b60006020820190506131f460008301846131d0565b92915050565b6000819050919050565b61320d816131fa565b82525050565b60006020820190506132286000830184613204565b92915050565b6000819050919050565b6132418161322e565b82525050565b600060608201905061325c6000830186613238565b61326960208301856131d0565b6132766040830184613204565b949350505050565b600081519050919050565b600082825260208201905092915050565b6000819050602082019050919050565b6132b381613159565b82525050565b60006132c583836132aa565b60208301905092915050565b6000602082019050919050565b60006132e98261327e565b6132f38185613289565b93506132fe8361329a565b8060005b8381101561332f57815161331688826132b9565b9750613321836132d1565b925050600181019050613302565b5085935050505092915050565b6000602082019050818103600083015261335681846132de565b905092915050565b613367816131fa565b811461337257600080fd5b50565b6000813590506133848161335e565b92915050565b600080604083850312156133a1576133a061312f565b5b60006133af85828601613375565b92505060206133c085828601613375565b9150509250929050565b600081519050919050565b600082825260208201905092915050565b6000819050602082019050919050565b6133ff816131fa565b82525050565b600081519050919050565b600082825260208201905092915050565b60005b8381101561343f578082015181840152602081019050613424565b60008484015250505050565b6000601f19601f8301169050919050565b600061346782613405565b6134718185613410565b9350613481818560208601613421565b61348a8161344b565b840191505092915050565b60006060830160008301516134ad60008601826133f6565b50602083015184820360208601526134c5828261345c565b91505060408301516134da60408601826133f6565b508091505092915050565b60006134f18383613495565b905092915050565b6000602082019050919050565b6000613511826133ca565b61351b81856133d5565b93508360208202850161352d856133e6565b8060005b85811015613569578484038952815161354a85826134e5565b9450613555836134f9565b925060208a01995050600181019050613531565b50829750879550505050505092915050565b600060208201905081810360008301526135958184613506565b905092915050565b6000602082840312156135b3576135b261312f565b5b60006135c184828501613375565b91505092915050565b600082825260208201905092915050565b60006135e682613405565b6135f081856135ca565b9350613600818560208601613421565b6136098161344b565b840191505092915050565b60006060820190506136296000830186613204565b818103602083015261363b81856135db565b905061364a6040830184613204565b949350505050565b60006020820190506136676000830184613238565b92915050565b6136768161322e565b811461368157600080fd5b50565b6000813590506136938161366d565b92915050565b6000602082840312156136af576136ae61312f565b5b60006136bd84828501613684565b91505092915050565b600080fd5b600080fd5b7f4e487b7100000000000000000000000000000000000000000000000000000000600052604160045260246000fd5b6137088261344b565b810181811067ffffffffffffffff82111715613727576137266136d0565b5b80604052505050565b600061373a613125565b905061374682826136ff565b919050565b600067ffffffffffffffff821115613766576137656136d0565b5b61376f8261344b565b9050602081019050919050565b82818337600083830152505050565b600061379e6137998461374b565b613730565b9050828152602081018484840111156137ba576137b96136cb565b5b6137c584828561377c565b509392505050565b600082601f8301126137e2576137e16136c6565b5b81356137f284826020860161378b565b91505092915050565b6000602082840312156138115761381061312f565b5b600082013567ffffffffffffffff81111561382f5761382e613134565b5b61383b848285016137cd565b91505092915050565b7f4e487b7100000000000000000000000000000000000000000000000000000000600052602160045260246000fd5b6004811061388457613883613844565b5b50565b600081905061389582613873565b919050565b60006138a582613887565b9050919050565b6138b58161389a565b82525050565b60006020820190506138d060008301846138ac565b92915050565b6000610120820190506138ec600083018c613204565b6138f9602083018b613204565b613906604083018a613204565b6139136060830189613204565b6139206080830188613204565b61392d60a0830187613204565b81810360c083015261393f81866135db565b905061394e60e0830185613204565b61395c610100830184613204565b9a9950505050505050505050565b60006101208301600083015161398360008601826133f6565b50602083015161399660208601826133f6565b5060408301516139a960408601826133f6565b5060608301516139bc60608601826133f6565b5060808301516139cf60808601826133f6565b5060a08301516139e260a08601826133f6565b5060c083015184820360c08601526139fa828261345c565b91505060e0830151613a0f60e08601826133f6565b50610100830151613a246101008601826133f6565b508091505092915050565b60006020820190508181036000830152613a49818461396a565b905092915050565b6000608082019050613a666000830187613238565b613a7360208301866131d0565b613a806040830185613204565b613a8d6060830184613204565b95945050505050565b600060a082019050613aab6000830188613204565b613ab86020830187613204565b613ac56040830186613204565b613ad26060830185613204565b613adf60808301846138ac565b9695505050505050565b600067ffffffffffffffff821115613b0457613b036136d0565b5b602082029050602081019050919050565b600080fd5b6000613b2d613b2884613ae9565b613730565b90508083825260208201905060208402830185811115613b5057613b4f613b15565b5b835b81811015613b9757803567ffffffffffffffff811115613b7557613b746136c6565b5b808601613b8289826137cd565b85526020850194505050602081019050613b52565b5050509392505050565b600082601f830112613bb657613bb56136c6565b5b8135613bc6848260208601613b1a565b91505092915050565b600060208284031215613be557613be461312f565b5b600082013567ffffffffffffffff811115613c0357613c02613134565b5b613c0f84828501613ba1565b91505092915050565b600067ffffffffffffffff821115613c3357613c326136d0565b5b602082029050602081019050919050565b6000613c57613c5284613c18565b613730565b90508083825260208201905060208402830185811115613c7a57613c79613b15565b5b835b81811015613ca35780613c8f8882613182565b845260208401935050602081019050613c7c565b5050509392505050565b600082601f830112613cc257613cc16136c6565b5b8135613cd2848260208601613c44565b91505092915050565b600060208284031215613cf157613cf061312f565b5b600082013567ffffffffffffffff811115613d0f57613d0e613134565b5b613d1b84828501613cad565b91505092915050565b613d2d81613159565b82525050565b6000602082019050613d486000830184613d24565b92915050565b7f4f6e6c792061646d696e2063616e2063616c6c20746869732066756e6374696f60008201527f6e00000000000000000000000000000000000000000000000000000000000000602082015250565b6000613daa6021836135ca565b9150613db582613d4e565b604082019050919050565b60006020820190508181036000830152613dd981613d9d565b9050919050565b7f43616e206f6e6c7920726573657420616674657220656c656374696f6e20697360008201527f2066696e69736865640000000000000000000000000000000000000000000000602082015250565b6000613e3c6029836135ca565b9150613e4782613de0565b604082019050919050565b60006020820190508181036000830152613e6b81613e2f565b9050919050565b7f596f7520617265206e6f74207265676973746572656420746f20766f74650000600082015250565b6000613ea8601e836135ca565b9150613eb382613e72565b602082019050919050565b60006020820190508181036000830152613ed781613e9b565b9050919050565b7f46756e6374696f6e2063616e6e6f742062652063616c6c65642061742074686960008201527f7320737461676500000000000000000000000000000000000000000000000000602082015250565b6000613f3a6027836135ca565b9150613f4582613ede565b604082019050919050565b60006020820190508181036000830152613f6981613f2d565b9050919050565b7f596f7520686176656e277420636f6d6d6974746564206120766f746500000000600082015250565b6000613fa6601c836135ca565b9150613fb182613f70565b602082019050919050565b60006020820190508181036000830152613fd581613f99565b9050919050565b7f596f75206861766520616c72656164792072657665616c656420796f7572207660008201527f6f74650000000000000000000000000000000000000000000000000000000000602082015250565b60006140386023836135ca565b915061404382613fdc565b604082019050919050565b600060208201905081810360008301526140678161402b565b9050919050565b7f496e76616c69642063616e646964617465204944000000000000000000000000600082015250565b60006140a46014836135ca565b91506140af8261406e565b602082019050919050565b600060208201905081810360008301526140d381614097565b9050919050565b6000819050919050565b6140f56140f0826131fa565b6140da565b82525050565b600061410782856140e4565b60208201915061411782846140e4565b6020820191508190509392505050565b7f496e76616c69642072657665616c202d2068617368206d69736d617463680000600082015250565b600061415d601e836135ca565b915061416882614127565b602082019050919050565b6000602082019050818103600083015261418c81614150565b9050919050565b7f4e487b7100000000000000000000000000000000000000000000000000000000600052601160045260246000fd5b60006141cd826131fa565b91507fffffffffffffffffffffffffffffffffffffffffffffffffffffffffffffffff82036141ff576141fe614193565b5b600182019050919050565b600060408201905061421f6000830185613204565b61422c6020830184613204565b9392505050565b7f4e487b7100000000000000000000000000000000000000000000000000000000600052602260045260246000fd5b6000600282049050600182168061427a57607f821691505b60208210810361428d5761428c614233565b5b50919050565b600061429e826131fa565b91506142a9836131fa565b92508282039050818111156142c1576142c0614193565b5b92915050565b7f4e487b7100000000000000000000000000000000000000000000000000000000600052603260045260246000fd5b7f566f74657220616c726561647920726567697374657265640000000000000000600082015250565b600061432c6018836135ca565b9150614337826142f6565b602082019050919050565b6000602082019050818103600083015261435b8161431f565b9050919050565b7f496e73756666696369656e74206465706f73697420666f7220766f74696e6700600082015250565b6000614398601f836135ca565b91506143a382614362565b602082019050919050565b600060208201905081810360008301526143c78161438b565b9050919050565b7f596f75206861766520616c726561647920636f6d6d697474656420796f75722060008201527f766f746500000000000000000000000000000000000000000000000000000000602082015250565b600061442a6024836135ca565b9150614435826143ce565b604082019050919050565b600060208201905081810360008301526144598161441d565b9050919050565b60006040820190506144756000830185613238565b6144826020830184613204565b9392505050565b60008190508160005260206000209050919050565b60006020601f8301049050919050565b600082821b905092915050565b6000600883026144eb7fffffffffffffffffffffffffffffffffffffffffffffffffffffffffffffffff826144ae565b6144f586836144ae565b95508019841693508086168417925050509392505050565b6000819050919050565b600061453261452d614528846131fa565b61450d565b6131fa565b9050919050565b6000819050919050565b61454c83614517565b61456061455882614539565b8484546144bb565b825550505050565b600090565b614575614568565b614580818484614543565b505050565b5b818110156145a45761459960008261456d565b600181019050614586565b5050565b601f8211156145e9576145ba81614489565b6145c38461449e565b810160208510156145d2578190505b6145e66145de8561449e565b830182614585565b50505b505050565b600082821c905092915050565b600061460c600019846008026145ee565b1980831691505092915050565b600061462583836145fb565b9150826002028217905092915050565b61463e82613405565b67ffffffffffffffff811115614657576146566136d0565b5b6146618254614262565b61466c8282856145a8565b600060209050601f83116001811461469f576000841561468d578287015190505b6146978582614619565b8655506146ff565b601f1984166146ad86614489565b60005b828110156146d5578489015182556001820191506020850194506020810190506146b0565b868310156146f257848901516146ee601f8916826145fb565b8355505b6001600288020188555050505b505050505050565b6000602082019050818103600083015261472181846135db565b905092915050565b7f43616e206f6e6c7920666f726665697420616674657220656c656374696f6e2060008201527f69732066696e6973686564000000000000000000000000000000000000000000602082015250565b6000614785602b836135ca565b915061479082614729565b604082019050919050565b600060208201905081810360008301526147b481614778565b9050919050565b7f4e6f2063616e6469646174657320617661696c61626c65000000000000000000600082015250565b60006147f16017836135ca565b91506147fc826147bb565b602082019050919050565b60006020820190508181036000830152614820816147e4565b9050919050565b7f456c656374696f6e20697320616c72656164792066696e697368656400000000600082015250565b600061485d601c836135ca565b915061486882614827565b602082019050919050565b6000602082019050818103600083015261488c81614850565b9050919050565b7f4174206c65617374206f6e652063616e646964617465206d757374206265206160008201527f6464656400000000000000000000000000000000000000000000000000000000602082015250565b60006148ef6024836135ca565b91506148fa82614893565b604082019050919050565b6000602082019050818103600083015261491e816148e2565b9050919050565b7f4174206c65617374206f6e6520766f746572206d75737420626520726567697360008201527f7465726564000000000000000000000000000000000000000000000000000000602082015250565b60006149816025836135ca565b915061498c82614925565b604082019050919050565b600060208201905081810360008301526149b081614974565b9050919050565b7f4e6f2063616e646964617465732070726f766964656400000000000000000000600082015250565b60006149ed6016836135ca565b91506149f8826149b7565b602082019050919050565b60006020820190508181036000830152614a1c816149e0565b9050919050565b7f546f6f206d616e792063616e6469646174657320286d61782035302900000000600082015250565b6000614a59601c836135ca565b9150614a6482614a23565b602082019050919050565b60006020820190508181036000830152614a8881614a4c565b9050919050565b6000614a9a826131fa565b9150614aa5836131fa565b9250828201905080821115614abd57614abc614193565b5b92915050565b7f526573657420636f6f6c646f776e206e6f742070617373656400000000000000600082015250565b6000614af96019836135ca565b9150614b0482614ac3565b602082019050919050565b60006020820190508181036000830152614b2881614aec565b9050919050565b7f4e6f20766f746572732070726f76696465640000000000000000000000000000600082015250565b6000614b656012836135ca565b9150614b7082614b2f565b602082019050919050565b60006020820190508181036000830152614b9481614b58565b9050919050565b7f546f6f206d616e7920766f7465727320286d6178203130302900000000000000600082015250565b6000614bd16019836135ca565b9150614bdc82614b9b565b602082019050919050565b60006020820190508181036000830152614c0081614bc4565b905091905056fea2646970667358221220e1c3da799b5e10530602e8690eba39b857f451fb8593f8f31676e93ac3ef75a864736f6c63430008130033",
  "linkReferences": {},
  "deployedLinkReferences": {}
}