{
  "_format": "hh-sol-artifact-1",
  "contractName": "CommitRevealElection",
  "sourceName": "contracts/CommitRevealElection.sol",
  "abi": [
    {
      "inputs": [],
      "stateMutability": "nonpayable",
      "type": "constructor"
    },
    {
      "anonymous": false,
      "inputs": [
        {
          "indexed": true,
          "internalType": "uint256",
          "name": "candidateId",
          "type": "uint256"
        },
        {
          "indexed": false,
          "internalType": "string",
          "name": "name",
          "type": "string"
        }
      ],
      "name": "CandidateAdded",
      "type": "event"
    },
    {
      "anonymous": false,
      "inputs": [
        {
          "indexed": false,
          "internalType": "enum CommitRevealElection.Stage",
          "name": "newStage",
          "type": "uint8"
        }
      ],
      "name": "StageChanged",
      "type": "event"
    },
    {
      "anonymous": false,
      "inputs": [
        {
          "indexed": true,
          "internalType": "address",
          "name": "voter",
          "type": "address"
        },
        {
          "indexed": false,
          "internalType": "bytes32",
          "name": "commitHash",
          "type": "bytes32"
        }
      ],
      "name": "VoteCommitted",
      "type": "event"
    },
    {
      "anonymous": false,
      "inputs": [
        {
          "indexed": true,
          "internalType": "address",
          "name": "voter",
          "type": "address"
        },
        {
          "indexed": false,
          "internalType": "uint256",
          "name": "candidateId",
          "type": "uint256"
        }
      ],
      "name": "VoteRevealed",
      "type": "event"
    },
    {
      "anonymous": false,
      "inputs": [
        {
          "indexed": true,
          "internalType": "address",
          "name": "voter",
          "type": "address"
        }
      ],
      "name": "VoterRegistered",
      "type": "event"
    },
    {
      "inputs": [
        {
          "internalType": "string",
          "name": "_name",
          "type": "string"
        }
      ],
      "name": "addCandidate",
      "outputs": [],
      "stateMutability": "nonpayable",
      "type": "function"
    },
    {
      "inputs": [],
      "name": "admin",
      "outputs": [
        {
          "internalType": "address",
          "name": "",
          "type": "address"
        }
      ],
      "stateMutability": "view",
      "type": "function"
    },
    {
      "inputs": [],
      "name": "advanceStage",
      "outputs": [],
      "stateMutability": "nonpayable",
      "type": "function"
    },
    {
      "inputs": [],
      "name": "candidateCount",
      "outputs": [
        {
          "internalType": "uint256",
          "name": "",
          "type": "uint256"
        }
      ],
      "stateMutability": "view",
      "type": "function"
    },
    {
      "inputs": [
        {
          "internalType": "uint256",
          "name": "",
          "type": "uint256"
        }
      ],
      "name": "candidates",
      "outputs": [
        {
          "internalType": "uint256",
          "name": "id",
          "type": "uint256"
        },
        {
          "internalType": "string",
          "name": "name",
          "type": "string"
        },
        {
          "internalType": "uint256",
          "name": "voteCount",
          "type": "uint256"
        }
      ],
      "stateMutability": "view",
      "type": "function"
    },
    {
      "inputs": [
        {
          "internalType": "bytes32",
          "name": "_commitHash",
          "type": "bytes32"
        }
      ],
      "name": "commitVote",
      "outputs": [],
      "stateMutability": "nonpayable",
      "type": "function"
    },
    {
      "inputs": [
        {
          "internalType": "address",
          "name": "",
          "type": "address"
        }
      ],
      "name": "commits",
      "outputs": [
        {
          "internalType": "bytes32",
          "name": "commitHash",
          "type": "bytes32"
        },
        {
          "internalType": "bool",
          "name": "revealed",
          "type": "bool"
        },
        {
          "internalType": "uint256",
          "name": "candidateId",
          "type": "uint256"
        }
      ],
      "stateMutability": "view",
      "type": "function"
    },
    {
      "inputs": [],
      "name": "currentStage",
      "outputs": [
        {
          "internalType": "enum CommitRevealElection.Stage",
          "name": "",
          "type": "uint8"
        }
      ],
      "stateMutability": "view",
      "type": "function"
    },
    {
      "inputs": [
        {
          "internalType": "uint256",
          "name": "_candidateId",
          "type": "uint256"
        },
        {
          "internalType": "uint256",
          "name": "_secret",
          "type": "uint256"
        }
      ],
      "name": "generateCommitHash",
      "outputs": [
        {
          "internalType": "bytes32",
          "name": "",
          "type": "bytes32"
        }
      ],
      "stateMutability": "pure",
      "type": "function"
    },
    {
      "inputs": [],
      "name": "getAllCandidates",
      "outputs": [
        {
          "components": [
            {
              "internalType": "uint256",
              "name": "id",
              "type": "uint256"
            },
            {
              "internalType": "string",
              "name": "name",
              "type": "string"
            },
            {
              "internalType": "uint256",
              "name": "voteCount",
              "type": "uint256"
            }
          ],
          "internalType": "struct CommitRevealElection.Candidate[]",
          "name": "",
          "type": "tuple[]"
        }
      ],
      "stateMutability": "view",
      "type": "function"
    },
    {
      "inputs": [
        {
          "internalType": "uint256",
          "name": "_candidateId",
          "type": "uint256"
        }
      ],
      "name": "getCandidate",
      "outputs": [
        {
          "internalType": "uint256",
          "name": "",
          "type": "uint256"
        },
        {
          "internalType": "string",
          "name": "",
          "type": "string"
        },
        {
          "internalType": "uint256",
          "name": "",
          "type": "uint256"
        }
      ],
      "stateMutability": "view",
      "type": "function"
    },
    {
      "inputs": [],
      "name": "getElectionStats",
      "outputs": [
        {
          "internalType": "uint256",
          "name": "",
          "type": "uint256"
        },
        {
          "internalType": "uint256",
          "name": "",
          "type": "uint256"
        },
        {
          "internalType": "uint256",
          "name": "",
          "type": "uint256"
        },
        {
          "internalType": "uint256",
          "name": "",
          "type": "uint256"
        },
        {
          "internalType": "enum CommitRevealElection.Stage",
          "name": "",
          "type": "uint8"
        }
      ],
      "stateMutability": "view",
      "type": "function"
    },
    {
      "inputs": [
        {
          "internalType": "address",
          "name": "_voter",
          "type": "address"
        }
      ],
      "name": "getVoterCommit",
      "outputs": [
        {
          "internalType": "bytes32",
          "name": "",
          "type": "bytes32"
        },
        {
          "internalType": "bool",
          "name": "",
          "type": "bool"
        },
        {
          "internalType": "uint256",
          "name": "",
          "type": "uint256"
        }
      ],
      "stateMutability": "view",
      "type": "function"
    },
    {
      "inputs": [],
      "name": "getWinner",
      "outputs": [
        {
          "internalType": "uint256",
          "name": "",
          "type": "uint256"
        },
        {
          "internalType": "string",
          "name": "",
          "type": "string"
        },
        {
          "internalType": "uint256",
          "name": "",
          "type": "uint256"
        }
      ],
      "stateMutability": "view",
      "type": "function"
    },
    {
      "inputs": [
        {
          "internalType": "address",
          "name": "_voter",
          "type": "address"
        }
      ],
      "name": "hasVoterCommitted",
      "outputs": [
        {
          "internalType": "bool",
          "name": "",
          "type": "bool"
        }
      ],
      "stateMutability": "view",
      "type": "function"
    },
    {
      "inputs": [
        {
          "internalType": "address",
          "name": "_voter",
          "type": "address"
        }
      ],
      "name": "hasVoterRevealed",
      "outputs": [
        {
          "internalType": "bool",
          "name": "",
          "type": "bool"
        }
      ],
      "stateMutability": "view",
      "type": "function"
    },
    {
      "inputs": [
        {
          "internalType": "address",
          "name": "_voter",
          "type": "address"
        }
      ],
      "name": "isVoterRegistered",
      "outputs": [
        {
          "internalType": "bool",
          "name": "",
          "type": "bool"
        }
      ],
      "stateMutability": "view",
      "type": "function"
    },
    {
      "inputs": [
        {
          "internalType": "address[]",
          "name": "_voters",
          "type": "address[]"
        }
      ],
      "name": "registerMultipleVoters",
      "outputs": [],
      "stateMutability": "nonpayable",
      "type": "function"
    },
    {
      "inputs": [
        {
          "internalType": "address",
          "name": "_voter",
          "type": "address"
        }
      ],
      "name": "registerVoter",
      "outputs": [],
      "stateMutability": "nonpayable",
      "type": "function"
    },
    {
      "inputs": [
        {
          "internalType": "address",
          "name": "",
          "type": "address"
        }
      ],
      "name": "registeredVoters",
      "outputs": [
        {
          "internalType": "bool",
          "name": "",
          "type": "bool"
        }
      ],
      "stateMutability": "view",
      "type": "function"
    },
    {
      "inputs": [],
      "name": "resetElection",
      "outputs": [],
      "stateMutability": "nonpayable",
      "type": "function"
    },
    {
      "inputs": [
        {
          "internalType": "uint256",
          "name": "_candidateId",
          "type": "uint256"
        },
        {
          "internalType": "uint256",
          "name": "_secret",
          "type": "uint256"
        }
      ],
      "name": "revealVote",
      "outputs": [],
      "stateMutability": "nonpayable",
      "type": "function"
    },
    {
      "inputs": [],
      "name": "totalCommits",
      "outputs": [
        {
          "internalType": "uint256",
          "name": "",
          "type": "uint256"
        }
      ],
      "stateMutability": "view",
      "type": "function"
    },
    {
      "inputs": [],
      "name": "totalRevealed",
      "outputs": [
        {
          "internalType": "uint256",
          "name": "",
          "type": "uint256"
        }
      ],
      "stateMutability": "view",
      "type": "function"
    },
    {
      "inputs": [],
      "name": "voterCount",
      "outputs": [
        {
          "internalType": "uint256",
          "name": "",
          "type": "uint256"
        }
      ],
      "stateMutability": "view",
      "type": "function"
    }
  ],
  "bytecode": "0x60806040523480156200001157600080fd5b50336000806101000a81548173ffffffffffffffffffffffffffffffffffffffff021916908373ffffffffffffffffffffffffffffffffffffffff16021790555060008060146101000a81548160ff021916908360038111156200007a576200007962000085565b5b0217905550620000b4565b7f4e487b7100000000000000000000000000000000000000000000000000000000600052602160045260246000fd5b61327180620000c46000396000f3fe608060405234801561001057600080fd5b50600436106101735760003560e01c80635bf5d54c116100de578063c33f48fd11610097578063eb2119db11610071578063eb2119db1461045c578063f225c1f81461048c578063f3738569146104a8578063f851a440146104c657610173565b8063c33f48fd14610418578063d5bae5b614610422578063e8f305231461045257610173565b80635bf5d54c146103385780637b43a8e6146103565780638e7ea5b214610388578063906ad2a9146103a8578063a9a981a3146103ca578063a9ff6df1146103e857610173565b8063369ffdf911610130578063369ffdf91461027857806338db6dd3146102a85780633e858923146102c457806342169e48146102e057806344d6ee2b146102fe578063462e91ec1461031c57610173565b8063035fbe11146101785780630d5ca930146101a857806327846c8d146101da5780632e6997fe146101f65780633477ee2e1461021457806335b8e82014610246575b600080fd5b610192600480360381019061018d9190611f35565b6104e4565b60405161019f9190611f7d565b60405180910390f35b6101c260048036038101906101bd9190611f35565b61053d565b6040516101d193929190611fca565b60405180910390f35b6101f460048036038101906101ef919061202d565b6105db565b005b6101fe610a31565b60405161020b919061221e565b60405180910390f35b61022e60048036038101906102299190612240565b610ba6565b60405161023d939291906122b7565b60405180910390f35b610260600480360381019061025b9190612240565b610c58565b60405161026f939291906122b7565b60405180910390f35b610292600480360381019061028d919061202d565b610d93565b60405161029f91906122f5565b60405180910390f35b6102c260048036038101906102bd9190611f35565b610dc6565b005b6102de60048036038101906102d9919061233c565b61100f565b005b6102e861124a565b6040516102f59190612369565b60405180910390f35b610306611250565b6040516103139190612369565b60405180910390f35b610336600480360381019061033191906124b9565b611256565b005b610340611411565b60405161034d9190612579565b60405180910390f35b610370600480360381019061036b9190611f35565b611424565b60405161037f93929190611fca565b60405180910390f35b61039061145b565b60405161039f939291906122b7565b60405180910390f35b6103b0611650565b6040516103c1959493929190612594565b60405180910390f35b6103d2611685565b6040516103df9190612369565b60405180910390f35b61040260048036038101906103fd9190611f35565b61168b565b60405161040f9190611f7d565b60405180910390f35b6104206116ab565b005b61043c60048036038101906104379190611f35565b6119bf565b6040516104499190611f7d565b60405180910390f35b61045a611a11565b005b61047660048036038101906104719190611f35565b611ba6565b6040516104839190611f7d565b60405180910390f35b6104a660048036038101906104a191906126af565b611bfc565b005b6104b0611e78565b6040516104bd9190612369565b60405180910390f35b6104ce611e7e565b6040516104db9190612707565b60405180910390f35b6000600360008373ffffffffffffffffffffffffffffffffffffffff1673ffffffffffffffffffffffffffffffffffffffff16815260200190815260200160002060010160009054906101000a900460ff169050919050565b600080600080600360008673ffffffffffffffffffffffffffffffffffffffff1673ffffffffffffffffffffffffffffffffffffffff168152602001908152602001600020604051806060016040529081600082015481526020016001820160009054906101000a900460ff161515151581526020016002820154815250509050806000015181602001518260400151935093509350509193909250565b600260003373ffffffffffffffffffffffffffffffffffffffff1673ffffffffffffffffffffffffffffffffffffffff16815260200190815260200160002060009054906101000a900460ff16610667576040517f08c379a000000000000000000000000000000000000000000000000000000000815260040161065e9061276e565b60405180910390fd5b600280600381111561067c5761067b612502565b5b600060149054906101000a900460ff16600381111561069e5761069d612502565b5b146106de576040517f08c379a00000000000000000000000000000000000000000000000000000000081526004016106d590612800565b60405180910390fd5b6000801b600360003373ffffffffffffffffffffffffffffffffffffffff1673ffffffffffffffffffffffffffffffffffffffff1681526020019081526020016000206000015403610765576040517f08c379a000000000000000000000000000000000000000000000000000000000815260040161075c9061286c565b60405180910390fd5b600360003373ffffffffffffffffffffffffffffffffffffffff1673ffffffffffffffffffffffffffffffffffffffff16815260200190815260200160002060010160009054906101000a900460ff16156107f5576040517f08c379a00000000000000000000000000000000000000000000000000000000081526004016107ec906128fe565b60405180910390fd5b60008311801561080757506004548311155b610846576040517f08c379a000000000000000000000000000000000000000000000000000000000815260040161083d9061296a565b60405180910390fd5b6000838360405160200161085b9291906129ab565b604051602081830303815290604052805190602001209050600360003373ffffffffffffffffffffffffffffffffffffffff1673ffffffffffffffffffffffffffffffffffffffff1681526020019081526020016000206000015481146108f7576040517f08c379a00000000000000000000000000000000000000000000000000000000081526004016108ee90612a23565b60405180910390fd5b6001600360003373ffffffffffffffffffffffffffffffffffffffff1673ffffffffffffffffffffffffffffffffffffffff16815260200190815260200160002060010160006101000a81548160ff02191690831515021790555083600360003373ffffffffffffffffffffffffffffffffffffffff1673ffffffffffffffffffffffffffffffffffffffff168152602001908152602001600020600201819055506001600085815260200190815260200160002060020160008154809291906109c090612a72565b9190505550600760008154809291906109d890612a72565b91905055503373ffffffffffffffffffffffffffffffffffffffff167f522b45c661375abb939dc17b4b600412c93af64fcbe24859a73539d01bb4eec885604051610a239190612369565b60405180910390a250505050565b6060600060045467ffffffffffffffff811115610a5157610a5061238e565b5b604051908082528060200260200182016040528015610a8a57816020015b610a77611ea2565b815260200190600190039081610a6f5790505b5090506000600190505b6004548111610b9e576001600082815260200190815260200160002060405180606001604052908160008201548152602001600182018054610ad590612ae9565b80601f0160208091040260200160405190810160405280929190818152602001828054610b0190612ae9565b8015610b4e5780601f10610b2357610100808354040283529160200191610b4e565b820191906000526020600020905b815481529060010190602001808311610b3157829003601f168201915b5050505050815260200160028201548152505082600183610b6f9190612b1a565b81518110610b8057610b7f612b4e565b5b60200260200101819052508080610b9690612a72565b915050610a94565b508091505090565b6001602052806000526040600020600091509050806000015490806001018054610bcf90612ae9565b80601f0160208091040260200160405190810160405280929190818152602001828054610bfb90612ae9565b8015610c485780601f10610c1d57610100808354040283529160200191610c48565b820191906000526020600020905b815481529060010190602001808311610c2b57829003601f168201915b5050505050908060020154905083565b6000606060008084118015610c6f57506004548411155b610cae576040517f08c379a0000000000000000000000000000000000000000000000000000000008152600401610ca59061296a565b60405180910390fd5b60006001600086815260200190815260200160002060405180606001604052908160008201548152602001600182018054610ce890612ae9565b80601f0160208091040260200160405190810160405280929190818152602001828054610d1490612ae9565b8015610d615780601f10610d3657610100808354040283529160200191610d61565b820191906000526020600020905b815481529060010190602001808311610d4457829003601f168201915b505050505081526020016002820154815250509050806000015181602001518260400151935093509350509193909250565b60008282604051602001610da89291906129ab565b60405160208183030381529060405280519060200120905092915050565b60008054906101000a900473ffffffffffffffffffffffffffffffffffffffff1673ffffffffffffffffffffffffffffffffffffffff163373ffffffffffffffffffffffffffffffffffffffff1614610e54576040517f08c379a0000000000000000000000000000000000000000000000000000000008152600401610e4b90612bef565b60405180910390fd5b6000806003811115610e6957610e68612502565b5b600060149054906101000a900460ff166003811115610e8b57610e8a612502565b5b14610ecb576040517f08c379a0000000000000000000000000000000000000000000000000000000008152600401610ec290612800565b60405180910390fd5b600260008373ffffffffffffffffffffffffffffffffffffffff1673ffffffffffffffffffffffffffffffffffffffff16815260200190815260200160002060009054906101000a900460ff1615610f58576040517f08c379a0000000000000000000000000000000000000000000000000000000008152600401610f4f90612c5b565b60405180910390fd5b6001600260008473ffffffffffffffffffffffffffffffffffffffff1673ffffffffffffffffffffffffffffffffffffffff16815260200190815260200160002060006101000a81548160ff02191690831515021790555060056000815480929190610fc390612a72565b91905055508173ffffffffffffffffffffffffffffffffffffffff167fb6be2187d059cc2a55fe29e0e503b566e1e0f8c8780096e185429350acffd3dd60405160405180910390a25050565b600260003373ffffffffffffffffffffffffffffffffffffffff1673ffffffffffffffffffffffffffffffffffffffff16815260200190815260200160002060009054906101000a900460ff1661109b576040517f08c379a00000000000000000000000000000000000000000000000000000000081526004016110929061276e565b60405180910390fd5b60018060038111156110b0576110af612502565b5b600060149054906101000a900460ff1660038111156110d2576110d1612502565b5b14611112576040517f08c379a000000000000000000000000000000000000000000000000000000000815260040161110990612800565b60405180910390fd5b6000801b600360003373ffffffffffffffffffffffffffffffffffffffff1673ffffffffffffffffffffffffffffffffffffffff1681526020019081526020016000206000015414611199576040517f08c379a000000000000000000000000000000000000000000000000000000000815260040161119090612ced565b60405180910390fd5b81600360003373ffffffffffffffffffffffffffffffffffffffff1673ffffffffffffffffffffffffffffffffffffffff16815260200190815260200160002060000181905550600660008154809291906111f390612a72565b91905055503373ffffffffffffffffffffffffffffffffffffffff167f378881b5d2d0f50f0782bfc28c9194fbce3515be77236885f5256babb2e45c338360405161123e91906122f5565b60405180910390a25050565b60055481565b60065481565b60008054906101000a900473ffffffffffffffffffffffffffffffffffffffff1673ffffffffffffffffffffffffffffffffffffffff163373ffffffffffffffffffffffffffffffffffffffff16146112e4576040517f08c379a00000000000000000000000000000000000000000000000000000000081526004016112db90612bef565b60405180910390fd5b60008060038111156112f9576112f8612502565b5b600060149054906101000a900460ff16600381111561131b5761131a612502565b5b1461135b576040517f08c379a000000000000000000000000000000000000000000000000000000000815260040161135290612800565b60405180910390fd5b6004600081548092919061136e90612a72565b91905055506040518060600160405280600454815260200183815260200160008152506001600060045481526020019081526020016000206000820151816000015560208201518160010190816113c59190612eb9565b50604082015181600201559050506004547fe83b2a43e7e82d975c8a0a6d2f045153c869e111136a34d1889ab7b598e396a3836040516114059190612f8b565b60405180910390a25050565b600060149054906101000a900460ff1681565b60036020528060005260406000206000915090508060000154908060010160009054906101000a900460ff16908060020154905083565b600060606000600380600381111561147657611475612502565b5b600060149054906101000a900460ff16600381111561149857611497612502565b5b146114d8576040517f08c379a00000000000000000000000000000000000000000000000000000000081526004016114cf90612800565b60405180910390fd5b60006004541161151d576040517f08c379a000000000000000000000000000000000000000000000000000000000815260040161151490612ff9565b60405180910390fd5b600060019050600060016000600181526020019081526020016000206002015490506000600290505b600454811161159d57816001600083815260200190815260200160002060020154111561158a57600160008281526020019081526020016000206002015491508092505b808061159590612a72565b915050611546565b508160016000848152602001908152602001600020600101828180546115c290612ae9565b80601f01602080910402602001604051908101604052809291908181526020018280546115ee90612ae9565b801561163b5780601f106116105761010080835404028352916020019161163b565b820191906000526020600020905b81548152906001019060200180831161161e57829003601f168201915b50505050509150955095509550505050909192565b6000806000806000600454600554600654600754600060149054906101000a900460ff16945094509450945094509091929394565b60045481565b60026020528060005260406000206000915054906101000a900460ff1681565b60008054906101000a900473ffffffffffffffffffffffffffffffffffffffff1673ffffffffffffffffffffffffffffffffffffffff163373ffffffffffffffffffffffffffffffffffffffff1614611739576040517f08c379a000000000000000000000000000000000000000000000000000000000815260040161173090612bef565b60405180910390fd5b60038081111561174c5761174b612502565b5b600060149054906101000a900460ff16600381111561176e5761176d612502565b5b036117ae576040517f08c379a00000000000000000000000000000000000000000000000000000000081526004016117a590613065565b60405180910390fd5b600060038111156117c2576117c1612502565b5b600060149054906101000a900460ff1660038111156117e4576117e3612502565b5b036118a35760006004541161182e576040517f08c379a0000000000000000000000000000000000000000000000000000000008152600401611825906130f7565b60405180910390fd5b600060055411611873576040517f08c379a000000000000000000000000000000000000000000000000000000000815260040161186a90613189565b60405180910390fd5b6001600060146101000a81548160ff0219169083600381111561189957611898612502565b5b0217905550611977565b600160038111156118b7576118b6612502565b5b600060149054906101000a900460ff1660038111156118d9576118d8612502565b5b0361190e576002600060146101000a81548160ff0219169083600381111561190457611903612502565b5b0217905550611976565b6002600381111561192257611921612502565b5b600060149054906101000a900460ff16600381111561194457611943612502565b5b03611975576003600060146101000a81548160ff0219169083600381111561196f5761196e612502565b5b02179055505b5b5b7f273467821f33675618854603ef917ebcec8a1a39f95c43d5564ed1aefab870b3600060149054906101000a900460ff166040516119b59190612579565b60405180910390a1565b60008060001b600360008473ffffffffffffffffffffffffffffffffffffffff1673ffffffffffffffffffffffffffffffffffffffff1681526020019081526020016000206000015414159050919050565b60008054906101000a900473ffffffffffffffffffffffffffffffffffffffff1673ffffffffffffffffffffffffffffffffffffffff163373ffffffffffffffffffffffffffffffffffffffff1614611a9f576040517f08c379a0000000000000000000000000000000000000000000000000000000008152600401611a9690612bef565b60405180910390fd5b600380811115611ab257611ab1612502565b5b600060149054906101000a900460ff166003811115611ad457611ad3612502565b5b14611b14576040517f08c379a0000000000000000000000000000000000000000000000000000000008152600401611b0b9061321b565b60405180910390fd5b600060048190555060006005819055506000600681905550600060078190555060008060146101000a81548160ff02191690836003811115611b5957611b58612502565b5b02179055507f273467821f33675618854603ef917ebcec8a1a39f95c43d5564ed1aefab870b3600060149054906101000a900460ff16604051611b9c9190612579565b60405180910390a1565b6000600260008373ffffffffffffffffffffffffffffffffffffffff1673ffffffffffffffffffffffffffffffffffffffff16815260200190815260200160002060009054906101000a900460ff169050919050565b60008054906101000a900473ffffffffffffffffffffffffffffffffffffffff1673ffffffffffffffffffffffffffffffffffffffff163373ffffffffffffffffffffffffffffffffffffffff1614611c8a576040517f08c379a0000000000000000000000000000000000000000000000000000000008152600401611c8190612bef565b60405180910390fd5b6000806003811115611c9f57611c9e612502565b5b600060149054906101000a900460ff166003811115611cc157611cc0612502565b5b14611d01576040517f08c379a0000000000000000000000000000000000000000000000000000000008152600401611cf890612800565b60405180910390fd5b60005b8251811015611e735760026000848381518110611d2457611d23612b4e565b5b602002602001015173ffffffffffffffffffffffffffffffffffffffff1673ffffffffffffffffffffffffffffffffffffffff16815260200190815260200160002060009054906101000a900460ff16611e6057600160026000858481518110611d9157611d90612b4e565b5b602002602001015173ffffffffffffffffffffffffffffffffffffffff1673ffffffffffffffffffffffffffffffffffffffff16815260200190815260200160002060006101000a81548160ff02191690831515021790555060056000815480929190611dfd90612a72565b9190505550828181518110611e1557611e14612b4e565b5b602002602001015173ffffffffffffffffffffffffffffffffffffffff167fb6be2187d059cc2a55fe29e0e503b566e1e0f8c8780096e185429350acffd3dd60405160405180910390a25b8080611e6b90612a72565b915050611d04565b505050565b60075481565b60008054906101000a900473ffffffffffffffffffffffffffffffffffffffff1681565b60405180606001604052806000815260200160608152602001600081525090565b6000604051905090565b600080fd5b600080fd5b600073ffffffffffffffffffffffffffffffffffffffff82169050919050565b6000611f0282611ed7565b9050919050565b611f1281611ef7565b8114611f1d57600080fd5b50565b600081359050611f2f81611f09565b92915050565b600060208284031215611f4b57611f4a611ecd565b5b6000611f5984828501611f20565b91505092915050565b60008115159050919050565b611f7781611f62565b82525050565b6000602082019050611f926000830184611f6e565b92915050565b6000819050919050565b611fab81611f98565b82525050565b6000819050919050565b611fc481611fb1565b82525050565b6000606082019050611fdf6000830186611fa2565b611fec6020830185611f6e565b611ff96040830184611fbb565b949350505050565b61200a81611fb1565b811461201557600080fd5b50565b60008135905061202781612001565b92915050565b6000806040838503121561204457612043611ecd565b5b600061205285828601612018565b925050602061206385828601612018565b9150509250929050565b600081519050919050565b600082825260208201905092915050565b6000819050602082019050919050565b6120a281611fb1565b82525050565b600081519050919050565b600082825260208201905092915050565b60005b838110156120e25780820151818401526020810190506120c7565b60008484015250505050565b6000601f19601f8301169050919050565b600061210a826120a8565b61211481856120b3565b93506121248185602086016120c4565b61212d816120ee565b840191505092915050565b60006060830160008301516121506000860182612099565b506020830151848203602086015261216882826120ff565b915050604083015161217d6040860182612099565b508091505092915050565b60006121948383612138565b905092915050565b6000602082019050919050565b60006121b48261206d565b6121be8185612078565b9350836020820285016121d085612089565b8060005b8581101561220c57848403895281516121ed8582612188565b94506121f88361219c565b925060208a019950506001810190506121d4565b50829750879550505050505092915050565b6000602082019050818103600083015261223881846121a9565b905092915050565b60006020828403121561225657612255611ecd565b5b600061226484828501612018565b91505092915050565b600082825260208201905092915050565b6000612289826120a8565b612293818561226d565b93506122a38185602086016120c4565b6122ac816120ee565b840191505092915050565b60006060820190506122cc6000830186611fbb565b81810360208301526122de818561227e565b90506122ed6040830184611fbb565b949350505050565b600060208201905061230a6000830184611fa2565b92915050565b61231981611f98565b811461232457600080fd5b50565b60008135905061233681612310565b92915050565b60006020828403121561235257612351611ecd565b5b600061236084828501612327565b91505092915050565b600060208201905061237e6000830184611fbb565b92915050565b600080fd5b600080fd5b7f4e487b7100000000000000000000000000000000000000000000000000000000600052604160045260246000fd5b6123c6826120ee565b810181811067ffffffffffffffff821117156123e5576123e461238e565b5b80604052505050565b60006123f8611ec3565b905061240482826123bd565b919050565b600067ffffffffffffffff8211156124245761242361238e565b5b61242d826120ee565b9050602081019050919050565b82818337600083830152505050565b600061245c61245784612409565b6123ee565b90508281526020810184848401111561247857612477612389565b5b61248384828561243a565b509392505050565b600082601f8301126124a05761249f612384565b5b81356124b0848260208601612449565b91505092915050565b6000602082840312156124cf576124ce611ecd565b5b600082013567ffffffffffffffff8111156124ed576124ec611ed2565b5b6124f98482850161248b565b91505092915050565b7f4e487b7100000000000000000000000000000000000000000000000000000000600052602160045260246000fd5b6004811061254257612541612502565b5b50565b600081905061255382612531565b919050565b600061256382612545565b9050919050565b61257381612558565b82525050565b600060208201905061258e600083018461256a565b92915050565b600060a0820190506125a96000830188611fbb565b6125b66020830187611fbb565b6125c36040830186611fbb565b6125d06060830185611fbb565b6125dd608083018461256a565b9695505050505050565b600067ffffffffffffffff8211156126025761260161238e565b5b602082029050602081019050919050565b600080fd5b600061262b612626846125e7565b6123ee565b9050808382526020820190506020840283018581111561264e5761264d612613565b5b835b8181101561267757806126638882611f20565b845260208401935050602081019050612650565b5050509392505050565b600082601f83011261269657612695612384565b5b81356126a6848260208601612618565b91505092915050565b6000602082840312156126c5576126c4611ecd565b5b600082013567ffffffffffffffff8111156126e3576126e2611ed2565b5b6126ef84828501612681565b91505092915050565b61270181611ef7565b82525050565b600060208201905061271c60008301846126f8565b92915050565b7f596f7520617265206e6f74207265676973746572656420746f20766f74650000600082015250565b6000612758601e8361226d565b915061276382612722565b602082019050919050565b600060208201905081810360008301526127878161274b565b9050919050565b7f46756e6374696f6e2063616e6e6f742062652063616c6c65642061742074686960008201527f7320737461676500000000000000000000000000000000000000000000000000602082015250565b60006127ea60278361226d565b91506127f58261278e565b604082019050919050565b60006020820190508181036000830152612819816127dd565b9050919050565b7f596f7520686176656e277420636f6d6d6974746564206120766f746500000000600082015250565b6000612856601c8361226d565b915061286182612820565b602082019050919050565b6000602082019050818103600083015261288581612849565b9050919050565b7f596f75206861766520616c72656164792072657665616c656420796f7572207660008201527f6f74650000000000000000000000000000000000000000000000000000000000602082015250565b60006128e860238361226d565b91506128f38261288c565b604082019050919050565b60006020820190508181036000830152612917816128db565b9050919050565b7f496e76616c69642063616e646964617465204944000000000000000000000000600082015250565b600061295460148361226d565b915061295f8261291e565b602082019050919050565b6000602082019050818103600083015261298381612947565b9050919050565b6000819050919050565b6129a56129a082611fb1565b61298a565b82525050565b60006129b78285612994565b6020820191506129c78284612994565b6020820191508190509392505050565b7f496e76616c69642072657665616c202d2068617368206d69736d617463680000600082015250565b6000612a0d601e8361226d565b9150612a18826129d7565b602082019050919050565b60006020820190508181036000830152612a3c81612a00565b9050919050565b7f4e487b7100000000000000000000000000000000000000000000000000000000600052601160045260246000fd5b6000612a7d82611fb1565b91507fffffffffffffffffffffffffffffffffffffffffffffffffffffffffffffffff8203612aaf57612aae612a43565b5b600182019050919050565b7f4e487b7100000000000000000000000000000000000000000000000000000000600052602260045260246000fd5b60006002820490506001821680612b0157607f821691505b602082108103612b1457612b13612aba565b5b50919050565b6000612b2582611fb1565b9150612b3083611fb1565b9250828203905081811115612b4857612b47612a43565b5b92915050565b7f4e487b7100000000000000000000000000000000000000000000000000000000600052603260045260246000fd5b7f4f6e6c792061646d696e2063616e2063616c6c20746869732066756e6374696f60008201527f6e00000000000000000000000000000000000000000000000000000000000000602082015250565b6000612bd960218361226d565b9150612be482612b7d565b604082019050919050565b60006020820190508181036000830152612c0881612bcc565b9050919050565b7f566f74657220616c726561647920726567697374657265640000000000000000600082015250565b6000612c4560188361226d565b9150612c5082612c0f565b602082019050919050565b60006020820190508181036000830152612c7481612c38565b9050919050565b7f596f75206861766520616c726561647920636f6d6d697474656420796f75722060008201527f766f746500000000000000000000000000000000000000000000000000000000602082015250565b6000612cd760248361226d565b9150612ce282612c7b565b604082019050919050565b60006020820190508181036000830152612d0681612cca565b9050919050565b60008190508160005260206000209050919050565b60006020601f8301049050919050565b600082821b905092915050565b600060088302612d6f7fffffffffffffffffffffffffffffffffffffffffffffffffffffffffffffffff82612d32565b612d798683612d32565b95508019841693508086168417925050509392505050565b6000819050919050565b6000612db6612db1612dac84611fb1565b612d91565b611fb1565b9050919050565b6000819050919050565b612dd083612d9b565b612de4612ddc82612dbd565b848454612d3f565b825550505050565b600090565b612df9612dec565b612e04818484612dc7565b505050565b5b81811015612e2857612e1d600082612df1565b600181019050612e0a565b5050565b601f821115612e6d57612e3e81612d0d565b612e4784612d22565b81016020851015612e56578190505b612e6a612e6285612d22565b830182612e09565b50505b505050565b600082821c905092915050565b6000612e9060001984600802612e72565b1980831691505092915050565b6000612ea98383612e7f565b9150826002028217905092915050565b612ec2826120a8565b67ffffffffffffffff811115612edb57612eda61238e565b5b612ee58254612ae9565b612ef0828285612e2c565b600060209050601f831160018114612f235760008415612f11578287015190505b612f1b8582612e9d565b865550612f83565b601f198416612f3186612d0d565b60005b82811015612f5957848901518255600182019150602085019450602081019050612f34565b86831015612f765784890151612f72601f891682612e7f565b8355505b6001600288020188555050505b505050505050565b60006020820190508181036000830152612fa5818461227e565b905092915050565b7f4e6f2063616e6469646174657320617661696c61626c65000000000000000000600082015250565b6000612fe360178361226d565b9150612fee82612fad565b602082019050919050565b6000602082019050818103600083015261301281612fd6565b9050919050565b7f456c656374696f6e20697320616c72656164792066696e697368656400000000600082015250565b600061304f601c8361226d565b915061305a82613019565b602082019050919050565b6000602082019050818103600083015261307e81613042565b9050919050565b7f4174206c65617374206f6e652063616e646964617465206d757374206265206160008201527f6464656400000000000000000000000000000000000000000000000000000000602082015250565b60006130e160248361226d565b91506130ec82613085565b604082019050919050565b60006020820190508181036000830152613110816130d4565b9050919050565b7f4174206c65617374206f6e6520766f746572206d75737420626520726567697360008201527f7465726564000000000000000000000000000000000000000000000000000000602082015250565b600061317360258361226d565b915061317e82613117565b604082019050919050565b600060208201905081810360008301526131a281613166565b9050919050565b7f43616e206f6e6c7920726573657420616674657220656c656374696f6e20697360008201527f2066696e69736865640000000000000000000000000000000000000000000000602082015250565b600061320560298361226d565b9150613210826131a9565b604082019050919050565b60006020820190508181036000830152613234816131f8565b905091905056fea26469706673582212208402db67edd8ffdce9a90ef54f24e366cc0b679b6fa0147c0bea43bc3a58d2ad64736f6c63430008130033",
  "linkReferences": {},
  "deployedLinkReferences": {}
}