{
  "_format": "hh-sol-artifact-1",
  "contractName": "CommitRevealElection",
  "sourceName": "contracts/CommitRevealElection.sol",
  "abi": [
    {
      "inputs": [],
      "stateMutability": "nonpayable",
      "type": "constructor"
    },
    {
      "anonymous": false,
      "inputs": [
        {
          "indexed": true,
          "internalType": "uint256",
          "name": "candidateId",
          "type": "uint256"
        },
        {
          "indexed": false,
          "internalType": "string",
          "name": "name",
          "type": "string"
        }
      ],
      "name": "CandidateAdded",
      "type": "event"
    },
    {
      "anonymous": false,
      "inputs": [
        {
          "indexed": true,
          "internalType": "address",
          "name": "voter",
          "type": "address"
        },
        {
          "indexed": false,
          "internalType": "uint256",
          "name": "amount",
          "type": "uint256"
        }
      ],
      "name": "DepositForfeited",
      "type": "event"
    },
    {
      "anonymous": false,
      "inputs": [
        {
          "indexed": true,
          "internalType": "address",
          "name": "voter",
          "type": "address"
        },
        {
          "indexed": false,
          "internalType": "uint256",
          "name": "amount",
          "type": "uint256"
        }
      ],
      "name": "DepositRefunded",
      "type": "event"
    },
    {
      "anonymous": false,
      "inputs": [
        {
          "indexed": true,
          "internalType": "uint256",
          "name": "electionId",
          "type": "uint256"
        },
        {
          "indexed": false,
          "internalType": "uint256",
          "name": "timestamp",
          "type": "uint256"
        }
      ],
      "name": "ElectionReset",
      "type": "event"
    },
    {
      "anonymous": false,
      "inputs": [
        {
          "indexed": false,
          "internalType": "uint256",
          "name": "timestamp",
          "type": "uint256"
        }
      ],
      "name": "ElectionResetRequested",
      "type": "event"
    },
    {
      "anonymous": false,
      "inputs": [
        {
          "indexed": false,
          "internalType": "enum CommitRevealElection.Stage",
          "name": "newStage",
          "type": "uint8"
        }
      ],
      "name": "StageChanged",
      "type": "event"
    },
    {
      "anonymous": false,
      "inputs": [
        {
          "indexed": true,
          "internalType": "address",
          "name": "voter",
          "type": "address"
        },
        {
          "indexed": false,
          "internalType": "bytes32",
          "name": "commitHash",
          "type": "bytes32"
        },
        {
          "indexed": false,
          "internalType": "uint256",
          "name": "depositAmount",
          "type": "uint256"
        }
      ],
      "name": "VoteCommitted",
      "type": "event"
    },
    {
      "anonymous": false,
      "inputs": [
        {
          "indexed": true,
          "internalType": "address",
          "name": "voter",
          "type": "address"
        },
        {
          "indexed": false,
          "internalType": "uint256",
          "name": "candidateId",
          "type": "uint256"
        },
        {
          "indexed": false,
          "internalType": "uint256",
          "name": "refundAmount",
          "type": "uint256"
        }
      ],
      "name": "VoteRevealed",
      "type": "event"
    },
    {
      "anonymous": false,
      "inputs": [
        {
          "indexed": true,
          "internalType": "address",
          "name": "voter",
          "type": "address"
        }
      ],
      "name": "VoterRegistered",
      "type": "event"
    },
    {
      "inputs": [],
      "name": "MIN_DEPOSIT",
      "outputs": [
        {
          "internalType": "uint256",
          "name": "",
          "type": "uint256"
        }
      ],
      "stateMutability": "view",
      "type": "function"
    },
    {
      "inputs": [
        {
          "internalType": "string",
          "name": "_name",
          "type": "string"
        }
      ],
      "name": "addCandidate",
      "outputs": [],
      "stateMutability": "nonpayable",
      "type": "function"
    },
    {
      "inputs": [
        {
          "internalType": "string[]",
          "name": "_names",
          "type": "string[]"
        }
      ],
      "name": "addMultipleCandidates",
      "outputs": [],
      "stateMutability": "nonpayable",
      "type": "function"
    },
    {
      "inputs": [],
      "name": "admin",
      "outputs": [
        {
          "internalType": "address",
          "name": "",
          "type": "address"
        }
      ],
      "stateMutability": "view",
      "type": "function"
    },
    {
      "inputs": [],
      "name": "advanceStage",
      "outputs": [],
      "stateMutability": "nonpayable",
      "type": "function"
    },
    {
      "inputs": [],
      "name": "candidateCount",
      "outputs": [
        {
          "internalType": "uint256",
          "name": "",
          "type": "uint256"
        }
      ],
      "stateMutability": "view",
      "type": "function"
    },
    {
      "inputs": [
        {
          "internalType": "uint256",
          "name": "",
          "type": "uint256"
        }
      ],
      "name": "candidates",
      "outputs": [
        {
          "internalType": "uint256",
          "name": "id",
          "type": "uint256"
        },
        {
          "internalType": "string",
          "name": "name",
          "type": "string"
        },
        {
          "internalType": "uint256",
          "name": "voteCount",
          "type": "uint256"
        }
      ],
      "stateMutability": "view",
      "type": "function"
    },
    {
      "inputs": [
        {
          "internalType": "bytes32",
          "name": "_commitHash",
          "type": "bytes32"
        }
      ],
      "name": "commitVote",
      "outputs": [],
      "stateMutability": "payable",
      "type": "function"
    },
    {
      "inputs": [
        {
          "internalType": "address",
          "name": "",
          "type": "address"
        }
      ],
      "name": "commits",
      "outputs": [
        {
          "internalType": "bytes32",
          "name": "commitHash",
          "type": "bytes32"
        },
        {
          "internalType": "bool",
          "name": "revealed",
          "type": "bool"
        },
        {
          "internalType": "uint256",
          "name": "candidateId",
          "type": "uint256"
        },
        {
          "internalType": "uint256",
          "name": "depositAmount",
          "type": "uint256"
        }
      ],
      "stateMutability": "view",
      "type": "function"
    },
    {
      "inputs": [],
      "name": "currentStage",
      "outputs": [
        {
          "internalType": "enum CommitRevealElection.Stage",
          "name": "",
          "type": "uint8"
        }
      ],
      "stateMutability": "view",
      "type": "function"
    },
    {
      "inputs": [
        {
          "internalType": "uint256",
          "name": "",
          "type": "uint256"
        }
      ],
      "name": "electionHistory",
      "outputs": [
        {
          "internalType": "uint256",
          "name": "electionId",
          "type": "uint256"
        },
        {
          "internalType": "uint256",
          "name": "candidateCount",
          "type": "uint256"
        },
        {
          "internalType": "uint256",
          "name": "voterCount",
          "type": "uint256"
        },
        {
          "internalType": "uint256",
          "name": "totalCommits",
          "type": "uint256"
        },
        {
          "internalType": "uint256",
          "name": "totalRevealed",
          "type": "uint256"
        },
        {
          "internalType": "uint256",
          "name": "winnerId",
          "type": "uint256"
        },
        {
          "internalType": "string",
          "name": "winnerName",
          "type": "string"
        },
        {
          "internalType": "uint256",
          "name": "winnerVotes",
          "type": "uint256"
        },
        {
          "internalType": "uint256",
          "name": "timestamp",
          "type": "uint256"
        }
      ],
      "stateMutability": "view",
      "type": "function"
    },
    {
      "inputs": [],
      "name": "electionId",
      "outputs": [
        {
          "internalType": "uint256",
          "name": "",
          "type": "uint256"
        }
      ],
      "stateMutability": "view",
      "type": "function"
    },
    {
      "inputs": [
        {
          "internalType": "uint256",
          "name": "",
          "type": "uint256"
        }
      ],
      "name": "elections",
      "outputs": [
        {
          "internalType": "uint256",
          "name": "electionId",
          "type": "uint256"
        },
        {
          "internalType": "uint256",
          "name": "candidateCount",
          "type": "uint256"
        },
        {
          "internalType": "uint256",
          "name": "voterCount",
          "type": "uint256"
        },
        {
          "internalType": "uint256",
          "name": "totalCommits",
          "type": "uint256"
        },
        {
          "internalType": "uint256",
          "name": "totalRevealed",
          "type": "uint256"
        },
        {
          "internalType": "uint256",
          "name": "winnerId",
          "type": "uint256"
        },
        {
          "internalType": "string",
          "name": "winnerName",
          "type": "string"
        },
        {
          "internalType": "uint256",
          "name": "winnerVotes",
          "type": "uint256"
        },
        {
          "internalType": "uint256",
          "name": "timestamp",
          "type": "uint256"
        }
      ],
      "stateMutability": "view",
      "type": "function"
    },
    {
      "inputs": [],
      "name": "executeElectionReset",
      "outputs": [],
      "stateMutability": "nonpayable",
      "type": "function"
    },
    {
      "inputs": [],
      "name": "forfeitUnrevealedDeposits",
      "outputs": [],
      "stateMutability": "nonpayable",
      "type": "function"
    },
    {
      "inputs": [
        {
          "internalType": "uint256",
          "name": "_candidateId",
          "type": "uint256"
        },
        {
          "internalType": "uint256",
          "name": "_secret",
          "type": "uint256"
        }
      ],
      "name": "generateCommitHash",
      "outputs": [
        {
          "internalType": "bytes32",
          "name": "",
          "type": "bytes32"
        }
      ],
      "stateMutability": "pure",
      "type": "function"
    },
    {
      "inputs": [],
      "name": "getAllCandidates",
      "outputs": [
        {
          "components": [
            {
              "internalType": "uint256",
              "name": "id",
              "type": "uint256"
            },
            {
              "internalType": "string",
              "name": "name",
              "type": "string"
            },
            {
              "internalType": "uint256",
              "name": "voteCount",
              "type": "uint256"
            }
          ],
          "internalType": "struct CommitRevealElection.Candidate[]",
          "name": "",
          "type": "tuple[]"
        }
      ],
      "stateMutability": "view",
      "type": "function"
    },
    {
      "inputs": [],
      "name": "getAllElectionHistory",
      "outputs": [
        {
          "components": [
            {
              "internalType": "uint256",
              "name": "electionId",
              "type": "uint256"
            },
            {
              "internalType": "uint256",
              "name": "candidateCount",
              "type": "uint256"
            },
            {
              "internalType": "uint256",
              "name": "voterCount",
              "type": "uint256"
            },
            {
              "internalType": "uint256",
              "name": "totalCommits",
              "type": "uint256"
            },
            {
              "internalType": "uint256",
              "name": "totalRevealed",
              "type": "uint256"
            },
            {
              "internalType": "uint256",
              "name": "winnerId",
              "type": "uint256"
            },
            {
              "internalType": "string",
              "name": "winnerName",
              "type": "string"
            },
            {
              "internalType": "uint256",
              "name": "winnerVotes",
              "type": "uint256"
            },
            {
              "internalType": "uint256",
              "name": "timestamp",
              "type": "uint256"
            }
          ],
          "internalType": "struct CommitRevealElection.Election[]",
          "name": "",
          "type": "tuple[]"
        }
      ],
      "stateMutability": "view",
      "type": "function"
    },
    {
      "inputs": [
        {
          "internalType": "uint256",
          "name": "_candidateId",
          "type": "uint256"
        }
      ],
      "name": "getCandidate",
      "outputs": [
        {
          "internalType": "uint256",
          "name": "",
          "type": "uint256"
        },
        {
          "internalType": "string",
          "name": "",
          "type": "string"
        },
        {
          "internalType": "uint256",
          "name": "",
          "type": "uint256"
        }
      ],
      "stateMutability": "view",
      "type": "function"
    },
    {
      "inputs": [
        {
          "internalType": "uint256",
          "name": "index",
          "type": "uint256"
        }
      ],
      "name": "getElectionFromHistory",
      "outputs": [
        {
          "components": [
            {
              "internalType": "uint256",
              "name": "electionId",
              "type": "uint256"
            },
            {
              "internalType": "uint256",
              "name": "candidateCount",
              "type": "uint256"
            },
            {
              "internalType": "uint256",
              "name": "voterCount",
              "type": "uint256"
            },
            {
              "internalType": "uint256",
              "name": "totalCommits",
              "type": "uint256"
            },
            {
              "internalType": "uint256",
              "name": "totalRevealed",
              "type": "uint256"
            },
            {
              "internalType": "uint256",
              "name": "winnerId",
              "type": "uint256"
            },
            {
              "internalType": "string",
              "name": "winnerName",
              "type": "string"
            },
            {
              "internalType": "uint256",
              "name": "winnerVotes",
              "type": "uint256"
            },
            {
              "internalType": "uint256",
              "name": "timestamp",
              "type": "uint256"
            }
          ],
          "internalType": "struct CommitRevealElection.Election",
          "name": "",
          "type": "tuple"
        }
      ],
      "stateMutability": "view",
      "type": "function"
    },
    {
      "inputs": [
        {
          "internalType": "uint256",
          "name": "_electionId",
          "type": "uint256"
        }
      ],
      "name": "getElectionHistory",
      "outputs": [
        {
          "components": [
            {
              "internalType": "uint256",
              "name": "electionId",
              "type": "uint256"
            },
            {
              "internalType": "uint256",
              "name": "candidateCount",
              "type": "uint256"
            },
            {
              "internalType": "uint256",
              "name": "voterCount",
              "type": "uint256"
            },
            {
              "internalType": "uint256",
              "name": "totalCommits",
              "type": "uint256"
            },
            {
              "internalType": "uint256",
              "name": "totalRevealed",
              "type": "uint256"
            },
            {
              "internalType": "uint256",
              "name": "winnerId",
              "type": "uint256"
            },
            {
              "internalType": "string",
              "name": "winnerName",
              "type": "string"
            },
            {
              "internalType": "uint256",
              "name": "winnerVotes",
              "type": "uint256"
            },
            {
              "internalType": "uint256",
              "name": "timestamp",
              "type": "uint256"
            }
          ],
          "internalType": "struct CommitRevealElection.Election",
          "name": "",
          "type": "tuple"
        }
      ],
      "stateMutability": "view",
      "type": "function"
    },
    {
      "inputs": [],
      "name": "getElectionHistoryLength",
      "outputs": [
        {
          "internalType": "uint256",
          "name": "",
          "type": "uint256"
        }
      ],
      "stateMutability": "view",
      "type": "function"
    },
    {
      "inputs": [],
      "name": "getElectionStats",
      "outputs": [
        {
          "internalType": "uint256",
          "name": "",
          "type": "uint256"
        },
        {
          "internalType": "uint256",
          "name": "",
          "type": "uint256"
        },
        {
          "internalType": "uint256",
          "name": "",
          "type": "uint256"
        },
        {
          "internalType": "uint256",
          "name": "",
          "type": "uint256"
        },
        {
          "internalType": "enum CommitRevealElection.Stage",
          "name": "",
          "type": "uint8"
        }
      ],
      "stateMutability": "view",
      "type": "function"
    },
    {
      "inputs": [],
      "name": "getUnrevealedVoters",
      "outputs": [
        {
          "internalType": "address[]",
          "name": "",
          "type": "address[]"
        }
      ],
      "stateMutability": "view",
      "type": "function"
    },
    {
      "inputs": [
        {
          "internalType": "address",
          "name": "_voter",
          "type": "address"
        }
      ],
      "name": "getVoterCommit",
      "outputs": [
        {
          "internalType": "bytes32",
          "name": "",
          "type": "bytes32"
        },
        {
          "internalType": "bool",
          "name": "",
          "type": "bool"
        },
        {
          "internalType": "uint256",
          "name": "",
          "type": "uint256"
        }
      ],
      "stateMutability": "view",
      "type": "function"
    },
    {
      "inputs": [
        {
          "internalType": "address",
          "name": "_voter",
          "type": "address"
        }
      ],
      "name": "getVoterDeposit",
      "outputs": [
        {
          "internalType": "uint256",
          "name": "",
          "type": "uint256"
        }
      ],
      "stateMutability": "view",
      "type": "function"
    },
    {
      "inputs": [],
      "name": "getWinner",
      "outputs": [
        {
          "internalType": "uint256",
          "name": "",
          "type": "uint256"
        },
        {
          "internalType": "string",
          "name": "",
          "type": "string"
        },
        {
          "internalType": "uint256",
          "name": "",
          "type": "uint256"
        }
      ],
      "stateMutability": "view",
      "type": "function"
    },
    {
      "inputs": [
        {
          "internalType": "address",
          "name": "_voter",
          "type": "address"
        }
      ],
      "name": "hasVoterCommitted",
      "outputs": [
        {
          "internalType": "bool",
          "name": "",
          "type": "bool"
        }
      ],
      "stateMutability": "view",
      "type": "function"
    },
    {
      "inputs": [
        {
          "internalType": "address",
          "name": "_voter",
          "type": "address"
        }
      ],
      "name": "hasVoterRevealed",
      "outputs": [
        {
          "internalType": "bool",
          "name": "",
          "type": "bool"
        }
      ],
      "stateMutability": "view",
      "type": "function"
    },
    {
      "inputs": [
        {
          "internalType": "address",
          "name": "_address",
          "type": "address"
        }
      ],
      "name": "isAdmin",
      "outputs": [
        {
          "internalType": "bool",
          "name": "",
          "type": "bool"
        }
      ],
      "stateMutability": "view",
      "type": "function"
    },
    {
      "inputs": [],
      "name": "isAdminRegisteredAsVoter",
      "outputs": [
        {
          "internalType": "bool",
          "name": "",
          "type": "bool"
        }
      ],
      "stateMutability": "view",
      "type": "function"
    },
    {
      "inputs": [
        {
          "internalType": "address",
          "name": "_voter",
          "type": "address"
        }
      ],
      "name": "isVoterRegistered",
      "outputs": [
        {
          "internalType": "bool",
          "name": "",
          "type": "bool"
        }
      ],
      "stateMutability": "view",
      "type": "function"
    },
    {
      "inputs": [],
      "name": "registerAdminAsVoter",
      "outputs": [],
      "stateMutability": "nonpayable",
      "type": "function"
    },
    {
      "inputs": [
        {
          "internalType": "address[]",
          "name": "_voters",
          "type": "address[]"
        }
      ],
      "name": "registerMultipleVoters",
      "outputs": [],
      "stateMutability": "nonpayable",
      "type": "function"
    },
    {
      "inputs": [
        {
          "internalType": "address",
          "name": "_voter",
          "type": "address"
        }
      ],
      "name": "registerVoter",
      "outputs": [],
      "stateMutability": "nonpayable",
      "type": "function"
    },
    {
      "inputs": [
        {
          "internalType": "address",
          "name": "",
          "type": "address"
        }
      ],
      "name": "registeredVoters",
      "outputs": [
        {
          "internalType": "bool",
          "name": "",
          "type": "bool"
        }
      ],
      "stateMutability": "view",
      "type": "function"
    },
    {
      "inputs": [],
      "name": "requestElectionReset",
      "outputs": [],
      "stateMutability": "nonpayable",
      "type": "function"
    },
    {
      "inputs": [
        {
          "internalType": "uint256",
          "name": "_candidateId",
          "type": "uint256"
        },
        {
          "internalType": "uint256",
          "name": "_secret",
          "type": "uint256"
        }
      ],
      "name": "revealVote",
      "outputs": [],
      "stateMutability": "nonpayable",
      "type": "function"
    },
    {
      "inputs": [],
      "name": "totalCommits",
      "outputs": [
        {
          "internalType": "uint256",
          "name": "",
          "type": "uint256"
        }
      ],
      "stateMutability": "view",
      "type": "function"
    },
    {
      "inputs": [],
      "name": "totalRevealed",
      "outputs": [
        {
          "internalType": "uint256",
          "name": "",
          "type": "uint256"
        }
      ],
      "stateMutability": "view",
      "type": "function"
    },
    {
      "inputs": [],
      "name": "voterCount",
      "outputs": [
        {
          "internalType": "uint256",
          "name": "",
          "type": "uint256"
        }
      ],
      "stateMutability": "view",
      "type": "function"
    },
    {
      "inputs": [],
      "name": "withdrawBalance",
      "outputs": [],
      "stateMutability": "nonpayable",
      "type": "function"
    }
  ],
  "bytecode": "0x60806040523480156200001157600080fd5b50336000806101000a81548173ffffffffffffffffffffffffffffffffffffffff021916908373ffffffffffffffffffffffffffffffffffffffff16021790555060008060146101000a81548160ff021916908360038111156200007a57620000796200008d565b5b02179055506001600c81905550620000bc565b7f4e487b7100000000000000000000000000000000000000000000000000000000600052602160045260246000fd5b615d0f80620000cc6000396000f3fe6080604052600436106102725760003560e01c80635fd8c7101161014f578063aeab4c8a116100c1578063ef33ac641161007a578063ef33ac64146109b8578063ef3e6724146109e1578063f225c1f8146109f8578063f27d5aa714610a21578063f373856914610a4c578063f851a44014610a7757610272565b8063aeab4c8a146108a6578063c33f48fd146108d1578063ca94f787146108e8578063d5bae5b614610913578063e1e158a514610950578063eb2119db1461097b57610272565b80638497326a116101135780638497326a1461078e5780638e7ea5b2146107a5578063906ad2a9146107d2578063a42bf72914610801578063a9a981a31461083e578063a9ff6df11461086957610272565b80635fd8c710146106b857806362612edd146106cf578063684332f91461070c578063788be224146107375780637b43a8e61461074e57610272565b806335da4271116101e857806344d6ee2b116101ac57806344d6ee2b1461058c578063462e91ec146105b75780634eef3d1e146105e057806354cabfb11461061d5780635bf5d54c146106485780635e6fef011461067357610272565b806335da42711461049a578063369ffdf9146104df57806338db6dd31461051c5780633e8589231461054557806342169e481461056157610272565b80631448bb181161023a5780631448bb181461036057806324d7806c1461038b57806327846c8d146103c85780632e6997fe146103f15780633477ee2e1461041c57806335b8e8201461045b57610272565b8063011a9dcf14610277578063035fbe111461028e578063051364d4146102cb5780630d5ca930146102f65780631432e54114610335575b600080fd5b34801561028357600080fd5b5061028c610aa2565b005b34801561029a57600080fd5b506102b560048036038101906102b09190613fc2565b610be5565b6040516102c2919061400a565b60405180910390f35b3480156102d757600080fd5b506102e0610c3e565b6040516102ed919061403e565b60405180910390f35b34801561030257600080fd5b5061031d60048036038101906103189190613fc2565b610c44565b60405161032c93929190614072565b60405180910390f35b34801561034157600080fd5b5061034a610cec565b604051610357919061403e565b60405180910390f35b34801561036c57600080fd5b50610375610cf1565b6040516103829190614167565b60405180910390f35b34801561039757600080fd5b506103b260048036038101906103ad9190613fc2565b610d47565b6040516103bf919061400a565b60405180910390f35b3480156103d457600080fd5b506103ef60048036038101906103ea91906141b5565b610da0565b005b3480156103fd57600080fd5b50610406611327565b60405161041391906143a6565b60405180910390f35b34801561042857600080fd5b50610443600480360381019061043e91906143c8565b61149c565b6040516104529392919061443f565b60405180910390f35b34801561046757600080fd5b50610482600480360381019061047d91906143c8565b61154e565b6040516104919392919061443f565b60405180910390f35b3480156104a657600080fd5b506104c160048036038101906104bc91906143c8565b611689565b6040516104d69998979695949392919061447d565b60405180910390f35b3480156104eb57600080fd5b50610506600480360381019061050191906141b5565b61176f565b6040516105139190614511565b60405180910390f35b34801561052857600080fd5b50610543600480360381019061053e9190613fc2565b6117a2565b005b61055f600480360381019061055a9190614558565b611a4e565b005b34801561056d57600080fd5b50610576611d1c565b604051610583919061403e565b60405180910390f35b34801561059857600080fd5b506105a1611d22565b6040516105ae919061403e565b60405180910390f35b3480156105c357600080fd5b506105de60048036038101906105d991906146ba565b611d28565b005b3480156105ec57600080fd5b50610607600480360381019061060291906143c8565b611f0e565b60405161061491906147c8565b60405180910390f35b34801561062957600080fd5b50610632612074565b60405161063f919061403e565b60405180910390f35b34801561065457600080fd5b5061065d6120bf565b60405161066a9190614861565b60405180910390f35b34801561067f57600080fd5b5061069a600480360381019061069591906143c8565b6120d2565b6040516106af9998979695949392919061447d565b60405180910390f35b3480156106c457600080fd5b506106cd6121a8565b005b3480156106db57600080fd5b506106f660048036038101906106f191906143c8565b61229f565b60405161070391906147c8565b60405180910390f35b34801561071857600080fd5b506107216123af565b60405161072e919061403e565b60405180910390f35b34801561074357600080fd5b5061074c6123bc565b005b34801561075a57600080fd5b5061077560048036038101906107709190613fc2565b6126e9565b604051610785949392919061487c565b60405180910390f35b34801561079a57600080fd5b506107a3612726565b005b3480156107b157600080fd5b506107ba61282b565b6040516107c99392919061443f565b60405180910390f35b3480156107de57600080fd5b506107e7612a20565b6040516107f89594939291906148c1565b60405180910390f35b34801561080d57600080fd5b5061082860048036038101906108239190613fc2565b612a55565b604051610835919061403e565b60405180910390f35b34801561084a57600080fd5b50610853612aa1565b604051610860919061403e565b60405180910390f35b34801561087557600080fd5b50610890600480360381019061088b9190613fc2565b612aa7565b60405161089d919061400a565b60405180910390f35b3480156108b257600080fd5b506108bb612ac7565b6040516108c8919061400a565b60405180910390f35b3480156108dd57600080fd5b506108e6612b3c565b005b3480156108f457600080fd5b506108fd612e50565b60405161090a919061403e565b60405180910390f35b34801561091f57600080fd5b5061093a60048036038101906109359190613fc2565b612e56565b604051610947919061400a565b60405180910390f35b34801561095c57600080fd5b50610965612ea8565b604051610972919061403e565b60405180910390f35b34801561098757600080fd5b506109a2600480360381019061099d9190613fc2565b612eb3565b6040516109af919061400a565b60405180910390f35b3480156109c457600080fd5b506109df60048036038101906109da91906149fa565b612f09565b005b3480156109ed57600080fd5b506109f66131cc565b005b348015610a0457600080fd5b50610a1f6004803603810190610a1a9190614b06565b61391b565b005b348015610a2d57600080fd5b50610a36613cd8565b604051610a439190614cd6565b60405180910390f35b348015610a5857600080fd5b50610a61613e1a565b604051610a6e919061403e565b60405180910390f35b348015610a8357600080fd5b50610a8c613e20565b604051610a999190614d07565b60405180910390f35b60008054906101000a900473ffffffffffffffffffffffffffffffffffffffff1673ffffffffffffffffffffffffffffffffffffffff163373ffffffffffffffffffffffffffffffffffffffff1614610b30576040517f08c379a0000000000000000000000000000000000000000000000000000000008152600401610b2790614d94565b60405180910390fd5b600380811115610b4357610b426147ea565b5b600060149054906101000a900460ff166003811115610b6557610b646147ea565b5b14610ba5576040517f08c379a0000000000000000000000000000000000000000000000000000000008152600401610b9c90614e26565b60405180910390fd5b42600d819055507f9876b19ae3968bff50e9b2fc36802e9f005fc5541b2b845e86ff17f6c5023dcb42604051610bdb919061403e565b60405180910390a1565b6000600360008373ffffffffffffffffffffffffffffffffffffffff1673ffffffffffffffffffffffffffffffffffffffff16815260200190815260200160002060010160009054906101000a900460ff169050919050565b600c5481565b600080600080600360008673ffffffffffffffffffffffffffffffffffffffff1673ffffffffffffffffffffffffffffffffffffffff168152602001908152602001600020604051806080016040529081600082015481526020016001820160009054906101000a900460ff16151515158152602001600282015481526020016003820154815250509050806000015181602001518260400151935093509350509193909250565b603c81565b606060008067ffffffffffffffff811115610d0f57610d0e61458f565b5b604051908082528060200260200182016040528015610d3d5781602001602082028036833780820191505090505b5090508091505090565b60008060009054906101000a900473ffffffffffffffffffffffffffffffffffffffff1673ffffffffffffffffffffffffffffffffffffffff168273ffffffffffffffffffffffffffffffffffffffff16149050919050565b600260003373ffffffffffffffffffffffffffffffffffffffff1673ffffffffffffffffffffffffffffffffffffffff16815260200190815260200160002060009054906101000a900460ff16610e2c576040517f08c379a0000000000000000000000000000000000000000000000000000000008152600401610e2390614e92565b60405180910390fd5b6002806003811115610e4157610e406147ea565b5b600060149054906101000a900460ff166003811115610e6357610e626147ea565b5b14610ea3576040517f08c379a0000000000000000000000000000000000000000000000000000000008152600401610e9a90614f24565b60405180910390fd5b6000801b600360003373ffffffffffffffffffffffffffffffffffffffff1673ffffffffffffffffffffffffffffffffffffffff1681526020019081526020016000206000015403610f2a576040517f08c379a0000000000000000000000000000000000000000000000000000000008152600401610f2190614f90565b60405180910390fd5b600360003373ffffffffffffffffffffffffffffffffffffffff1673ffffffffffffffffffffffffffffffffffffffff16815260200190815260200160002060010160009054906101000a900460ff1615610fba576040517f08c379a0000000000000000000000000000000000000000000000000000000008152600401610fb190615022565b60405180910390fd5b600083118015610fcc57506008548311155b61100b576040517f08c379a00000000000000000000000000000000000000000000000000000000081526004016110029061508e565b60405180910390fd5b600083836040516020016110209291906150cf565b604051602081830303815290604052805190602001209050600360003373ffffffffffffffffffffffffffffffffffffffff1673ffffffffffffffffffffffffffffffffffffffff1681526020019081526020016000206000015481146110bc576040517f08c379a00000000000000000000000000000000000000000000000000000000081526004016110b390615147565b60405180910390fd5b6001600360003373ffffffffffffffffffffffffffffffffffffffff1673ffffffffffffffffffffffffffffffffffffffff16815260200190815260200160002060010160006101000a81548160ff02191690831515021790555083600360003373ffffffffffffffffffffffffffffffffffffffff1673ffffffffffffffffffffffffffffffffffffffff1681526020019081526020016000206002018190555060016000858152602001908152602001600020600201600081548092919061118590615196565b9190505550600b600081548092919061119d90615196565b91905055506000600360003373ffffffffffffffffffffffffffffffffffffffff1673ffffffffffffffffffffffffffffffffffffffff16815260200190815260200160002060030154905060008111156112d0576000600360003373ffffffffffffffffffffffffffffffffffffffff1673ffffffffffffffffffffffffffffffffffffffff168152602001908152602001600020600301819055503373ffffffffffffffffffffffffffffffffffffffff166108fc829081150290604051600060405180830381858888f19350505050158015611280573d6000803e3d6000fd5b503373ffffffffffffffffffffffffffffffffffffffff167f698270f63d8b673ed55a5ca00d14001bd808b390dbe11d5b1b16624863f71f77826040516112c7919061403e565b60405180910390a25b3373ffffffffffffffffffffffffffffffffffffffff167ff65a04be847d83385f9a7abcf32cfb35055023a4affcc7eaa319160746f4452886836040516113189291906151de565b60405180910390a25050505050565b6060600060085467ffffffffffffffff8111156113475761134661458f565b5b60405190808252806020026020018201604052801561138057816020015b61136d613e44565b8152602001906001900390816113655790505b5090506000600190505b60085481116114945760016000828152602001908152602001600020604051806060016040529081600082015481526020016001820180546113cb90615236565b80601f01602080910402602001604051908101604052809291908181526020018280546113f790615236565b80156114445780601f1061141957610100808354040283529160200191611444565b820191906000526020600020905b81548152906001019060200180831161142757829003601f168201915b50505050508152602001600282015481525050826001836114659190615267565b815181106114765761147561529b565b5b6020026020010181905250808061148c90615196565b91505061138a565b508091505090565b60016020528060005260406000206000915090508060000154908060010180546114c590615236565b80601f01602080910402602001604051908101604052809291908181526020018280546114f190615236565b801561153e5780601f106115135761010080835404028352916020019161153e565b820191906000526020600020905b81548152906001019060200180831161152157829003601f168201915b5050505050908060020154905083565b600060606000808411801561156557506008548411155b6115a4576040517f08c379a000000000000000000000000000000000000000000000000000000000815260040161159b9061508e565b60405180910390fd5b600060016000868152602001908152602001600020604051806060016040529081600082015481526020016001820180546115de90615236565b80601f016020809104026020016040519081016040528092919081815260200182805461160a90615236565b80156116575780601f1061162c57610100808354040283529160200191611657565b820191906000526020600020905b81548152906001019060200180831161163a57829003601f168201915b505050505081526020016002820154815250509050806000015181602001518260400151935093509350509193909250565b6005818154811061169957600080fd5b90600052602060002090600902016000915090508060000154908060010154908060020154908060030154908060040154908060050154908060060180546116e090615236565b80601f016020809104026020016040519081016040528092919081815260200182805461170c90615236565b80156117595780601f1061172e57610100808354040283529160200191611759565b820191906000526020600020905b81548152906001019060200180831161173c57829003601f168201915b5050505050908060070154908060080154905089565b600082826040516020016117849291906150cf565b60405160208183030381529060405280519060200120905092915050565b60008054906101000a900473ffffffffffffffffffffffffffffffffffffffff1673ffffffffffffffffffffffffffffffffffffffff163373ffffffffffffffffffffffffffffffffffffffff1614611830576040517f08c379a000000000000000000000000000000000000000000000000000000000815260040161182790614d94565b60405180910390fd5b6000806003811115611845576118446147ea565b5b600060149054906101000a900460ff166003811115611867576118666147ea565b5b146118a7576040517f08c379a000000000000000000000000000000000000000000000000000000000815260040161189e90614f24565b60405180910390fd5b600260008373ffffffffffffffffffffffffffffffffffffffff1673ffffffffffffffffffffffffffffffffffffffff16815260200190815260200160002060009054906101000a900460ff1615611934576040517f08c379a000000000000000000000000000000000000000000000000000000000815260040161192b90615316565b60405180910390fd5b6001600260008473ffffffffffffffffffffffffffffffffffffffff1673ffffffffffffffffffffffffffffffffffffffff16815260200190815260200160002060006101000a81548160ff0219169083151502179055506006829080600181540180825580915050600190039060005260206000200160009091909190916101000a81548173ffffffffffffffffffffffffffffffffffffffff021916908373ffffffffffffffffffffffffffffffffffffffff16021790555060096000815480929190611a0290615196565b91905055508173ffffffffffffffffffffffffffffffffffffffff167fb6be2187d059cc2a55fe29e0e503b566e1e0f8c8780096e185429350acffd3dd60405160405180910390a25050565b600260003373ffffffffffffffffffffffffffffffffffffffff1673ffffffffffffffffffffffffffffffffffffffff16815260200190815260200160002060009054906101000a900460ff16611ada576040517f08c379a0000000000000000000000000000000000000000000000000000000008152600401611ad190614e92565b60405180910390fd5b6001806003811115611aef57611aee6147ea565b5b600060149054906101000a900460ff166003811115611b1157611b106147ea565b5b14611b51576040517f08c379a0000000000000000000000000000000000000000000000000000000008152600401611b4890614f24565b60405180910390fd5b66038d7ea4c68000341015611b9b576040517f08c379a0000000000000000000000000000000000000000000000000000000008152600401611b9290615382565b60405180910390fd5b6000801b600360003373ffffffffffffffffffffffffffffffffffffffff1673ffffffffffffffffffffffffffffffffffffffff1681526020019081526020016000206000015414611c22576040517f08c379a0000000000000000000000000000000000000000000000000000000008152600401611c1990615414565b60405180910390fd5b81600360003373ffffffffffffffffffffffffffffffffffffffff1673ffffffffffffffffffffffffffffffffffffffff1681526020019081526020016000206000018190555034600360003373ffffffffffffffffffffffffffffffffffffffff1673ffffffffffffffffffffffffffffffffffffffff16815260200190815260200160002060030181905550600a6000815480929190611cc390615196565b91905055503373ffffffffffffffffffffffffffffffffffffffff167f06fdcf30f0bb2c4ceab314db052ad51b198e3ff93ce4121183516fa1ae84fbc88334604051611d10929190615434565b60405180910390a25050565b60095481565b600a5481565b60008054906101000a900473ffffffffffffffffffffffffffffffffffffffff1673ffffffffffffffffffffffffffffffffffffffff163373ffffffffffffffffffffffffffffffffffffffff1614611db6576040517f08c379a0000000000000000000000000000000000000000000000000000000008152600401611dad90614d94565b60405180910390fd5b6000806003811115611dcb57611dca6147ea565b5b600060149054906101000a900460ff166003811115611ded57611dec6147ea565b5b14611e2d576040517f08c379a0000000000000000000000000000000000000000000000000000000008152600401611e2490614f24565b60405180910390fd5b60086000815480929190611e4090615196565b9190505550604051806060016040528060085481526020018381526020016000815250600160006008548152602001908152602001600020600082015181600001556020820151816001019081611e979190615609565b5060408201518160020155905050600760085490806001815401808255809150506001900390600052602060002001600090919091909150556008547fe83b2a43e7e82d975c8a0a6d2f045153c869e111136a34d1889ab7b598e396a383604051611f0291906156db565b60405180910390a25050565b611f16613e65565b6005805490508210611f5d576040517f08c379a0000000000000000000000000000000000000000000000000000000008152600401611f5490615749565b60405180910390fd5b60058281548110611f7157611f7061529b565b5b906000526020600020906009020160405180610120016040529081600082015481526020016001820154815260200160028201548152602001600382015481526020016004820154815260200160058201548152602001600682018054611fd790615236565b80601f016020809104026020016040519081016040528092919081815260200182805461200390615236565b80156120505780601f1061202557610100808354040283529160200191612050565b820191906000526020600020905b81548152906001019060200180831161203357829003601f168201915b50505050508152602001600782015481526020016008820154815250509050919050565b600080600d540361208857600090506120bc565b6000600d54426120989190615267565b9050603c8110156120b55780603c6120b09190615267565b6120b8565b60005b9150505b90565b600060149054906101000a900460ff1681565b600460205280600052604060002060009150905080600001549080600101549080600201549080600301549080600401549080600501549080600601805461211990615236565b80601f016020809104026020016040519081016040528092919081815260200182805461214590615236565b80156121925780601f1061216757610100808354040283529160200191612192565b820191906000526020600020905b81548152906001019060200180831161217557829003601f168201915b5050505050908060070154908060080154905089565b60008054906101000a900473ffffffffffffffffffffffffffffffffffffffff1673ffffffffffffffffffffffffffffffffffffffff163373ffffffffffffffffffffffffffffffffffffffff1614612236576040517f08c379a000000000000000000000000000000000000000000000000000000000815260040161222d90614d94565b60405180910390fd5b60008054906101000a900473ffffffffffffffffffffffffffffffffffffffff1673ffffffffffffffffffffffffffffffffffffffff166108fc479081150290604051600060405180830381858888f1935050505015801561229c573d6000803e3d6000fd5b50565b6122a7613e65565b600460008381526020019081526020016000206040518061012001604052908160008201548152602001600182015481526020016002820154815260200160038201548152602001600482015481526020016005820154815260200160068201805461231290615236565b80601f016020809104026020016040519081016040528092919081815260200182805461233e90615236565b801561238b5780601f106123605761010080835404028352916020019161238b565b820191906000526020600020905b81548152906001019060200180831161236e57829003601f168201915b50505050508152602001600782015481526020016008820154815250509050919050565b6000600580549050905090565b60008054906101000a900473ffffffffffffffffffffffffffffffffffffffff1673ffffffffffffffffffffffffffffffffffffffff163373ffffffffffffffffffffffffffffffffffffffff161461244a576040517f08c379a000000000000000000000000000000000000000000000000000000000815260040161244190614d94565b60405180910390fd5b600080600381111561245f5761245e6147ea565b5b600060149054906101000a900460ff166003811115612481576124806147ea565b5b146124c1576040517f08c379a00000000000000000000000000000000000000000000000000000000081526004016124b890614f24565b60405180910390fd5b600260008060009054906101000a900473ffffffffffffffffffffffffffffffffffffffff1673ffffffffffffffffffffffffffffffffffffffff1673ffffffffffffffffffffffffffffffffffffffff16815260200190815260200160002060009054906101000a900460ff161561256f576040517f08c379a0000000000000000000000000000000000000000000000000000000008152600401612566906157db565b60405180910390fd5b6001600260008060009054906101000a900473ffffffffffffffffffffffffffffffffffffffff1673ffffffffffffffffffffffffffffffffffffffff1673ffffffffffffffffffffffffffffffffffffffff16815260200190815260200160002060006101000a81548160ff021916908315150217905550600660008054906101000a900473ffffffffffffffffffffffffffffffffffffffff169080600181540180825580915050600190039060005260206000200160009091909190916101000a81548173ffffffffffffffffffffffffffffffffffffffff021916908373ffffffffffffffffffffffffffffffffffffffff1602179055506009600081548092919061267e90615196565b919050555060008054906101000a900473ffffffffffffffffffffffffffffffffffffffff1673ffffffffffffffffffffffffffffffffffffffff167fb6be2187d059cc2a55fe29e0e503b566e1e0f8c8780096e185429350acffd3dd60405160405180910390a250565b60036020528060005260406000206000915090508060000154908060010160009054906101000a900460ff16908060020154908060030154905084565b60008054906101000a900473ffffffffffffffffffffffffffffffffffffffff1673ffffffffffffffffffffffffffffffffffffffff163373ffffffffffffffffffffffffffffffffffffffff16146127b4576040517f08c379a00000000000000000000000000000000000000000000000000000000081526004016127ab90614d94565b60405180910390fd5b6003808111156127c7576127c66147ea565b5b600060149054906101000a900460ff1660038111156127e9576127e86147ea565b5b14612829576040517f08c379a00000000000000000000000000000000000000000000000000000000081526004016128209061586d565b60405180910390fd5b565b6000606060006003806003811115612846576128456147ea565b5b600060149054906101000a900460ff166003811115612868576128676147ea565b5b146128a8576040517f08c379a000000000000000000000000000000000000000000000000000000000815260040161289f90614f24565b60405180910390fd5b6000600854116128ed576040517f08c379a00000000000000000000000000000000000000000000000000000000081526004016128e4906158d9565b60405180910390fd5b600060019050600060016000600181526020019081526020016000206002015490506000600290505b600854811161296d57816001600083815260200190815260200160002060020154111561295a57600160008281526020019081526020016000206002015491508092505b808061296590615196565b915050612916565b5081600160008481526020019081526020016000206001018281805461299290615236565b80601f01602080910402602001604051908101604052809291908181526020018280546129be90615236565b8015612a0b5780601f106129e057610100808354040283529160200191612a0b565b820191906000526020600020905b8154815290600101906020018083116129ee57829003601f168201915b50505050509150955095509550505050909192565b6000806000806000600854600954600a54600b54600060149054906101000a900460ff16945094509450945094509091929394565b6000600360008373ffffffffffffffffffffffffffffffffffffffff1673ffffffffffffffffffffffffffffffffffffffff168152602001908152602001600020600301549050919050565b60085481565b60026020528060005260406000206000915054906101000a900460ff1681565b6000600260008060009054906101000a900473ffffffffffffffffffffffffffffffffffffffff1673ffffffffffffffffffffffffffffffffffffffff1673ffffffffffffffffffffffffffffffffffffffff16815260200190815260200160002060009054906101000a900460ff16905090565b60008054906101000a900473ffffffffffffffffffffffffffffffffffffffff1673ffffffffffffffffffffffffffffffffffffffff163373ffffffffffffffffffffffffffffffffffffffff1614612bca576040517f08c379a0000000000000000000000000000000000000000000000000000000008152600401612bc190614d94565b60405180910390fd5b600380811115612bdd57612bdc6147ea565b5b600060149054906101000a900460ff166003811115612bff57612bfe6147ea565b5b03612c3f576040517f08c379a0000000000000000000000000000000000000000000000000000000008152600401612c3690615945565b60405180910390fd5b60006003811115612c5357612c526147ea565b5b600060149054906101000a900460ff166003811115612c7557612c746147ea565b5b03612d3457600060085411612cbf576040517f08c379a0000000000000000000000000000000000000000000000000000000008152600401612cb6906159d7565b60405180910390fd5b600060095411612d04576040517f08c379a0000000000000000000000000000000000000000000000000000000008152600401612cfb90615a69565b60405180910390fd5b6001600060146101000a81548160ff02191690836003811115612d2a57612d296147ea565b5b0217905550612e08565b60016003811115612d4857612d476147ea565b5b600060149054906101000a900460ff166003811115612d6a57612d696147ea565b5b03612d9f576002600060146101000a81548160ff02191690836003811115612d9557612d946147ea565b5b0217905550612e07565b60026003811115612db357612db26147ea565b5b600060149054906101000a900460ff166003811115612dd557612dd46147ea565b5b03612e06576003600060146101000a81548160ff02191690836003811115612e0057612dff6147ea565b5b02179055505b5b5b7f273467821f33675618854603ef917ebcec8a1a39f95c43d5564ed1aefab870b3600060149054906101000a900460ff16604051612e469190614861565b60405180910390a1565b600d5481565b60008060001b600360008473ffffffffffffffffffffffffffffffffffffffff1673ffffffffffffffffffffffffffffffffffffffff1681526020019081526020016000206000015414159050919050565b66038d7ea4c6800081565b6000600260008373ffffffffffffffffffffffffffffffffffffffff1673ffffffffffffffffffffffffffffffffffffffff16815260200190815260200160002060009054906101000a900460ff169050919050565b60008054906101000a900473ffffffffffffffffffffffffffffffffffffffff1673ffffffffffffffffffffffffffffffffffffffff163373ffffffffffffffffffffffffffffffffffffffff1614612f97576040517f08c379a0000000000000000000000000000000000000000000000000000000008152600401612f8e90614d94565b60405180910390fd5b6000806003811115612fac57612fab6147ea565b5b600060149054906101000a900460ff166003811115612fce57612fcd6147ea565b5b1461300e576040517f08c379a000000000000000000000000000000000000000000000000000000000815260040161300590614f24565b60405180910390fd5b6000825111613052576040517f08c379a000000000000000000000000000000000000000000000000000000000815260040161304990615ad5565b60405180910390fd5b603282511115613097576040517f08c379a000000000000000000000000000000000000000000000000000000000815260040161308e90615b41565b60405180910390fd5b60005b82518110156131c757600860008154809291906130b690615196565b9190505550604051806060016040528060085481526020018483815181106130e1576130e061529b565b5b6020026020010151815260200160008152506001600060085481526020019081526020016000206000820151816000015560208201518160010190816131279190615609565b5060408201518160020155905050600760085490806001815401808255809150506001900390600052602060002001600090919091909150556008547fe83b2a43e7e82d975c8a0a6d2f045153c869e111136a34d1889ab7b598e396a38483815181106131975761319661529b565b5b60200260200101516040516131ac91906156db565b60405180910390a280806131bf90615196565b91505061309a565b505050565b60008054906101000a900473ffffffffffffffffffffffffffffffffffffffff1673ffffffffffffffffffffffffffffffffffffffff163373ffffffffffffffffffffffffffffffffffffffff161461325a576040517f08c379a000000000000000000000000000000000000000000000000000000000815260040161325190614d94565b60405180910390fd5b603c600d546132699190615b61565b4210156132ab576040517f08c379a00000000000000000000000000000000000000000000000000000000081526004016132a290615be1565b60405180910390fd5b6003808111156132be576132bd6147ea565b5b600060149054906101000a900460ff1660038111156132e0576132df6147ea565b5b14613320576040517f08c379a000000000000000000000000000000000000000000000000000000000815260040161331790614e26565b60405180910390fd5b600080600060405180602001604052806000815250905060006008541115613503576001925060016000600181526020019081526020016000206002015491506001600060018152602001908152602001600020600101805461338290615236565b80601f01602080910402602001604051908101604052809291908181526020018280546133ae90615236565b80156133fb5780601f106133d0576101008083540402835291602001916133fb565b820191906000526020600020905b8154815290600101906020018083116133de57829003601f168201915b505050505090506000600290505b60085481116135015782600160008381526020019081526020016000206002015411156134ee576001600082815260200190815260200160002060020154925080935060016000828152602001908152602001600020600101805461346d90615236565b80601f016020809104026020016040519081016040528092919081815260200182805461349990615236565b80156134e65780601f106134bb576101008083540402835291602001916134e6565b820191906000526020600020905b8154815290600101906020018083116134c957829003601f168201915b505050505091505b80806134f990615196565b915050613409565b505b6000604051806101200160405280600c54815260200160085481526020016009548152602001600a548152602001600b5481526020018581526020018381526020018481526020014281525090508060046000600c548152602001908152602001600020600082015181600001556020820151816001015560408201518160020155606082015181600301556080820151816004015560a0820151816005015560c08201518160060190816135b89190615609565b5060e0820151816007015561010082015181600801559050506005819080600181540180825580915050600190039060005260206000209060090201600090919091909150600082015181600001556020820151816001015560408201518160020155606082015181600301556080820151816004015560a0820151816005015560c082015181600601908161364e9190615609565b5060e082015181600701556101008201518160080155505060005b60068054905081101561378a5760006006828154811061368c5761368b61529b565b5b9060005260206000200160009054906101000a900473ffffffffffffffffffffffffffffffffffffffff169050600260008273ffffffffffffffffffffffffffffffffffffffff1673ffffffffffffffffffffffffffffffffffffffff16815260200190815260200160002060006101000a81549060ff0219169055600360008273ffffffffffffffffffffffffffffffffffffffff1673ffffffffffffffffffffffffffffffffffffffff1681526020019081526020016000206000808201600090556001820160006101000a81549060ff021916905560028201600090556003820160009055505050808061378290615196565b915050613669565b5060005b6007805490508110156138025760016000600783815481106137b3576137b261529b565b5b906000526020600020015481526020019081526020016000206000808201600090556001820160006137e59190613eb1565b6002820160009055505080806137fa90615196565b91505061378e565b50600660006138119190613ef1565b6007600061381f9190613f12565b600060088190555060006009819055506000600a819055506000600b819055506000600d8190555060008060146101000a81548160ff0219169083600381111561386c5761386b6147ea565b5b0217905550600c600081548092919061388490615196565b91905055506001600c546138989190615267565b7f1e906dbf0ea6bd42d25286c518c295e8d29ecfacbb21a873167a0576ea257d61426040516138c7919061403e565b60405180910390a27f273467821f33675618854603ef917ebcec8a1a39f95c43d5564ed1aefab870b3600060149054906101000a900460ff1660405161390d9190614861565b60405180910390a150505050565b60008054906101000a900473ffffffffffffffffffffffffffffffffffffffff1673ffffffffffffffffffffffffffffffffffffffff163373ffffffffffffffffffffffffffffffffffffffff16146139a9576040517f08c379a00000000000000000000000000000000000000000000000000000000081526004016139a090614d94565b60405180910390fd5b60008060038111156139be576139bd6147ea565b5b600060149054906101000a900460ff1660038111156139e0576139df6147ea565b5b14613a20576040517f08c379a0000000000000000000000000000000000000000000000000000000008152600401613a1790614f24565b60405180910390fd5b6000825111613a64576040517f08c379a0000000000000000000000000000000000000000000000000000000008152600401613a5b90615c4d565b60405180910390fd5b606482511115613aa9576040517f08c379a0000000000000000000000000000000000000000000000000000000008152600401613aa090615cb9565b60405180910390fd5b60005b8251811015613cd35760026000848381518110613acc57613acb61529b565b5b602002602001015173ffffffffffffffffffffffffffffffffffffffff1673ffffffffffffffffffffffffffffffffffffffff16815260200190815260200160002060009054906101000a900460ff1615613b5c576040517f08c379a0000000000000000000000000000000000000000000000000000000008152600401613b5390615316565b60405180910390fd5b600160026000858481518110613b7557613b7461529b565b5b602002602001015173ffffffffffffffffffffffffffffffffffffffff1673ffffffffffffffffffffffffffffffffffffffff16815260200190815260200160002060006101000a81548160ff0219169083151502179055506006838281518110613be357613be261529b565b5b60200260200101519080600181540180825580915050600190039060005260206000200160009091909190916101000a81548173ffffffffffffffffffffffffffffffffffffffff021916908373ffffffffffffffffffffffffffffffffffffffff16021790555060096000815480929190613c5e90615196565b9190505550828181518110613c7657613c7561529b565b5b602002602001015173ffffffffffffffffffffffffffffffffffffffff167fb6be2187d059cc2a55fe29e0e503b566e1e0f8c8780096e185429350acffd3dd60405160405180910390a28080613ccb90615196565b915050613aac565b505050565b60606005805480602002602001604051908101604052809291908181526020016000905b82821015613e11578382906000526020600020906009020160405180610120016040529081600082015481526020016001820154815260200160028201548152602001600382015481526020016004820154815260200160058201548152602001600682018054613d6c90615236565b80601f0160208091040260200160405190810160405280929190818152602001828054613d9890615236565b8015613de55780601f10613dba57610100808354040283529160200191613de5565b820191906000526020600020905b815481529060010190602001808311613dc857829003601f168201915b505050505081526020016007820154815260200160088201548152505081526020019060010190613cfc565b50505050905090565b600b5481565b60008054906101000a900473ffffffffffffffffffffffffffffffffffffffff1681565b60405180606001604052806000815260200160608152602001600081525090565b6040518061012001604052806000815260200160008152602001600081526020016000815260200160008152602001600081526020016060815260200160008152602001600081525090565b508054613ebd90615236565b6000825580601f10613ecf5750613eee565b601f016020900490600052602060002090810190613eed9190613f33565b5b50565b5080546000825590600052602060002090810190613f0f9190613f33565b50565b5080546000825590600052602060002090810190613f309190613f33565b50565b5b80821115613f4c576000816000905550600101613f34565b5090565b6000604051905090565b600080fd5b600080fd5b600073ffffffffffffffffffffffffffffffffffffffff82169050919050565b6000613f8f82613f64565b9050919050565b613f9f81613f84565b8114613faa57600080fd5b50565b600081359050613fbc81613f96565b92915050565b600060208284031215613fd857613fd7613f5a565b5b6000613fe684828501613fad565b91505092915050565b60008115159050919050565b61400481613fef565b82525050565b600060208201905061401f6000830184613ffb565b92915050565b6000819050919050565b61403881614025565b82525050565b6000602082019050614053600083018461402f565b92915050565b6000819050919050565b61406c81614059565b82525050565b60006060820190506140876000830186614063565b6140946020830185613ffb565b6140a1604083018461402f565b949350505050565b600081519050919050565b600082825260208201905092915050565b6000819050602082019050919050565b6140de81613f84565b82525050565b60006140f083836140d5565b60208301905092915050565b6000602082019050919050565b6000614114826140a9565b61411e81856140b4565b9350614129836140c5565b8060005b8381101561415a57815161414188826140e4565b975061414c836140fc565b92505060018101905061412d565b5085935050505092915050565b600060208201905081810360008301526141818184614109565b905092915050565b61419281614025565b811461419d57600080fd5b50565b6000813590506141af81614189565b92915050565b600080604083850312156141cc576141cb613f5a565b5b60006141da858286016141a0565b92505060206141eb858286016141a0565b9150509250929050565b600081519050919050565b600082825260208201905092915050565b6000819050602082019050919050565b61422a81614025565b82525050565b600081519050919050565b600082825260208201905092915050565b60005b8381101561426a57808201518184015260208101905061424f565b60008484015250505050565b6000601f19601f8301169050919050565b600061429282614230565b61429c818561423b565b93506142ac81856020860161424c565b6142b581614276565b840191505092915050565b60006060830160008301516142d86000860182614221565b50602083015184820360208601526142f08282614287565b91505060408301516143056040860182614221565b508091505092915050565b600061431c83836142c0565b905092915050565b6000602082019050919050565b600061433c826141f5565b6143468185614200565b93508360208202850161435885614211565b8060005b8581101561439457848403895281516143758582614310565b945061438083614324565b925060208a0199505060018101905061435c565b50829750879550505050505092915050565b600060208201905081810360008301526143c08184614331565b905092915050565b6000602082840312156143de576143dd613f5a565b5b60006143ec848285016141a0565b91505092915050565b600082825260208201905092915050565b600061441182614230565b61441b81856143f5565b935061442b81856020860161424c565b61443481614276565b840191505092915050565b6000606082019050614454600083018661402f565b81810360208301526144668185614406565b9050614475604083018461402f565b949350505050565b600061012082019050614493600083018c61402f565b6144a0602083018b61402f565b6144ad604083018a61402f565b6144ba606083018961402f565b6144c7608083018861402f565b6144d460a083018761402f565b81810360c08301526144e68186614406565b90506144f560e083018561402f565b61450361010083018461402f565b9a9950505050505050505050565b60006020820190506145266000830184614063565b92915050565b61453581614059565b811461454057600080fd5b50565b6000813590506145528161452c565b92915050565b60006020828403121561456e5761456d613f5a565b5b600061457c84828501614543565b91505092915050565b600080fd5b600080fd5b7f4e487b7100000000000000000000000000000000000000000000000000000000600052604160045260246000fd5b6145c782614276565b810181811067ffffffffffffffff821117156145e6576145e561458f565b5b80604052505050565b60006145f9613f50565b905061460582826145be565b919050565b600067ffffffffffffffff8211156146255761462461458f565b5b61462e82614276565b9050602081019050919050565b82818337600083830152505050565b600061465d6146588461460a565b6145ef565b9050828152602081018484840111156146795761467861458a565b5b61468484828561463b565b509392505050565b600082601f8301126146a1576146a0614585565b5b81356146b184826020860161464a565b91505092915050565b6000602082840312156146d0576146cf613f5a565b5b600082013567ffffffffffffffff8111156146ee576146ed613f5f565b5b6146fa8482850161468c565b91505092915050565b60006101208301600083015161471c6000860182614221565b50602083015161472f6020860182614221565b5060408301516147426040860182614221565b5060608301516147556060860182614221565b5060808301516147686080860182614221565b5060a083015161477b60a0860182614221565b5060c083015184820360c08601526147938282614287565b91505060e08301516147a860e0860182614221565b506101008301516147bd610100860182614221565b508091505092915050565b600060208201905081810360008301526147e28184614703565b905092915050565b7f4e487b7100000000000000000000000000000000000000000000000000000000600052602160045260246000fd5b6004811061482a576148296147ea565b5b50565b600081905061483b82614819565b919050565b600061484b8261482d565b9050919050565b61485b81614840565b82525050565b60006020820190506148766000830184614852565b92915050565b60006080820190506148916000830187614063565b61489e6020830186613ffb565b6148ab604083018561402f565b6148b8606083018461402f565b95945050505050565b600060a0820190506148d6600083018861402f565b6148e3602083018761402f565b6148f0604083018661402f565b6148fd606083018561402f565b61490a6080830184614852565b9695505050505050565b600067ffffffffffffffff82111561492f5761492e61458f565b5b602082029050602081019050919050565b600080fd5b600061495861495384614914565b6145ef565b9050808382526020820190506020840283018581111561497b5761497a614940565b5b835b818110156149c257803567ffffffffffffffff8111156149a05761499f614585565b5b8086016149ad898261468c565b8552602085019450505060208101905061497d565b5050509392505050565b600082601f8301126149e1576149e0614585565b5b81356149f1848260208601614945565b91505092915050565b600060208284031215614a1057614a0f613f5a565b5b600082013567ffffffffffffffff811115614a2e57614a2d613f5f565b5b614a3a848285016149cc565b91505092915050565b600067ffffffffffffffff821115614a5e57614a5d61458f565b5b602082029050602081019050919050565b6000614a82614a7d84614a43565b6145ef565b90508083825260208201905060208402830185811115614aa557614aa4614940565b5b835b81811015614ace5780614aba8882613fad565b845260208401935050602081019050614aa7565b5050509392505050565b600082601f830112614aed57614aec614585565b5b8135614afd848260208601614a6f565b91505092915050565b600060208284031215614b1c57614b1b613f5a565b5b600082013567ffffffffffffffff811115614b3a57614b39613f5f565b5b614b4684828501614ad8565b91505092915050565b600081519050919050565b600082825260208201905092915050565b6000819050602082019050919050565b600061012083016000830151614b946000860182614221565b506020830151614ba76020860182614221565b506040830151614bba6040860182614221565b506060830151614bcd6060860182614221565b506080830151614be06080860182614221565b5060a0830151614bf360a0860182614221565b5060c083015184820360c0860152614c0b8282614287565b91505060e0830151614c2060e0860182614221565b50610100830151614c35610100860182614221565b508091505092915050565b6000614c4c8383614b7b565b905092915050565b6000602082019050919050565b6000614c6c82614b4f565b614c768185614b5a565b935083602082028501614c8885614b6b565b8060005b85811015614cc45784840389528151614ca58582614c40565b9450614cb083614c54565b925060208a01995050600181019050614c8c565b50829750879550505050505092915050565b60006020820190508181036000830152614cf08184614c61565b905092915050565b614d0181613f84565b82525050565b6000602082019050614d1c6000830184614cf8565b92915050565b7f4f6e6c792061646d696e2063616e2063616c6c20746869732066756e6374696f60008201527f6e00000000000000000000000000000000000000000000000000000000000000602082015250565b6000614d7e6021836143f5565b9150614d8982614d22565b604082019050919050565b60006020820190508181036000830152614dad81614d71565b9050919050565b7f43616e206f6e6c7920726573657420616674657220656c656374696f6e20697360008201527f2066696e69736865640000000000000000000000000000000000000000000000602082015250565b6000614e106029836143f5565b9150614e1b82614db4565b604082019050919050565b60006020820190508181036000830152614e3f81614e03565b9050919050565b7f596f7520617265206e6f74207265676973746572656420746f20766f74650000600082015250565b6000614e7c601e836143f5565b9150614e8782614e46565b602082019050919050565b60006020820190508181036000830152614eab81614e6f565b9050919050565b7f46756e6374696f6e2063616e6e6f742062652063616c6c65642061742074686960008201527f7320737461676500000000000000000000000000000000000000000000000000602082015250565b6000614f0e6027836143f5565b9150614f1982614eb2565b604082019050919050565b60006020820190508181036000830152614f3d81614f01565b9050919050565b7f596f7520686176656e277420636f6d6d6974746564206120766f746500000000600082015250565b6000614f7a601c836143f5565b9150614f8582614f44565b602082019050919050565b60006020820190508181036000830152614fa981614f6d565b9050919050565b7f596f75206861766520616c72656164792072657665616c656420796f7572207660008201527f6f74650000000000000000000000000000000000000000000000000000000000602082015250565b600061500c6023836143f5565b915061501782614fb0565b604082019050919050565b6000602082019050818103600083015261503b81614fff565b9050919050565b7f496e76616c69642063616e646964617465204944000000000000000000000000600082015250565b60006150786014836143f5565b915061508382615042565b602082019050919050565b600060208201905081810360008301526150a78161506b565b9050919050565b6000819050919050565b6150c96150c482614025565b6150ae565b82525050565b60006150db82856150b8565b6020820191506150eb82846150b8565b6020820191508190509392505050565b7f496e76616c69642072657665616c202d2068617368206d69736d617463680000600082015250565b6000615131601e836143f5565b915061513c826150fb565b602082019050919050565b6000602082019050818103600083015261516081615124565b9050919050565b7f4e487b7100000000000000000000000000000000000000000000000000000000600052601160045260246000fd5b60006151a182614025565b91507fffffffffffffffffffffffffffffffffffffffffffffffffffffffffffffffff82036151d3576151d2615167565b5b600182019050919050565b60006040820190506151f3600083018561402f565b615200602083018461402f565b9392505050565b7f4e487b7100000000000000000000000000000000000000000000000000000000600052602260045260246000fd5b6000600282049050600182168061524e57607f821691505b60208210810361526157615260615207565b5b50919050565b600061527282614025565b915061527d83614025565b925082820390508181111561529557615294615167565b5b92915050565b7f4e487b7100000000000000000000000000000000000000000000000000000000600052603260045260246000fd5b7f566f74657220616c726561647920726567697374657265640000000000000000600082015250565b60006153006018836143f5565b915061530b826152ca565b602082019050919050565b6000602082019050818103600083015261532f816152f3565b9050919050565b7f496e73756666696369656e74206465706f73697420666f7220766f74696e6700600082015250565b600061536c601f836143f5565b915061537782615336565b602082019050919050565b6000602082019050818103600083015261539b8161535f565b9050919050565b7f596f75206861766520616c726561647920636f6d6d697474656420796f75722060008201527f766f746500000000000000000000000000000000000000000000000000000000602082015250565b60006153fe6024836143f5565b9150615409826153a2565b604082019050919050565b6000602082019050818103600083015261542d816153f1565b9050919050565b60006040820190506154496000830185614063565b615456602083018461402f565b9392505050565b60008190508160005260206000209050919050565b60006020601f8301049050919050565b600082821b905092915050565b6000600883026154bf7fffffffffffffffffffffffffffffffffffffffffffffffffffffffffffffffff82615482565b6154c98683615482565b95508019841693508086168417925050509392505050565b6000819050919050565b60006155066155016154fc84614025565b6154e1565b614025565b9050919050565b6000819050919050565b615520836154eb565b61553461552c8261550d565b84845461548f565b825550505050565b600090565b61554961553c565b615554818484615517565b505050565b5b818110156155785761556d600082615541565b60018101905061555a565b5050565b601f8211156155bd5761558e8161545d565b61559784615472565b810160208510156155a6578190505b6155ba6155b285615472565b830182615559565b50505b505050565b600082821c905092915050565b60006155e0600019846008026155c2565b1980831691505092915050565b60006155f983836155cf565b9150826002028217905092915050565b61561282614230565b67ffffffffffffffff81111561562b5761562a61458f565b5b6156358254615236565b61564082828561557c565b600060209050601f8311600181146156735760008415615661578287015190505b61566b85826155ed565b8655506156d3565b601f1984166156818661545d565b60005b828110156156a957848901518255600182019150602085019450602081019050615684565b868310156156c657848901516156c2601f8916826155cf565b8355505b6001600288020188555050505b505050505050565b600060208201905081810360008301526156f58184614406565b905092915050565b7f456c656374696f6e20696e646578206f7574206f6620626f756e647300000000600082015250565b6000615733601c836143f5565b915061573e826156fd565b602082019050919050565b6000602082019050818103600083015261576281615726565b9050919050565b7f41646d696e20616c7265616479207265676973746572656420617320766f746560008201527f7200000000000000000000000000000000000000000000000000000000000000602082015250565b60006157c56021836143f5565b91506157d082615769565b604082019050919050565b600060208201905081810360008301526157f4816157b8565b9050919050565b7f43616e206f6e6c7920666f726665697420616674657220656c656374696f6e2060008201527f69732066696e6973686564000000000000000000000000000000000000000000602082015250565b6000615857602b836143f5565b9150615862826157fb565b604082019050919050565b600060208201905081810360008301526158868161584a565b9050919050565b7f4e6f2063616e6469646174657320617661696c61626c65000000000000000000600082015250565b60006158c36017836143f5565b91506158ce8261588d565b602082019050919050565b600060208201905081810360008301526158f2816158b6565b9050919050565b7f456c656374696f6e20697320616c72656164792066696e697368656400000000600082015250565b600061592f601c836143f5565b915061593a826158f9565b602082019050919050565b6000602082019050818103600083015261595e81615922565b9050919050565b7f4174206c65617374206f6e652063616e646964617465206d757374206265206160008201527f6464656400000000000000000000000000000000000000000000000000000000602082015250565b60006159c16024836143f5565b91506159cc82615965565b604082019050919050565b600060208201905081810360008301526159f0816159b4565b9050919050565b7f4174206c65617374206f6e6520766f746572206d75737420626520726567697360008201527f7465726564000000000000000000000000000000000000000000000000000000602082015250565b6000615a536025836143f5565b9150615a5e826159f7565b604082019050919050565b60006020820190508181036000830152615a8281615a46565b9050919050565b7f4e6f2063616e646964617465732070726f766964656400000000000000000000600082015250565b6000615abf6016836143f5565b9150615aca82615a89565b602082019050919050565b60006020820190508181036000830152615aee81615ab2565b9050919050565b7f546f6f206d616e792063616e6469646174657320286d61782035302900000000600082015250565b6000615b2b601c836143f5565b9150615b3682615af5565b602082019050919050565b60006020820190508181036000830152615b5a81615b1e565b9050919050565b6000615b6c82614025565b9150615b7783614025565b9250828201905080821115615b8f57615b8e615167565b5b92915050565b7f526573657420636f6f6c646f776e206e6f742070617373656400000000000000600082015250565b6000615bcb6019836143f5565b9150615bd682615b95565b602082019050919050565b60006020820190508181036000830152615bfa81615bbe565b9050919050565b7f4e6f20766f746572732070726f76696465640000000000000000000000000000600082015250565b6000615c376012836143f5565b9150615c4282615c01565b602082019050919050565b60006020820190508181036000830152615c6681615c2a565b9050919050565b7f546f6f206d616e7920766f7465727320286d6178203130302900000000000000600082015250565b6000615ca36019836143f5565b9150615cae82615c6d565b602082019050919050565b60006020820190508181036000830152615cd281615c96565b905091905056fea264697066735822122023a9074419854570f4677bf1a32515cdf81f1eb6e28d5d491c96ebf65dd5aa8b64736f6c63430008130033",
  "linkReferences": {},
  "deployedLinkReferences": {}
}